:0400000080313A28E9
:100008007E14803120007F08F8007F30F7007708E1
:100018008B05111F1B2821001C08F7007708CE004C
:100028001B08F7007708CF00200011133528111D91
:100038002A2801302200B8070030B93D2000970176
:100048009601FB30F7007708910535280B1D3428F9
:100058008431B5248031FB30F70077088B053528CB
:100068008B1778082000FF007E10090080313C289B
:10007800F901FA01FB01FC01FD01EF01A030840048
:100088000030850033309631CD2680312030840011
:10009800013085001C309631CD268031A030840097
:1000A8000130850040309631CD2680313C308400C7
:1000B800973085003C30860001308700103096313B
:1000C800C7267E1020008D31682D210046080F3983
:1000D8002000B300B401B501B6011C30B335B40D2E
:1000E800B50DB60D890B7228210045081F3920006F
:1000F800B700B801B901BA011730B735B80DB90D55
:10010800BA0D890B81282100440807392000BB005B
:10011800BC01BD01BE011430BB35BC0DBD0DBE0D0B
:10012800890B9028210043080F392000BF00C00127
:10013800C101C2011030BF35C00DC10DC20D890B00
:100148009F282100420801392000C300C401C501CD
:10015800C6010F30C335C40DC50DC60D890BAE28B9
:10016800210041080F392000C700C801C901CA0190
:100178000B30C735C80DC90DCA0D890BBD28210024
:10018800400801392000CB00CC01CD01CE010A3056
:10019800CB35CC0DCD0DCE0D890BCC2821003F08D9
:1001A80001392000CF00D001D101D2010930CF356B
:1001B800D00DD10DD20D890BDB2821003E08013965
:1001C8002000D300D401D501D6010830D335D40D91
:1001D800D50DD60D890BEA2821003D0803392000EA
:1001E800D700D801D901DA010630D735D80DD90D95
:1001F800DA0D890BF92821003C0801392000DB00C1
:10020800DC01DD01DE010530DB35DC0DDD0DDE0D49
:10021800890B082921003B0801392000DF00E00193
:10022800E101E2010430DF35E00DE10DE20D890B5B
:10023800172921003A0801392000E300E401E5010B
:10024800E6010330E335E40DE50DE60D890B2629BB
:100258002100390801392000E700E801E901EA0135
:100268000230E735E80DE90DEA0D890B35296708F5
:10027800E3046808E4046908E5046A08E604630816
:10028800DF046408E0046508E1046608E2045F0826
:10029800DB046008DC046108DD046208DE045B0836
:1002A800D7045C08D8045D08D9045E08DA04570846
:1002B800D3045808D4045908D5045A08D604530856
:1002C800CF045408D0045508D1045608D2044F0866
:1002D800CB045008CC045108CD045208CE044B0876
:1002E800C7044C08C8044D08C9044E08CA04470886
:1002F800C3044808C4044908C5044A08C604430896
:10030800BF044408C0044508C1044608C2043F08A5
:10031800BB044008BC044108BD044208BE043B08B5
:10032800B7043C08B8043D08B9043E08BA043708C5
:10033800B3043808B4043908B5043A08B6040330DD
:1003480033042100D7000030200034042100D800F5
:100358000030200035042100D90000302000360488
:100368002100DA00D7302000B3003308A0000430A1
:10037800A1000030A200D3308831532080310430EE
:100388002000B3003308A700D33089312D218031F4
:1003980004302000B3003308AA00D33089319721F4
:1003A80008002100A901183020004902031DE62990
:1003B80070304802031DE6291A304702031DE6295A
:1003C800803046020318EB292100A901A90A0C3044
:1003D80020004902031DFA2984304802031DFA2926
:1003E80058304702031DFA29803046020318012AB3
:1003F8000230CA004A082100A9000730200049023B
:10040800031D102ABF304802031D102AA4304702DA
:10041800031D102A803046020318172A0330CA0029
:100428004A082100A900210024082000CA00CB01A5
:10043800CC01CD014D08A3004C08A2004B08A10037
:100448004A08A0000130A7003130A6002D30A500D1
:100458000030A4008C315F24813120002308DB00A8
:100468002208DA002108D9002008D8005B08A30078
:100478005A08A2005908A1005808A0004908A70076
:100488004808A6004708A5004608A4008931D021DD
:10049800813120002308DF002208DE002108DD006A
:1004A8002008DC005B08AB005A08AA005908A9001C
:1004B8005808A8008831A620813120002808AE00FD
:1004C8002908AF002A08B0004908AB004808AA006C
:1004D8004708A9004608A8008831A62081312000D5
:1004E8002808B1002908B2002A08B3008D31EF2589
:1004F800813120002E08D2002F08D3003008D40004
:100508005208B1005308B2005408B3005F08AB00AA
:100518005E08AA005D08A9005C08A8008831A6202A
:10052800813120002808AE002908AF002A08B00051
:100538009631DC26813120002E08B4002F08B50042
:100548003008B6008231E722813120003108D50019
:100558003208D6003308D7005508AB005608AC005F
:100568005708AD000030A8008030A9004530AA0027
:100578008F314C27813120002808B8002908B9009C
:100588002A08BA008C31E12420003B08D1003A083F
:10059800D0003908CF003808CE005C08CA004A08E5
:1005A8002100AE00200051082100AD0020005008B5
:1005B8002100AC0020004F082100AB0020004E08AD
:1005C8002100AA00080020003108B7003208B8004E
:1005D8003308B9000310380D390DBA003A08BD00C8
:1005E8003408B7003508B8003608B9000310380DCC
:1005F800390DBA003A08BC003D0803190F2B3C0816
:100608003D020318162B3D03FF3A3C07B70019308B
:100618003702031C162B3408B1003508B20036081F
:10062800B30008003C08031908003D083C02031801
:10063800252B3C03FF3A3D07B70019303702031852
:1006480008000630B7003708BB00B31BBB17B61B42
:100658003B17B217FF30B105FF30B2050030B305C4
:10066800B517FF30B405FF30B5050030B6053C08B6
:100678003D020318612B0130B435B50DB60D890B59
:10068800402B0130BC023C083D0603195C2B0130AD
:10069800BB023B08073903195C2B3F2B0130B336EB
:1006A800B20CB10C890B532B0130B7003708BD07CA
:1006B8003D083C060319862B522B3D083C020318C3
:1006C800862B0130B135B20DB30D890B662B013085
:1006D800BD023C083D060319822B0130BB023B08D2
:1006E80007390319822B652B0130B636B50CB40CCB
:1006F800890B792B0130B7003708BC073D083C0649
:10070800031D782BBB1F982BFF30B106FF30B206B4
:10071800FF30B3060130B107003003180130B207CB
:10072800003003180130B3073B1FAA2BFF30B40673
:10073800FF30B506FF30B6060130B40700300318A5
:100748000130B507003003180130B607BB01310886
:10075800B4073208B53D3308B63DB61FC52BFF3088
:10076800B406FF30B506FF30B6060130B4070030D6
:1007780003180130B507003003180130B607BB0174
:10078800BB0A3408A0003508A1003608A2003D08BD
:10079800B7003708A3003B08B8003808A4008A311E
:1007A800232220002008B1002108B2002208B3004B
:1007B80008002000B3000030FC000030FB000030CF
:1007C800FA000030F9002100C901CA01FF30C70052
:1007D800FF30C8002000B401B5013508803AAE00EA
:1007E80080302E02031DFA2B0A30340203180F2C16
:1007F8008B316A23833101302000B4070030B53DC6
:100808003508803AAE0080302E02031D0D2C0A30C8
:100818003402031CFC2B2000B401B5013508803AD2
:10082800AE0080302E02031D1B2C03303402031847
:10083800302C8B31E323833101302000B4070030A2
:10084800B53D3508803AAE0080302E02031D2E2CAF
:1008580003303402031C1D2C2000B401B5013508F7
:10086800803AAE002D08803A2E02031D3D2C2C083C
:1008780034020318AD2C2000B101B2013208803ACD
:10088800AE0080302E02031D4B2C063031020318B7
:10089800722C20003408AE000230AE35FF3E031D36
:1008A800512C2E353307AF0031082F07B000300820
:1008B8008600870101358E3198268331013020006A
:1008C800B1070030B23D3208803AAE0080302E02C7
:1008D800031D702C06303102031C4D2C20002C08FF
:1008E800FF3EAE00FF302D3DAF0035082F06031D3B
:1008F8007F2C34082E06031D932C3408AE000230DA
:10090800AE35FF3E031D842C2E353307AF002F086C
:10091800073E860087010135603E0138A42C20007F
:100928003408AE000230AE35FF3E031D972C2E353D
:100938003307AF002F08073E860087010135603E68
:100948008E319826833101302000B4070030B53D40
:10095800332C03308E3198268331F0308E3198262F
:10096800080021004C08013A031D0800003022004D
:100978002B06031DC92C00302A06031DC92C003084
:100988002906031DC92C32302806031DD72C210047
:10099800CC0188310020843110309631A626210000
:1009A800CD01CD0A08002100D008031D282D0730ED
:1009B80022002805F10000302905F20000302A0540
:1009C800F30000302B05F4007408730472047104FA
:1009D800031D062D2808F1002908F2002A08F30053
:1009E8002B08F4000330F436F30CF20CF10C890BED
:1009F800F72C7108A03E8600013087000108F50039
:100A08007508092D7D36F1007108FD007D18282D27
:100A180021004B0803191C2D22002308B3002208CB
:100A2800B2002108B1002008B0002100CB01282D18
:100A380022002708B3002608B2002508B1002408C0
:100A4800B0002100CB01CB0A22003008AC073108E6
:100A5800AD3D3208AE3D3308AF3D00302F02031DD7
:100A68003F2D00302E02031D3F2D00302D02031DA7
:100A78003F2DB6302C02031C592D4A30F100FF30AF
:100A8800F200FF30F300FF30F4002C08F1072D08C6
:100A9800F23D2E08F33D2F08F43D7408AF007308AB
:100AA800AE007208AD007108AC002D0885002C0856
:100AB8008400003084078730853D0008F100710804
:100AC800F60076089631A62684310130F1007108C7
:100AD8002100D007500820006F06031D08002100E0
:100AE800D00101302200A8070030A93D0030AA3DFE
:100AF8000030AB3D08002100290803392000B3006D
:100B0800B401B501B6011930B335B40DB50DB60D44
:100B1800890B882D2100280803392000B700B80167
:100B2800B901BA011730B735B80DB90DBA0D890B2F
:100B3800972D210027080F392000BB00BC01BD01FB
:100B4800BE011330BB35BC0DBD0DBE0D890BA62DE6
:100B58002100260801392000BF00C001C101C201DF
:100B68001230BF35C00DC10DC20D890BB52D210046
:100B7800250801392000C300C401C501C601113090
:100B8800C335C40DC50DC60D890BC42D210024081D
:100B98000F392000C700C801C901CA010D30C73587
:100BA800C80DC90DCA0D890BD32DFF3021002005B2
:100BB8002000CB000730210021052000CC000030A8
:100BC800210022052000CD0000302100230520004F
:100BD800CE000230CB35CC0DCD0DCE0D890BEE2DD0
:100BE8004B08C7044C08C8044D08C9044E08CA0479
:100BF8004708C3044808C4044908C5044A08C60489
:100C08004308BF044408C0044508C1044608C20498
:100C18003F08BB044008BC044108BD044208BE04A8
:100C28003B08B7043C08B8043D08B9043E08BA04B8
:100C380033083704D30034083804D400350839049D
:100C4800D50036083A04D6005330B3003308A00064
:100C58000430A1000030A2004F3088315320853184
:100C680004302000B3003308A7004F3089312D210C
:100C7800853104302000B3003308AA004F30893191
:100C8800972108002100380803392000B300B40177
:100C9800B501B6011730B335B40DB50DB60D890BD6
:100CA8004F2E2100370807392000B700B801B901D5
:100CB800BA011430B735B80DB90DBA0D890B5E2ECF
:100CC8001330A03E86008701FF300105BB0041318B
:100CD80001300105BC00413100300105BD00413142
:100CE80000300105BE000B30BB35BC0DBD0DBE0D7F
:100CF800890B782E210032083F392000BF00C0013F
:100D0800C101C2010530BF35C00DC10DC20D890B2F
:100D1800872E2100310801392000C300C401C50114
:100D2800C6010430C335C40DC50DC60D890B962EFA
:100D38002100300803392000C700C801C901CA01D1
:100D48000230C735C80DC90DCA0D890BA52E470835
:100D5800C3044808C4044908C5044A08C60443082B
:100D6800BF044408C0044508C1044608C2043F083B
:100D7800BB044008BC044108BD044208BE043B084B
:100D8800B7043C08B8043D08B9043E08BA0437085B
:100D9800B3043808B4043908B5043A08B604023074
:100DA8003304CF0000303404D00000303504D100C3
:100DB80000303604D2004F30B3003308A0000430AE
:100DC800A1000030A2004B30883153208631043016
:100DD8002000B3003308A7004B3089312D2186311C
:100DE80004302000B3003308AA004B308931972122
:020DF8000800F1
:100E000010341034113411341234123413341334B6
:100E10001434143415341534163416341734173486
:100E2000183418341934193419341A341A341B3458
:100E30001B341B341C341C341C341D341D341D3431
:100E40001D341E341E341E341E341E341E341F3412
:100E50001F341F341F341F341F341F341F341F34FA
:100E60001F341F341F341F341F341E341E341E34ED
:100E70001E341E341E341D341D341D341D341C34E8
:100E80001C341C341B341B341B341A341A341934EC
:100E900019341934183418341734173416341634F6
:100EA0001534153414341434133413341234123406
:100EB00011341134103410340F340E340E340D3418
:100EC0000D340C340C340B340B340A340A3409342A
:100ED0000934083408340734073406340634063439
:100EE0000534053404340434043403340334033443
:100EF0000234023402340234013401340134013446
:100F0000013401340034003400340034003400343F
:100F10000034003400340034003400340034003431
:100F20000134013401340134013401340234023417
:100F300002340234033403340334043404340434F8
:100F400005340534063406340634073407340834CF
:100F50000834093409340A340A340B340B340C34A1
:100F60000C340D340D340E340E340F3412347A3404
:100F700000340034B0340434B634003448344534DA
:100F80004C344C344F3400342100BA01B2010330E8
:100F90002000ED006D082100C1009631E526873163
:100FA0000A302000A0000030A10088312A208731BB
:100FB0009631FF2687310038031908008A31F5225F
:100FC00087312100BA01BA0A3F302000ED006D08D8
:100FD0002100B2000A302000A0000030A1008831BA
:100FE0002A2087319631E526873101302000A00084
:100FF0000030A10088312A2008009631FF26080021
:101000008B122000950108002100B901BA01BB0133
:10101000BB0ABC01BC0A03302000A000200821004C
:10102000BD00BE01BF01C00103302000A0002008A8
:101030002100C100C20106302000A00020082100CC
:10104000C30004302000A00020082100C400C50116
:10105000C60108002000A401A5013F30A20022081B
:101060008B059631AB2688312000A401A50121080B
:101070002502031D3D282008240203184E280B30AA
:10108000A3006230A200A20B4328A30B4328000058
:1010900001302000A4070030A53D3728C030A20051
:1010A00022088B0408002000A6002008A3002308C3
:1010B000A5002608A3002308A4000130A1020030E7
:1010C000A23BFF302206031D6728FF3021060319CB
:1010D00008002508860087010108A300240886006F
:1010E0008701230881000130A3002308A5070130F0
:1010F000A3002308A4075D282000A7000C112708DF
:10110000A6002608A800A901083029020318080033
:10111000A81F8C280E158D280E110310A80D0C1574
:101120000130A0000030A10088312A208831200041
:101130000C110130A0000030A10088312A20883134
:1011400001302000A6002608A90784288E30200040
:10115000AC002C08AD00FF302B050319BB28013073
:10116000AB36AA0CA90CA80C890BB0280130AC0036
:101170002C08AD07AB282808A0002908A1002A08E0
:10118000A2002D08AC002C08A300A4018A31232260
:1011900020002008A8002108A9002208AA000800B1
:1011A00022002308B3002208B2002108B100200861
:1011B000B0000030AF000030AE000030AD000030B5
:1011C000AC000030AB000030AA000030A9000030B5
:1011D000A8002100D001CC01CC0A8731C427883176
:1011E00064302000A0000030A10088312A2088311E
:1011F0009631B02608002000A2002208A000A1011C
:1012000020082100C706200021082100C806471C2D
:101210001C2948082000A100210047082000A00048
:10122000A136A00C083020062100C7008430200021
:1012300021062100C800080048082000A100210064
:1012400047082000A000A136A00C20082100C700FC
:10125000200021082100C80008002000B100B201D0
:101260003108A8002808A0002708A900AA01290819
:10127000A1002A08A2002D30883153208931200096
:10128000B2012708320203180800FF302707A80020
:101290002D302807A9003203FF3A2907AA002A089F
:1012A000860087010108AB0032083107AC002C082A
:1012B000860087012B0881000130A8002808B207AA
:1012C000412921009901F0302000A00020082100D0
:1012D00099049801951295152000181499139813E4
:1012E00018139816181625009315131193149310BC
:1012F0002200981698111811181023008C148330AE
:101300002000A000200821009D051D151E119E1023
:101310001E101E179E161E129E170B112000111074
:1013200011111113C030A00020088B040800200008
:10133000AC00AD010130A0000030A10088312A20AE
:10134000893120000C120130A0000030A10088314A
:101350002A2089312000AD012A082D020318C02956
:101360002D082C07AB002B08860087010108883167
:101370007C20893101302000AB002B08AD07AC295F
:101380000130A0000030A10088312A2089312000DE
:101390000C160130A0000030A10088312A2008007E
:1013A00000302000AC000030AB000030AA0000305C
:1013B000A900230822042104200403191A2AAD01DC
:1013C000AD0AA31BEF290130A035A10DA20DA30D7D
:1013D000890BE4290130A8002808AD07E129013074
:1013E000A935AA0DAB0DAC0D890BF02923082702F6
:1013F000031D042A22082602031D042A21082502AF
:10140000031D042A20082402031C0F2A2008A4021A
:101410002108A53B2208A63B2308A73B291401303D
:10142000A336A20CA10CA00C890B102A0130AD022E
:10143000031DEF292C08A3002B08A2002A08A100F5
:101440002908A00008002000230803192C2A2208DC
:1014500021042004031D3D2A0030A0000030A1001B
:101460000030A20008000130A5002508A3070130C4
:10147000A236A10CA00C890B382AFE3022050319D4
:10148000562A332A0130A5002508A3070130A007FA
:10149000003003180130A107003003180130A20703
:1014A0000130A236A10CA00C890B512AFF30220575
:1014B0000319632A422A0130A3020130A035A10D8D
:1014C000A20D890B5E2AA11F5B2A23186D2AFF300B
:1014D000A0057F30A105FF30A2050310A30C23084F
:1014E000A500A601A7011030A535A60DA70D890BF3
:1014F000742A2508A0042608A1042708A2042408A9
:1015000003190800A217080021002F080139200044
:10151000B300B401B501B6011630B335B40DB50D45
:10152000B60D890B8D2A21002E082000B700B801C6
:10153000B901BA010E30B735B80DB90DBA0D890B26
:101540009B2A0A30A03E86008701FF300105BB00C0
:1015500041310F300105BC00413100300105BD00B3
:10156000413100300105BE000230BB35BC0DBD0D60
:10157000BE0D890BB52A3B08B7043C08B8043D08EA
:10158000B9043E08BA043708B3043808B40439086B
:10159000B5043A08B60401303304BF000030340407
:1015A000C00000303504C10000303604C2003F30B6
:1015B000B3003308A0000330A1000030A200433084
:1015C000883153208A3103302000B3003308A7004C
:1015D000433089312D218A3103302000B300330894
:1015E000AA004330893197210800C8302000A000AC
:1015F0000030A10088312A208A31210028082000EB
:10160000EB00EC016B082100DB0020006C082100DE
:10161000DC0043082000EB00EC016B082100DD003A
:1016200020006C082100DE00B901B90A0530200055
:10163000EB006B082100C1009631E5268A310530A8
:101640002000A0000030A10088312A208A31873193
:10165000FD278A31003A031D080021005B082000A5
:10166000EB006B082100A8005D082000EB006B0870
:101670002100C30005302000EB006B082100C100F1
:101680009631E5268A3105302000A0000030A10007
:1016900088312A208A3101302100DD070030DE3D0B
:1016A0000E305D065E04031D272B0130DD00003087
:1016B000DE000130DB070030DC3D04305B065C04FB
:1016C000031D272BA80105302000EB006B0821002B
:1016D000C30008002000A601A701A8012808803A3D
:1016E000A0008030200208300319270203180800E8
:1016F00000307C02031D862B00307B02031D862BED
:1017000002307A02031D862B00307902031808008C
:1017100020002608A000270A8E2BA036890B8D2BCF
:10172000201CB42B0130A00079080739890A992BB5
:10173000A035890B982B2008A1007908A2007A080F
:10174000A3007B08A4007C08A5000330A536A40CE8
:10175000A30CA20C890BA62B2208A03E8600013008
:10176000870021088104D62B0130A00079080739B1
:10177000890ABB2BA035890BBA2B2008FF3AA100A0
:101780007908A2007A08A3007B08A4007C08A500C1
:101790000330A536A40CA30CA20C890BC92B22087C
:1017A000A03E860001308700210881050130A7078F
:1017B0000030A83D0130F9070030FA3D0030FB3D14
:1017C0000030FC3D6E2B7E302000A0002008A600DB
:1017D000A701A8012808803AA00080302002083024
:1017E000031927020318080000307C02031D022C95
:1017F00000307B02031D022C02307A02031D022CF2
:10180000003079020318080020002608A000270AEB
:101810000A2CA036890B092C201C302C0130A0008A
:1018200079080739890A152CA035890B142C200852
:10183000A1007908A2007A08A3007B08A4007C0814
:10184000A5000330A536A40CA30CA20C890B222CF6
:101850002208A03E86000130870021088104522C16
:101860000130A00079080739890A372CA035890B87
:10187000362C2008FF3AA1007908A2007A08A300BC
:101880007B08A4007C08A5000330A536A40CA30C9B
:10189000A20C890B452C2208A03E8600013087004F
:1018A000210881050130A7070030A83D0130F90764
:1018B0000030FA3D0030FB3D0030FC3DEA2B2000BB
:1018C000AA01A31F702CA009A109A209A309A00ABB
:1018D0000319A10A0319A20A0319A30AAA01AA0A51
:1018E000A71F812CA409A509A609A709A40A031901
:1018F000A50A0319A60A0319A70A0130A800280897
:10190000AA060030AE000030AD000030AC00003060
:10191000AB0023082204210420040319CA2CA901C6
:10192000A90AA31B9F2C0130A035A10DA20DA30D68
:10193000890B942C0130A8002808A907912C0130AC
:10194000AB35AC0DAD0DAE0D890BA02C23082702D5
:10195000031DB42C22082602031DB42C21082502E5
:10196000031DB42C20082402031CBF2C2008A40251
:101970002108A53B2208A63B2308A73B2B140130D6
:10198000A336A20CA10CA00C890BC02C0130A9021B
:10199000031D9F2C2A080319D82CAB09AC09AD09EB
:1019A000AE09AB0A0319AC0A0319AD0A0319AE0A52
:1019B0002E08A3002D08A2002C08A1002B08A000CF
:1019C000080020003808BC003908BD003A08BE00F5
:1019D00003103D0D3E0DBF003F08C500C508031DA7
:1019E000FA2C0030BB000030BA000030B9000030E3
:1019F000B80008003808BC003908BD003A08BE002D
:101A00001730BE36BD0CBC0C890B012D3C08BF0045
:101A10003F08C000B917FF30B805FF30B9050030E6
:101A2000BA053808C1003908C2003A08C300C40129
:101A30008E30C502C51F382D4508803A8F3E0318E9
:101A40002A2D0030BB000030BA000030B900003051
:101A5000B80008000130C436C30CC20CC10C890B9D
:101A60002B2D0130BC003C08C5070319512D2A2D30
:101A700018304502031C4E2D0030BB000030BA0068
:101A80000030B9000030B80008000130C135C20D87
:101A9000C30DC40D890B462D0130C502C508031DB9
:101AA000452D400803195F2DC109C209C309C409A6
:101AB000C10A0319C20A0319C30A0319C40A440854
:101AC000BB004308BA004208B9004108B80008004A
:101AD000893161218D3121001A1C6B2D97312C2702
:101AE0008D3197311D278D319631AB268D31963151
:101AF000B5268D3120008C120A30A0000030A100E4
:101B000088312A208D3120000C160A30A0000030C8
:101B1000A10088312A208D3120008C160A30A000C7
:101B20000030A10088312A208D31C8302000A0006B
:101B30000030A10088312A208D313C3086000130F0
:101B40008700DF3084000030850010302000EE0078
:101B500016001A00EE0BA82D0230AC000030AD00CC
:101B6000DF308331DD238D31BE302000AD00873082
:101B7000AE009731A7278D3197318C278D31963163
:101B8000C1268D3164302000A0000030A1008831D2
:101B90002A208D3120008E116430A0000030A10079
:101BA00088312A208D318731C4278D3121004D089D
:101BB0000319DF2D9631F1268D312100CD018831B9
:101BC000D0208D312100CC08031DE22DD030200023
:101BD000A0000730A10088312A208D31D62D2000A9
:101BE0003108B4003208B5003308B6000310350DD3
:101BF000360DB7003708BC00BC08031D062E0030A8
:101C0000AE000030AF000030B00008002E08B40075
:101C10002F08B5003008B6000310350D360DB7009B
:101C20003708BD00BD08031D1C2E0030AE0000307B
:101C3000AF000030B00008000030B9000030BA003A
:101C40000030BB0089303D07B4003408BC023108C5
:101C5000B4003208B5003308B6001030B636B50C03
:101C6000B40C890B2E2E3408B7003708BD002E089F
:101C7000B4002F08B5003008B6001030B636B50CE9
:101C8000B40C890B3E2E3408B7003708BD068030EF
:101C9000B4003408BD05B217FF30B105FF30B205FE
:101CA0000030B305AF17FF30AE05FF30AF05003091
:101CB000B0051830B4003408B8000130B935BA0D99
:101CC000BB0D890B5E2E30083302031D6D2E2F08CD
:101CD0003202031D6D2E2E083102031C762E2E08B3
:101CE000B1022F08B23B3008B33B39140130B13593
:101CF000B20DB30D890B772E0130B802031D5D2E96
:101D00003908A0003A08A1003B08A2003C08B40032
:101D10003408A3003D08B5003508A4008A31232209
:101D200020002008AE002108AF002208B000080003
:101D30002000A900AA01AB012B08803AA300803043
:101D40002302083003192A0203180800200029087A
:101D5000A3002A0AAC2EA336890BAB2E2308013927
:101D60008831FB208E3120002908A3002A0AB92ED1
:101D7000A336890BB82E231C082F00307C02031DCC
:101D8000CB2E00307B02031DCB2E02307A02031DC6
:101D9000CB2E00307902031808000130A300790827
:101DA0000739890AD42EA335890BD32E2308A40022
:101DB0007908A5007A08A6007B08A7007C08A8007F
:101DC0000330A836A70CA60CA50C890BE12E25081C
:101DD000A03E860001308700240881040130F90705
:101DE0000030FA3D0030FB3D0030FC3D0130210069
:101DF000C9070030CA3D4A08803A2000A30080305D
:101E00002302031D062F053021004902031C462F23
:101E100000307C02031D162F00307B02031D162F9D
:101E200002307A02031D162F0030790203180800D1
:101E300001302000A30079080739890A202FA33533
:101E4000890B1F2F2308FF3AA4007908A5007A0800
:101E5000A6007B08A7007C08A8000330A836A70CC2
:101E6000A60CA50C890B2E2F2508A03E860001305C
:101E70008700240881050130F9070030FA3D003061
:101E8000FB3D0030FC3D2100C901CA0101302000AA
:101E9000AA070030AB3D9C2E20002808AE00290880
:101EA000AF002A08B00003102F0D300DB10031082B
:101EB000B200B208031D632F0030A8000030A90053
:101EC0000030AA0008002B08AE002C08AF002D0837
:101ED000B00003102F0D300DB1003108B700B70866
:101EE000031D792F0030A8000030A9000030AA009F
:101EF000080037087B3EAE002E08B2072808AE0067
:101F00002908AF002A08B0001030B036AF0CAE0C74
:101F1000890B852F2E08B1003108B7002B08AE00C1
:101F20002C08AF002D08B0001030B036AF0CAE0C4E
:101F3000890B952F2E08B1003108B7068030AE000E
:101F40002E08B705A917AC17FF30AB05FF30AC055D
:101F50000030AD050030B3000030B4000030B500F3
:101F60000730AE002E08B600281CBC2F2B08B30784
:101F70002C08B43D2D08B53D0130AA36A90CA80C9B
:101F8000890BBD2F0130AB35AC0DAD0D890BC32FC7
:101F90000130B602031DB42F0930AE002E08B60082
:101FA000281CD82F2B08B3072C08B43D2D08B53DAD
:101FB0000130AA36A90CA80C890BD92F0130B536EF
:101FC000B40CB30C890BDF2F0130B602031DD02FE8
:101FD0003308A0003408A1003508A2003208AE0082
:101FE0002E08A3003708AF002F08A4008A3123224F
:101FF00020002008A8002108A9002208AA00080043
:102D4C00F00070082200990008002200981710303B
:102D5C0099000800200095010B118B16080020002B
:102D6C00111321001D14111708002000AC002C08B1
:102D7C008E319826080097315D2796319731C427FC
:102D8C000800FE0012001E00FE0BC82E003464006A
:102D9C0080010131890BCE2E003420008C160A30B4
:102DAC00A0000030A10088312A2008002000300843
:102DBC002F042E04031908008030B006080085315A
:102DCC007F2596318A31842296318631462696317A
:102DDC008031692008002100BA01B2019631E52644
:102DEC0096310A302000A0000030A10088312A2042
:102DFC00080001302000A0000030A10088312A20FA
:102E0C00963120008E1E0C2F013008000030080077
:102E1C009731E127973197314C27973197317427A8
:102E2C0097318831042097319631D3260800200041
:102E3C0097019601210011100330250092004130BA
:102E4C0091002000111121001115080021008C1493
:102E5C00CB302000A000200821008C058E16E0301D
:102E6C002000A000200821008E05080043345534B2
:102E7C0042344534593459340034053443345534D0
:102E8C004234453458345834003407346D30200003
:102E9C00A00020082100AE000030AD000030AC00D6
:102EAC000030AB000030AA00AF01AF0A08001A30A6
:102EBC002000A0002008EF0000302200A30000300A
:102ECC00A2000030A1000730A0000030A7000030A5
:102EDC00A6000030A5000D30A4000800033020002F
:102EEC00A00020082100B000B1010F302000A0008C
:102EFC0020082100B2000030B6000030B5000030D0
:102F0C00B4001030B300B701B80108002100480824
:102F1C002000AD01AD07210047082000AC01AC0733
:102F2C002C098E319826973108302000AD36AC0C28
:102F3C00890B9C2F2C098E31982697318B31E323EA
:102F4C0008002000AF01B0012D082F0784002E08C7
:102F5C00303D850000080038031908002D082F07A4
:102F6C0084002E08303D850000089631BB26973131
:102F7C0001302000AF070030B03DAA2F97312C272D
:102F8C00973197310E27973108302000C9009B30BC
:102F9C00C8003730C7007030C6008131D521973159
:102FAC009631E52697310A302000A0000030A100B0
:102FBC0088312A20080000302100A3000030A20034
:102FCC000030A1000030A0000F302000A00020082D
:102FDC002100A400A501A60102302000A0002008B9
:102FEC002100A700A80102302000A0002008210029
:042FFC00A900080020
:020000040001F9
:04000E00E4FFFFFF0D
:00000001FF
