:0400000080313A28E9
:100008007E14803120007F08F8007F30F7007708E1
:100018008B05111F1B2821001C08F7007708CD004D
:100028001B08F7007708CE00200011133528111D92
:100038002A2801302200B0070030B13D2000970186
:100048009601FB30F7007708910535280B1D3428F9
:100058008D3153258031FB30F70077088B05352823
:100068008B1778082000FF007E10090080313C289B
:10007800F901FA01FB01FC01FD01A0308400003008
:10008800850034308531F8258031203084000130F6
:10009800850016308531F8258031A0308400013084
:1000A800850040308531F82580316B3084009730E9
:1000B8008500363086000130870010309631FC26E6
:1000C8007E1020008C31CC2C210046080F392000EE
:1000D800B300B401B501B6011C30B335B40DB50D8C
:1000E800B60D890B7128210045081F392000B7007B
:1000F800B801B901BA011730B735B80DB90DBA0D45
:10010800890B80282100440807392000BB00BC0166
:10011800BD01BE011430BB35BC0DBD0DBE0D890B34
:100128008F28210043080F392000BF00C001C101FA
:10013800C2011030BF35C00DC10DC20D890B9E28FC
:100148002100420801392000C300C401C501C601CD
:100158000F30C335C40DC50DC60D890BAD28210060
:1001680041080F392000C700C801C901CA010B3076
:10017800C735C80DC90DCA0D890BBC282100400818
:1001880001392000CB00CC01CD01CE010A30CB359E
:10019800CC0DCD0DCE0D890BCB2821003F080139A0
:1001A8002000CF00D001D101D2010930CF35D00DC8
:1001B800D10DD20D890BDA2821003E080139200023
:1001C800D300D401D501D6010830D335D40DD50DCF
:1001D800D60D890BE92821003D0803392000D700F6
:1001E800D801D901DA010630D735D80DD90DDA0D85
:1001F800890BF82821003C0801392000DB00DC01CC
:10020800DD01DE010530DB35DC0DDD0DDE0D890B92
:10021800072921003B0801392000DF00E001E10146
:10022800E2010430DF35E00DE10DE20D890B1629FE
:1002380021003A0801392000E300E401E501E60164
:100248000330E335E40DE50DE60D890B2529210082
:10025800390801392000E700E801E901EA01023024
:10026800E735E80DE90DEA0D890B34296708E30441
:100278006808E4046908E5046A08E6046308DF041A
:100288006408E0046508E1046608E2045F08DB042A
:100298006008DC046108DD046208DE045B08D7043A
:1002A8005C08D8045D08D9045E08DA045708D3044A
:1002B8005808D4045908D5045A08D6045308CF045A
:1002C8005408D0045508D1045608D2044F08CB046A
:1002D8005008CC045108CD045208CE044B08C7047A
:1002E8004C08C8044D08C9044E08CA044708C3048A
:1002F8004808C4044908C5044A08C6044308BF049A
:100308004408C0044508C1044608C2043F08BB04A9
:100318004008BC044108BD044208BE043B08B704B9
:100328003C08B8043D08B9043E08BA043708B304C9
:100338003808B4043908B5043A08B604033033045D
:100348002100D8000030200034042100D9000030FA
:10035800200035042100DA00003020003604210096
:10036800DB00D8302000B3003308A0000430A1001F
:100378000030A200D4308831A7208031043020001A
:10038800B3003308A700D4308931562180310430B6
:100398002000B3003308AA00D4308931C0210800F6
:1003A8002100A901183020004902031DE5297030F9
:1003B8004802031DE5291A304702031DE52980304C
:1003C80046020318EA292100A901A90A0C302000D5
:1003D8004902031DF92984304802031DF9295830C0
:1003E8004702031DF929803046020318002A02300B
:1003F800CA004A082100A900073020004902031D4D
:100408000F2ABF304802031D0F2AA4304702031DDC
:100418000F2A803046020318162A0330CA004A08F9
:100428002100A900210024082000CA00CB01CC012A
:10043800CD014D08A3004C08A2004B08A1004A08B2
:10044800A0000130A7003130A6002D30A5000030F3
:10045800A40087317B27813120002308DB00220894
:10046800DA002108D9002008D8005B08A3005A0840
:10047800A2005908A1005808A0004908A700480888
:10048800A6004708A5004608A4008A313222813117
:1004980020002308DF002208DE002108DD002008F4
:1004A800DC005B08AB005A08AA005908A9005808E4
:1004B800A8008831FA20813120002808AE002908D8
:1004C800AF002A08B0004908AB004808AA0047084E
:1004D800A9004608A8008831FA20813120002808A0
:1004E800B1002908B2002A08B3008D31EF25813107
:1004F80020002E08D2002F08D3003008D40052085C
:10050800B1005308B2005408B3005F08AB005E089E
:10051800AA005D08A9005C08A8008831FA2081318A
:1005280020002808AE002908AF002A08B00097313B
:100538000B27813120002E08B4002F08B5003008A1
:10054800B6008231E622813120003108D500320818
:10055800D6003308D7005508AB005608AC0057083A
:10056800AD000030A8008030A9004530AA008F31C6
:100578004C27813120002808B8002908B9002A082A
:10058800BA008C31452420003B08D1003A08D0003D
:100598003908CF003808CE005C08CA004A08210094
:1005A800AE00200051082100AD00200050082100B5
:1005B800AC0020004F082100AB0020004E082100AD
:1005C800AA00080020003108B7003208B800330834
:1005D800B9000310380D390DBA003A08BD003408C7
:1005E800B7003508B8003608B9000310380D390DC2
:1005F800BA003A08BC003D0803190E2B3C083D021E
:100608000318152B3D03FF3A3C07B7001930370292
:10061800031C152B3408B1003508B2003608B300A6
:1006280008003C08031908003D083C020318242B65
:100638003C03FF3A3D07B70019303702031808009A
:100648000630B7003708BB00B31BBB17B61B3B17F8
:10065800B217FF30B105FF30B2050030B305B5174A
:10066800FF30B405FF30B5050030B6053C083D0243
:100678000318602B0130B435B50DB60D890B3F2B2F
:100688000130BC023C083D0603195B2B0130BB025C
:100698003B08073903195B2B3E2B0130B336B20CEC
:1006A800B10C890B522B0130B7003708BD073D0844
:1006B8003C060319852B512B3D083C020318852B5A
:1006C8000130B135B20DB30D890B652B0130BD0278
:1006D8003C083D060319812B0130BB023B08073952
:1006E8000319812B642B0130B636B50CB40C890B79
:1006F800782B0130B7003708BC073D083C06031DBE
:10070800772BBB1F972BFF30B106FF30B206FF30A7
:10071800B3060130B107003003180130B2070030CA
:1007280003180130B3073B1FA92BFF30B406FF3075
:10073800B506FF30B6060130B407003003180130A3
:10074800B507003003180130B607BB013108B407FC
:100758003208B53D3308B63DB61FC42BFF30B4068A
:10076800FF30B506FF30B6060130B4070030031875
:100778000130B507003003180130B607BB01BB0ACA
:100788003408A0003508A1003608A2003D08B700CB
:100798003708A3003B08B8003808A4008A3185222E
:1007A80020002008B1002108B2002208B300080088
:1007B8002000B3000030FC000030FB000030FA00DD
:1007C8000030F9002200B401B501FF302100C70054
:1007D800FF30C8002000B401B5013508803AAE00EA
:1007E80080302E02031DFA2B0A30340203180F2C16
:1007F8008B31CC23833101302000B4070030B53D64
:100808003508803AAE0080302E02031D0D2C0A30C8
:100818003402031CFC2B2000B401B5013508803AD2
:10082800AE0080302E02031D1B2C03303402031847
:10083800302C85317C25833101302000B40700300D
:10084800B53D3508803AAE0080302E02031D2E2CAF
:1008580003303402031C1D2C2000B401B5013508F7
:10086800803AAE002D08803A2E02031D3D2C2C083C
:1008780034020318AD2C2000B101B2013208803ACD
:10088800AE0080302E02031D4B2C063031020318B7
:10089800722C20003408AE000230AE35FF3E031D36
:1008A800512C2E353307AF0031082F07B000300820
:1008B8008600870101358E3198268331013020006A
:1008C800B1070030B23D3208803AAE0080302E02C7
:1008D800031D702C06303102031C4D2C20002C08FF
:1008E800FF3EAE00FF302D3DAF0035082F06031D3B
:1008F8007F2C34082E06031D932C3408AE000230DA
:10090800AE35FF3E031D842C2E353307AF002F086C
:10091800073E860087010135603E0138A42C20007F
:100928003408AE000230AE35FF3E031D972C2E353D
:100938003307AF002F08073E860087010135603E68
:100948008E319826833101302000B4070030B53D40
:10095800332C03308E3198268331F0308E3198262F
:1009680008002100290803392000B300B401B501AB
:10097800B6011930B335B40DB50DB60D890BBE2CC3
:100988002100280803392000B700B801B901BA01CD
:100998001730B735B80DB90DBA0D890BCD2C21001C
:1009A80027080F392000BB00BC01BD01BE01133070
:1009B800BB35BC0DBD0DBE0D890BDC2C21002608F6
:1009C80001392000BF00C001C101C2011230BF358A
:1009D800C00DC10DC20D890BEB2C21002508013972
:1009E8002000C300C401C501C6011130C335C40DC0
:1009F800C50DC60D890BFA2C210024080F392000DB
:100A0800C700C801C901CA010D30C735C80DC90DD5
:100A1800CA0D890B092DFF30210020052000CB00CD
:100A28000730210021052000CC00003021002205DC
:100A38002000CD000030210023052000CE00023028
:100A4800CB35CC0DCD0DCE0D890B242D4B08C7040D
:100A58004C08C8044D08C9044E08CA044708C30412
:100A68004808C4044908C5044A08C6044308BF0422
:100A78004408C0044508C1044608C2043F08BB0432
:100A88004008BC044108BD044208BE043B08B70442
:100A98003C08B8043D08B9043E08BA0433083704D2
:100AA800D30034083804D40035083904D500360892
:100AB8003A04D6005330B3003308A0000430A10034
:100AC8000030A2004F308831A72084310430200044
:100AD800B3003308A7004F308931562184310430E0
:100AE8002000B3003308AA004F308931C021080024
:100AF8007E302000A0002008A600A701A801280831
:100B0800803AA00080302002083003192702031819
:100B1800080000307C02031D9B2D00307B02031D62
:100B28009B2D02307A02031D9B2D00307902031899
:100B3800080020002608A000270AA32DA036890B4C
:100B4800A22D201CC92D0130A00079080739890A77
:100B5800AE2DA035890BAD2D2008A1007908A20083
:100B68007A08A3007B08A4007C08A5000330A536FA
:100B7800A40CA30CA20C890BBB2D2208A03E860056
:100B88000130870021088104EB2D0130A00079088D
:100B98000739890AD02DA035890BCF2D2008FF3AB7
:100BA800A1007908A2007A08A3007B08A4007C08A9
:100BB800A5000330A536A40CA30CA20C890BDE2DCE
:100BC8002208A03E860001308700210881050130F7
:100BD800A7070030A83D0130F9070030FA3D003082
:100BE800FB3D0030FC3D832D640080010131890B01
:040BF800F92D00349F
:100C000010341034113411341234123413341334B8
:100C10001434143415341534163416341734173488
:100C2000183418341934193419341A341A341B345A
:100C30001B341B341C341C341C341D341D341D3433
:100C40001D341E341E341E341E341E341E341F3414
:100C50001F341F341F341F341F341F341F341F34FC
:100C60001F341F341F341F341F341E341E341E34EF
:100C70001E341E341E341D341D341D341D341C34EA
:100C80001C341C341B341B341B341A341A341934EE
:100C900019341934183418341734173416341634F8
:100CA0001534153414341434133413341234123408
:100CB00011341134103410340F340E340E340D341A
:100CC0000D340C340C340B340B340A340A3409342C
:100CD000093408340834073407340634063406343B
:100CE0000534053404340434043403340334033445
:100CF0000234023402340234013401340134013448
:100D00000134013400340034003400340034003441
:100D10000034003400340034003400340034003433
:100D20000134013401340134013401340234023419
:100D300002340234033403340334043404340434FA
:100D400005340534063406340634073407340834D1
:100D50000834093409340A340A340B340B340C34A3
:100D60000C340D340D340E340E340F3412347A3406
:100D700000340034B0340434B634003448344534DC
:100D80004C344C344F3400342100380803392000EF
:100D9000B300B401B501B6011730B335B40DB50DCC
:100DA000B60D890BCD2E2100370807392000B7007A
:100DB000B801B901BA011430B735B80DB90DBA0D83
:100DC000890BDC2E1330A03E86008701FF30010521
:100DD000BB00413101300105BC004131003001054B
:100DE000BD00413100300105BE000B30BB35BC0DEC
:100DF000BD0DBE0D890BF62E210032083F392000B3
:100E0000BF00C001C101C2010530BF35C00DC10D19
:100E1000C20D890B052F2100310801392000C300C4
:100E2000C401C501C6010430C335C40DC50DC60DCE
:100E3000890B142F2100300803392000C700C80196
:100E4000C901CA010230C735C80DC90DCA0D890BC9
:100E5000232F4708C3044808C4044908C5044A08A6
:100E6000C6044308BF044408C0044508C10446083A
:100E7000C2043F08BB044008BC044108BD0442084A
:100E8000BE043B08B7043C08B8043D08B9043E085A
:100E9000BA043708B3043808B4043908B5043A086A
:100EA000B60402303304CF0000303404D0000030E8
:100EB0003504D10000303604D2004F30B30033087F
:100EC000A0000430A1000030A2004B308831A720E0
:100ED000863104302000B3003308A7004B3089313D
:100EE0005621863104302000B3003308AA004B306D
:100EF0008931C02108002000AA01A31F8C2FA0095E
:100F0000A109A209A309A00A0319A10A0319A20AA7
:100F10000319A30AAA01AA0AA71F9D2FA409A509BC
:100F2000A609A709A40A0319A50A0319A60A031901
:100F3000A70A0130A8002808AA060030AE00003039
:100F4000AD000030AC000030AB00230822042104C7
:100F500020040319E62FA901A90AA31BBB2F013006
:100F6000A035A10DA20DA30D890BB02F0130A80053
:100F70002808A907AD2F0130AB35AC0DAD0DAE0D76
:100F8000890BBC2F23082702031DD02F220826021D
:100F9000031DD02F21082502031DD02F2008240275
:100FA000031CDB2F2008A4022108A53B2208A63B36
:100FB0002308A73B2B140130A336A20CA10CA00CD4
:100FC000890BDC2F0130A902031DBB2F2A0803194E
:100FD000F42FAB09AC09AD09AE09AB0A0319AC0A91
:100FE0000319AD0A0319AE0A2E08A3002D08A200AA
:100FF0002C08A1002B08A000080097312E2708001C
:10100000200095010B118B1608006D302000A00008
:1010100020082100AE000030AD000030AC000030F0
:10102000AB000030AA00AF01AF0A08000030210079
:10103000A3000030A2000030A1000030A0000F305B
:101040002000A00020082100A400A501A601023074
:101050002000A00020082100A700A80102302000E5
:10106000A00020082100A90008002200200820007C
:10107000EE006E082100D100FD0100302200AB001F
:101080000030AA000030A9000030A8002100D001E3
:10109000CA01CA0A8931F921883164302000A000D0
:1010A0000030A10088317E2088318831002008007E
:1010B0002100B901BA01BB01BB0ABC01BC0A033063
:1010C0002000A00020082100BD00BE01BF01C0011A
:1010D00003302000A00020082100C100C20106301A
:1010E0002000A00020082100C30004302000A00040
:1010F00020082100C400C501C60108002000A40189
:10110000A5013F30A20022088B059631E5268831E3
:101110002000A401A50121082502031D9128200813
:1011200024020318A2280B30A3006230A200A20BF5
:101130009728A30B9728000001302000A407003057
:10114000A53D8B28C030A20022088B040800200097
:10115000A6002008A3002308A5002608A300230852
:10116000A4000130A1020030A23BFF302206031D83
:10117000BB28FF30210603190800250886008701D7
:101180000108A3002408860087012308810001309C
:10119000A3002308A5070130A3002308A407B12852
:1011A0002000A7000C112708A6002608A800A90106
:1011B0000830290203180800A81FE0280E15E128AE
:1011C0000E110310A80D0C150130A0000030A10075
:1011D00088317E20883120000C110130A0000030C1
:1011E000A10088317E20883101302000A600260829
:1011F000A907D8288E302000AC002C08AD00FF30A5
:101200002B0503190F290130AB36AA0CA90CA80C29
:10121000890B04290130AC002C08AD07FF282808F1
:10122000A0002908A1002A08A2002D08AC002C0863
:10123000A300A4018A31852220002008A8002108EB
:10124000A9002208AA0008002000A2002208A0008D
:10125000A10120082100C706200021082100C8069E
:10126000471C452948082000A1002100470820000C
:10127000A000A136A00C083020062100C700843051
:10128000200021062100C800080048082000A10015
:10129000210047082000A000A136A00C2008210052
:1012A000C700200021082100C80008002000B1006C
:1012B000B2013108A8002808A0002708A900AA0147
:1012C0002908A1002A08A2002D308831A7208931E1
:1012D0002000B2012708320203180800FF30270758
:1012E000A8002D302807A9003203FF3A2907AA00D9
:1012F0002A08860087010108AB0032083107AC00DC
:101300002C08860087012B0881000130A8002808DE
:10131000B2076A2921009901F0302000A0002008BE
:10132000210099049801951295152000181499131D
:101330009813181398161816250093151311931463
:1013400093102200981698111811181023008C146D
:1013500083302000A000200821009D051D151E11CE
:101360009E101E101E179E161E129E170B11200097
:10137000111011111113C030A00020088B040800B7
:101380002000AC00AD010130A0000030A100883188
:101390007E20893120000C120130A0000030A10015
:1013A00088317E2089312000AD012A082D020318E2
:1013B000E9292D082C07AB002B08860087010108BE
:1013C0008831D020893101302000AB002B08AD07D7
:1013D000D5290130A0000030A10088317E2089315C
:1013E00020000C160130A0000030A10088317E20C2
:1013F00008002100BA01B20103302000ED006D08A1
:101400002100C1009731142789310A302000A00043
:101410000030A10088317E20893197312E27893113
:101420000038031908008B31572389312100BA0194
:10143000BA0A3F302000ED006D082100B2000A30EA
:101440002000A0000030A10088317E208931973132
:101450001427893101302000A0000030A10088311C
:101460007E20080000302000AC000030AB000030CF
:10147000AA000030A9002308220421042004031933
:101480007C2AAD01AD0AA31B512A0130A035A10D64
:10149000A20DA30D890B462A0130A8002808AD072C
:1014A000432A0130A935AA0DAB0DAC0D890B522A88
:1014B00023082702031D662A22082602031D662A26
:1014C00021082502031D662A20082402031C712A14
:1014D0002008A4022108A53B2208A63B2308A73B1D
:1014E00029140130A336A20CA10CA00C890B722A7E
:1014F0000130AD02031D512A2C08A3002B08A200C5
:101500002A08A1002908A0000800200023080319C8
:101510008E2A220821042004031D9F2A0030A000E7
:101520000030A1000030A20008000130A50025080D
:10153000A3070130A236A10CA00C890B9A2AFE3019
:1015400022050319B82A952A0130A5002508A3070A
:101550000130A007003003180130A1070030031844
:101560000130A2070130A236A10CA00C890BB32ACE
:10157000FF3022050319C52AA42A0130A302013035
:10158000A035A10DA20D890BC02AA11FBD2A2318C9
:10159000CF2AFF30A0057F30A105FF30A205031040
:1015A000A30C2308A500A601A7011030A535A60DA0
:1015B000A70D890BD62A2508A0042608A104270810
:1015C000A204240803190800A217080021002F080C
:1015D00001392000B300B401B501B6011630B335AE
:1015E000B40DB50DB60D890BEF2A21002E08200091
:1015F000B700B801B901BA010E30B735B80DB90D51
:10160000BA0D890BFD2A0A30A03E86008701FF3003
:101610000105BB0041310F300105BC0041310030F4
:101620000105BD00413100300105BE000230BB356F
:10163000BC0DBD0DBE0D890B172B3B08B7043C0834
:10164000B8043D08B9043E08BA043708B3043808A2
:10165000B4043908B5043A08B60401303304BF00B5
:1016600000303404C00000303504C10000303604BE
:10167000C2003F30B3003308A0000330A1000030A7
:10168000A20043308831A7208A3103302000B30004
:101690003308A7004330893156218A3103302000B6
:1016A000B3003308AA0043308931C0210800C83094
:1016B0002000A0000030A10088317E208B31210065
:1016C00028082000EB00EC016B082100DC00200062
:1016D0006C082100DD0043082000EB00EC016B08E2
:1016E0002100DE0020006C082100DF00B901B90AEA
:1016F00005302000EB006B082100C1009731142752
:101700008B3105302000A0000030A10088317E2000
:101710008B318731FD278B31003A031D08002100F2
:101720005C082000EB006B082100A8005E08200088
:10173000EB006B082100C30005302000EB006B08B4
:101740002100C100973114278B3105302000A00003
:101750000030A10088317E208B3101302100DE076E
:101760000030DF3D0E305E065F04031D892B013023
:10177000DE000030DF000130DC070030DD3D0430EA
:101780005C065D04031D892BA80105302000EB00D9
:101790006B082100C30008002000A601A701A801D2
:1017A0002808803AA0008030200208300319270260
:1017B0000318080000307C02031DE82B00307B0278
:1017C000031DE82B02307A02031DE82B003079025A
:1017D0000318080020002608A000270AF02BA036D6
:1017E000890BEF2B201C162C0130A000790807393B
:1017F000890AFB2BA035890BFA2B2008A100790858
:10180000A2007A08A3007B08A4007C08A50003308E
:10181000A536A40CA30CA20C890B082C2208A03E10
:1018200086000130870021088104382C0130A00097
:1018300079080739890A1D2CA035890B1C2C200832
:10184000FF3AA1007908A2007A08A3007B08A4004F
:101850007C08A5000330A536A40CA30CA20C890BB0
:101860002B2C2208A03E860001308700210881052C
:101870000130A7070030A83D0130F9070030FA3DDC
:101880000030FB3D0030FC3DD02B20003808BC0070
:101890003908BD003A08BE0003103D0D3E0DBF00E3
:1018A0003F08C500C508031D5E2C0030BB0000309A
:1018B000BA000030B9000030B80008003808BC0099
:1018C0003908BD003A08BE001730BE36BD0CBC0C4E
:1018D000890B652C3C08BF003F08C000B917FF30DA
:1018E000B805FF30B9050030BA053808C10039081D
:1018F000C2003A08C300C4018E30C502C51F9C2C2B
:101900004508803A8F3E03188E2C0030BB00003013
:10191000BA000030B9000030B80008000130C43609
:10192000C30CC20CC10C890B8F2C0130BC003C08CD
:10193000C5070319B52C8E2C18304502031CB22C98
:101940000030BB000030BA000030B9000030B800F1
:1019500008000130C135C20DC30DC40D890BAA2C7E
:101960000130C502C508031DA92C40080319C32C6A
:10197000C109C209C309C409C10A0319C20A03196A
:10198000C30A0319C40A4408BB004308BA0042084A
:10199000B9004108B800080089318A218C31210042
:1019A0001A1CCF2C97315B278C3197314C278C3107
:1019B0009631E5268C319631EA268C3120008C1246
:1019C0000A30A0000030A10088317E208C31200038
:1019D0000C160A30A0000030A10088317E208C3126
:1019E00020008C160A30A0000030A10088317E2033
:1019F0008C31C8302000A0000030A10088317E204A
:101A00008C313630860001308700E03084000030B1
:101A1000850010302000EF0016001A00EF0B0C2D8F
:101A20000230AC000030AD00E0308331DC238C317B
:101A3000BE302000AD008630AE009731C6278C3115
:101A40009731AB278C319631F6268C3164302000EB
:101A5000A0000030A10088317E208C3120008E1142
:101A60006430A0000030A10088317E208C318931A3
:101A7000F9218C3121004B080319432D9731202780
:101A80008C312100CB01883135208C312100CA08EE
:101A9000031D462DD0302000A0000730A100883162
:101AA0007E208C313A2D21004A08013A031D08009E
:101AB0007C0822002B06031D672D7B082A06031DC8
:101AC000672D7A082906031D672D79082806031D4E
:101AD000752D2100CA019631DC268D3110309631EA
:101AE000E0262100CB01CB0A08002100D008031D0D
:101AF000BF2D073022002805F10000302905F20033
:101B000000302A05F30000302B05F400740873043C
:101B100072047104031DA52D2808F1002908F200A4
:101B20002A08F3002B08F4000330F436F30CF20C0F
:101B3000F10C890B952D7108A03E860001308700BD
:101B40000108F50075082100A92D21004F36F1008C
:101B50007108CF004F18BF2D49080319B72D220077
:101B60002008F10071082100D100C901BF2D220019
:101B70002408F10071082100D100C901C90A5108E7
:101B8000F1007108FD07B6307D02031CCC2D7D08E5
:101B90004A3EF1007108FD007D08003E8400863059
:101BA0000318013E85000008F1007108F600760870
:101BB0009631E0268D310130F10071082100D00707
:101BC00050084C06031D0800D00101302200A80770
:101BD0000030A93D0030AA3D0030AB3D0800200098
:101BE0003108B4003208B5003308B6000310350DD3
:101BF000360DB7003708BC00BC08031D062E0030A8
:101C0000AE000030AF000030B00008002E08B40075
:101C10002F08B5003008B6000310350D360DB7009B
:101C20003708BD00BD08031D1C2E0030AE0000307B
:101C3000AF000030B00008000030B9000030BA003A
:101C40000030BB0089303D07B4003408BC023108C5
:101C5000B4003208B5003308B6001030B636B50C03
:101C6000B40C890B2E2E3408B7003708BD002E089F
:101C7000B4002F08B5003008B6001030B636B50CE9
:101C8000B40C890B3E2E3408B7003708BD068030EF
:101C9000B4003408BD05B217FF30B105FF30B205FE
:101CA0000030B305AF17FF30AE05FF30AF05003091
:101CB000B0051830B4003408B8000130B935BA0D99
:101CC000BB0D890B5E2E30083302031D6D2E2F08CD
:101CD0003202031D6D2E2E083102031C762E2E08B3
:101CE000B1022F08B23B3008B33B39140130B13593
:101CF000B20DB30D890B772E0130B802031D5D2E96
:101D00003908A0003A08A1003B08A2003C08B40032
:101D10003408A3003D08B5003508A4008A318522A7
:101D200020002008AE002108AF002208B000080003
:101D30002000A900AA01AB012B08803AA300803043
:101D40002302083003192A0203180800200029087A
:101D5000A3002A0AAC2EA336890BAB2E2308013927
:101D6000893124218E3120002908A3002A0AB92EA6
:101D7000A336890BB82E231C082F00307C02031DCC
:101D8000CB2E00307B02031DCB2E02307A02031DC6
:101D9000CB2E00307902031808000130A300790827
:101DA0000739890AD42EA335890BD32E2308A40022
:101DB0007908A5007A08A6007B08A7007C08A8007F
:101DC0000330A836A70CA60CA50C890BE12E25081C
:101DD000A03E860001308700240881040130F90705
:101DE0000030FA3D0030FB3D0030FC3D0130220068
:101DF000B4070030B53D3508803A2000A30080309C
:101E00002302031D062F053022003402031C462F37
:101E100000307C02031D162F00307B02031D162F9D
:101E200002307A02031D162F0030790203180800D1
:101E300001302000A30079080739890A202FA33533
:101E4000890B1F2F2308FF3AA4007908A5007A0800
:101E5000A6007B08A7007C08A8000330A836A70CC2
:101E6000A60CA50C890B2E2F2508A03E860001305C
:101E70008700240881050130F9070030FA3D003061
:101E8000FB3D0030FC3D2200B401B50101302000D3
:101E9000AA070030AB3D9C2E20002808AE00290880
:101EA000AF002A08B00003102F0D300DB10031082B
:101EB000B200B208031D632F0030A8000030A90053
:101EC0000030AA0008002B08AE002C08AF002D0837
:101ED000B00003102F0D300DB1003108B700B70866
:101EE000031D792F0030A8000030A9000030AA009F
:101EF000080037087B3EAE002E08B2072808AE0067
:101F00002908AF002A08B0001030B036AF0CAE0C74
:101F1000890B852F2E08B1003108B7002B08AE00C1
:101F20002C08AF002D08B0001030B036AF0CAE0C4E
:101F3000890B952F2E08B1003108B7068030AE000E
:101F40002E08B705A917AC17FF30AB05FF30AC055D
:101F50000030AD050030B3000030B4000030B500F3
:101F60000730AE002E08B600281CBC2F2B08B30784
:101F70002C08B43D2D08B53D0130AA36A90CA80C9B
:101F8000890BBD2F0130AB35AC0DAD0D890BC32FC7
:101F90000130B602031DB42F0930AE002E08B60082
:101FA000281CD82F2B08B3072C08B43D2D08B53DAD
:101FB0000130AA36A90CA80C890BD92F0130B536EF
:101FC000B40CB30C890BDF2F0130B602031DD02FE8
:101FD0003308A0003408A1003508A2003208AE0082
:101FE0002E08A3003708AF002F08A4008A318522ED
:101FF00020002008A8002108A9002208AA00080043
:102DB8008B12200095010800F0007008220099008D
:102DC80008002200981710309900080020001113FD
:102DD80021001D14111708002000AC002C088E31AA
:102DE8009826080097317B2796319731E32708000A
:102DF800FE0012001E00FE0BFD2E003420008C1673
:102E08000A30A0000030A10088317E200800200090
:102E180030082F042E04031908008030B00608007B
:102E28008431B52497318A31E62297318631C42618
:102E380097318031682008002100BA01B20197312A
:102E4800142797310A302000A0000030A1008831F3
:102E58007E20080001302000A0000030A100883149
:102E68007E20973120008E1E3B2F01300800003055
:102E7800080088311620973188310520973197311D
:102E880093279731883158209731973102270800C6
:102E980020009701960121001110033025009200AF
:102EA8004130910020001111210011150800210066
:102EB8008C14CB302000A000200821008C058E1631
:102EC800E0302000A000200821008E0508004334CF
:102ED8005534423445345934593400340534433474
:102EE80055344234453458345834003406341A3092
:102EF8002000A00020082100CC0000302200A30000
:102F08000030A2000030A1000730A0000030A70068
:102F18000030A6000030A5000D30A40008000330E2
:102F28002000A00020082100B000B1010F302000CF
:102F3800A00020082100B2000030B6000030B50023
:102F48000030B4001030B300B701B8010800210008
:102F580048082000AD01AD07210047082000AC015A
:102F6800AC072C098E319826973108302000AD36F1
:102F7800AC0C890BBB2F2C098E31982697318531E3
:102F88007C2508002000AF01B0012D082F07840020
:102F98002E08303D850000080038031908002D0868
:102FA8002F0784002E08303D850000089631F02652
:102FB800973101302000AF070030B03DC92F97315D
:102FC8005B27973197313D27973108302000C9009A
:102FD8009B30C8003730C7007030C6008131D4211B
:102FE80097319731142797310A302000A00000301C
:082FF800A10088317E200800D1
:020000040001F9
:04000E00E4FFFFFF0D
:00000001FF
