:0400000080315928CA
:100008007E14803120007F08F8007F30F7007708E1
:100018008B05111F1B2821001C08F7007708CF004B
:100028001B08F7007708D000200011135428111D71
:100038004928EE01EE0A97019601FB30F700770890
:10004800910501302200AC070030AD3D0030AE3DD7
:100058000030AF3D00302F02031D3C2801302E0236
:10006800031D3C2886302D02031D3C28A1302C029C
:10007800031C54280030AF000030AE000030AD0043
:100088000030AC0021009D1454280B1D53288531E5
:100098007B258031FB30F70077088B0554288B17B8
:1000A80078082000FF007E10090080315B28F901E4
:1000B800FA01FB01FC01FD01EE01EF01A030840013
:1000C8000030850033308C31242480312030840086
:1000D8000130850014308C3124248031A030840014
:1000E8000130850040308C312424803187308400F1
:1000F8008C308500343086000130870010308C3118
:100108001E247E1020008631E42E210046080F3977
:100118002000B300B401B501B6011C30B335B40DED
:10012800B50DB60D890B9228210045081F3920000E
:10013800B700B801B901BA011730B735B80DB90D14
:10014800BA0D890BA1282100440807392000BB00FB
:10015800BC01BD01BE011430BB35BC0DBD0DBE0DCB
:10016800890BB028210043080F392000BF00C001C7
:10017800C101C2011030BF35C00DC10DC20D890BC0
:10018800BF282100420801392000C300C401C5016D
:10019800C6010F30C335C40DC50DC60D890BCE2859
:1001A800210041080F392000C700C801C901CA0150
:1001B8000B30C735C80DC90DCA0D890BDD282100C4
:1001C800400801392000CB00CC01CD01CE010A3016
:1001D800CB35CC0DCD0DCE0D890BEC2821003F0879
:1001E80001392000CF00D001D101D2010930CF352B
:1001F800D00DD10DD20D890BFB2821003E08013905
:100208002000D300D401D501D6010830D335D40D50
:10021800D50DD60D890B0A2921003D080339200088
:10022800D700D801D901DA010630D735D80DD90D54
:10023800DA0D890B192921003C0801392000DB005F
:10024800DC01DD01DE010530DB35DC0DDD0DDE0D09
:10025800890B282921003B0801392000DF00E00133
:10026800E101E2010430DF35E00DE10DE20D890B1B
:10027800372921003A0801392000E300E401E501AB
:10028800E6010330E335E40DE50DE60D890B46295B
:100298002100390801392000E700E801E901EA01F5
:1002A8000230E735E80DE90DEA0D890B5529670895
:1002B800E3046808E4046908E5046A08E6046308D6
:1002C800DF046408E0046508E1046608E2045F08E6
:1002D800DB046008DC046108DD046208DE045B08F6
:1002E800D7045C08D8045D08D9045E08DA04570806
:1002F800D3045808D4045908D5045A08D604530816
:10030800CF045408D0045508D1045608D2044F0825
:10031800CB045008CC045108CD045208CE044B0835
:10032800C7044C08C8044D08C9044E08CA04470845
:10033800C3044808C4044908C5044A08C604430855
:10034800BF044408C0044508C1044608C2043F0865
:10035800BB044008BC044108BD044208BE043B0875
:10036800B7043C08B8043D08B9043E08BA04370885
:10037800B3043808B4043908B5043A08B60403309D
:1003880033042100D7000030200034042100D800B5
:100398000030200035042100D90000302000360448
:1003A8002100DA00D7302000B3003308A000043061
:1003B800A1000030A200D3308D3172258031043085
:1003C8002000B3003308A700D33083319423803151
:1003D80004302000B3003308AA00D3308E312D2614
:1003E80008002000B3000030FC000030FB000030A3
:1003F800FA000030F9002100C901CA01FF30C70026
:10040800FF30C8002000B401B5013508803AAE00BD
:1004180080302E02031D122A0A3034020318272ABC
:100428008F318727813101302000B4070030B53D76
:100438003508803AAE0080302E02031D252A0A3086
:100448003402031C142A2000B401B5013508803A8F
:10045800AE0080302E02031D332A03303402031805
:10046800482A87316E27813101302000B4070030D7
:10047800B53D3508803AAE0080302E02031D462A6D
:1004880003303402031C352A2000B401B5013508B5
:10049800803AAE002D08803A2E02031D552A2C08FA
:1004A80034020318C52A2000B101B2013208803A8B
:1004B800AE0080302E02031D632A06303102031875
:1004C8008A2A20003408AE000230AE35FF3E031DF4
:1004D800692A2E353307AF0031082F07B0003008DE
:1004E80086008701013586313026813101302000B0
:1004F800B1070030B23D3208803AAE0080302E029B
:10050800031D882A06303102031C652A20002C08A6
:10051800FF3EAE00FF302D3DAF0035082F06031D0E
:10052800972A34082E06031DAB2A3408AE00023081
:10053800AE35FF3E031D9C2A2E353307AF002F082A
:10054800073E860087010135603E0138BC2A20003D
:100558003408AE000230AE35FF3E031DAF2A2E35FB
:100568003307AF002F08073E860087010135603E3C
:1005780086313026813101302000B4070030B53D86
:100588004B2A0330863130268131F03086313026CF
:1005980008002100290803392000B300B401B5017F
:1005A800B6011930B335B40DB50DB60D890BD62A81
:1005B8002100280803392000B700B801B901BA01A1
:1005C8001730B735B80DB90DBA0D890BE52A2100DA
:1005D80027080F392000BB00BC01BD01BE01133044
:1005E800BB35BC0DBD0DBE0D890BF42A21002608B4
:1005F80001392000BF00C001C101C2011230BF355E
:10060800C00DC10DC20D890B032B2100250801392E
:100618002000C300C401C501C6011130C335C40D93
:10062800C50DC60D890B122B210024080F39200097
:10063800C700C801C901CA010D30C735C80DC90DA9
:10064800CA0D890B212BFF30210020052000CB008B
:100658000730210021052000CC00003021002205B0
:100668002000CD000030210023052000CE000230FC
:10067800CB35CC0DCD0DCE0D890B3C2B4B08C704CB
:100688004C08C8044D08C9044E08CA044708C304E6
:100698004808C4044908C5044A08C6044308BF04F6
:1006A8004408C0044508C1044608C2043F08BB0406
:1006B8004008BC044108BD044208BE043B08B70416
:1006C8003C08B8043D08B9043E08BA0433083704A6
:1006D800D30034083804D40035083904D500360866
:1006E8003A04D6005330B3003308A0000430A10008
:1006F8000030A2004F308D31722582310430200045
:10070800B3003308A7004F3083319423823104307B
:100718002000B3003308AA004F308E312D26080080
:100728002000B100B201220023082000B0002200FE
:1007380022082000AF00220021082000AE0022007D
:1007480020082000AD003108A8002808A0002708CC
:10075800A900AA012908A1002A08A2002D308D317C
:10076800722583312000B2012708320203180800DD
:10077800FF302707A8002D302807A9003203FF3AC9
:100788002907AA002A08860087010108AB00320859
:100798003107AC002C08860087012B088100013046
:1007A800A8002808B207B82B2100B901BA01BB017B
:1007B800BB0ABC01BC0A03302000A00020082100AD
:1007C800BD00BE01BF01C00103302000A000200809
:1007D8002100C100C20106302000A000200821002D
:1007E800C30004302000A00020082100C400C50177
:0407F800C60108002E
:1008000010341034113411341234123413341334BC
:10081000143414341534153416341634173417348C
:10082000183418341934193419341A341A341B345E
:100830001B341B341C341C341C341D341D341D3437
:100840001D341E341E341E341E341E341E341F3418
:100850001F341F341F341F341F341F341F341F3400
:100860001F341F341F341F341F341E341E341E34F3
:100870001E341E341E341D341D341D341D341C34EE
:100880001C341C341B341B341B341A341A341934F2
:1008900019341934183418341734173416341634FC
:1008A000153415341434143413341334123412340C
:1008B00011341134103410340F340E340E340D341E
:1008C0000D340C340C340B340B340A340A34093430
:1008D000093408340834073407340634063406343F
:1008E0000534053404340434043403340334033449
:1008F000023402340234023401340134013401344C
:100900000134013400340034003400340034003445
:100910000034003400340034003400340034003437
:10092000013401340134013401340134023402341D
:1009300002340234033403340334043404340434FE
:1009400005340534063406340634073407340834D5
:100950000834093409340A340A340B340B340C34A7
:100960000C340D340D340E340E340F3412347A340A
:1009700000340034B0340434B634003448344534E0
:100980004C344C344F3400342100380803392000F3
:10099000B300B401B501B6011730B335B40DB50DD0
:1009A000B60D890BCD2C2100370807392000B70080
:1009B000B801B901BA011430B735B80DB90DBA0D87
:1009C000890BDC2C1330A03E86008701FF30010527
:1009D000BB00413101300105BC004131003001054F
:1009E000BD00413100300105BE000B30BB35BC0DF0
:1009F000BD0DBE0D890BF62C210032083F392000B9
:100A0000BF00C001C101C2010530BF35C00DC10D1D
:100A1000C20D890B052D2100310801392000C300CA
:100A2000C401C501C6010430C335C40DC50DC60DD2
:100A3000890B142D2100300803392000C700C8019C
:100A4000C901CA010230C735C80DC90DCA0D890BCD
:100A5000232D4708C3044808C4044908C5044A08AC
:100A6000C6044308BF044408C0044508C10446083E
:100A7000C2043F08BB044008BC044108BD0442084E
:100A8000BE043B08B7043C08B8043D08B9043E085E
:100A9000BA043708B3043808B4043908B5043A086E
:100AA000B60402303304CF0000303404D0000030EC
:100AB0003504D10000303604D2004F30B300330883
:100AC000A0000430A1000030A2004B308D3172250F
:100AD000843104302000B3003308A7004B30833149
:100AE0009423843104302000B3003308AA004B3033
:100AF0008E312D26080021004C08013A031D080004
:100B00007C0822003306031D8F2D7B083206031D4F
:100B10008F2D7A083106031D8F2D79083006031DAD
:100B20009D2D2100CC018731FC27853110308B3180
:100B3000FD232100CD01CD0A08002100D108031DAD
:100B4000E82D073022003005F10000303105F200B9
:100B500000303205F30000303305F40074087304EC
:100B600072047104031DCD2D3008F1003108F2002C
:100B70003208F3003308F4000330F436F30CF20CBF
:100B8000F10C890BBD2D7108A03E86000130870055
:100B90000108F50075082000D12D20006F36F10006
:100BA0007108EF006F18E82D21004B080319E02DA4
:100BB00022002408F10071082100D200CB01E82DA9
:100BC00022002808F10071082100D200CB01CB0AD5
:100BD00021005208F1007108FD07BC308400843008
:100BE0008500003FF100013FF2007208803A803C2E
:100BF000031DFC2D71087D02031C092EBC308400EE
:100C0000843085000008FF3A013E7D07F10071083D
:100C1000FD007D08003E840084300318013E8500FD
:100C20000008F1007108F60076088B31FD2385314C
:100C30000130F10071082100D10720006E08013A4F
:100C4000031D08002100D10101302200B00700304F
:100C5000B13D0030B23D0030B33D2000EE01080050
:100C60002000A900AA01AB012B08803AA300803024
:100C70002302083003192A0203180800200029085B
:100C8000A3002A0A442EA336890B432E23080139D8
:100C90008D31C525863120002908A3002A0A512E4E
:100CA000A336890B502E231CA02E00307C02031D7E
:100CB000632E00307B02031D632E02307A02031D77
:100CC000632E00307902031808000130A300790870
:100CD0000739890A6C2EA335890B6B2E2308A400D3
:100CE0007908A5007A08A6007B08A7007C08A80060
:100CF0000330A836A70CA60CA50C890B792E250865
:100D0000A03E860001308700240881040130F907E5
:100D10000030FA3D0030FB3D0030FC3D0130210049
:100D2000C9070030CA3D4A08803A2000A30080303D
:100D30002302031D9E2E053021004902031CDE2ED6
:100D400000307C02031DAE2E00307B02031DAE2E50
:100D500002307A02031DAE2E00307902031808001B
:100D600001302000A30079080739890AB82EA3357D
:100D7000890BB72E2308FF3AA4007908A5007A084A
:100D8000A6007B08A7007C08A8000330A836A70CA3
:100D9000A60CA50C890BC62E2508A03E86000130A6
:100DA0008700240881050130F9070030FA3D003042
:100DB000FB3D0030FC3D2100C901CA01013020008B
:100DC000AA070030AB3D342E8E31662686312100D5
:100DD0001A1CE72E8C31772486318C3168248631B9
:100DE0008C31022486318C310C24863120008C1207
:100DF0000A30A0000030A1008D312F25863120005F
:100E00000C160A30A0000030A1008D312F2586314C
:100E100020008C160A30A0000030A1008D312F2553
:100E20008631C8302000A0000030A1008D312F2570
:100E300086313430860001308700DF308400003096
:100E4000850010302000ED0016001A00ED0B242F55
:100E50000230AC000030AD00DF308131F521863149
:100E6000BE302000AD008430AE008C31F3248631DA
:100E70008C31D82486318C3118248631643020009E
:100E8000A0000030A1008D312F2586318F3112272F
:100E9000863164302000A0000030A1008D312F2564
:100EA00086318D31F725863121004D0803195D2FDC
:100EB0008C314B2486312100CD018D314F25863177
:100EC0002100CC08031D602FD0302000A000073087
:100ED000A1008D312F2586316400542F7E302000F3
:100EE000A0002008A600A701A8012808803AA000B9
:100EF0008030200208300319270203180800003050
:100F00007C02031D8D2F00307B02031D8D2F0230CC
:100F10007A02031D8D2F003079020318080020008B
:100F20002608A000270A952FA036890B942F201C95
:100F3000BB2F0130A00079080739890AA02FA035FE
:100F4000890B9F2F2008A1007908A2007A08A3002E
:100F50007B08A4007C08A5000330A536A40CA30CD4
:100F6000A20C890BAD2F2208A03E8600013087001D
:100F700021088104DD2F0130A00079080739890A92
:100F8000C22FA035890BC12F2008FF3AA100790894
:100F9000A2007A08A3007B08A4007C08A500033007
:100FA000A536A40CA30CA20C890BD02F2208A03EBE
:100FB000860001308700210881050130A707003035
:100FC000A83D0130F9070030FA3D0030FB3D00300C
:100FD000FC3D752F20008C120A30A0000030A100CB
:100FE0008D312F25873120008C160A30A00000306B
:100FF000A1008D312F2508008B12200095010800DB
:1017F4008C312A240800F0007008220099000800A7
:1018040022009817103099000800200095010B1150
:101814008B1608002000111321001D141117080055
:101824002000AC002C088631302608008C31A82416
:101834008C318C313D240800FE0012001E00FE0B8A
:101844001F2C0034640080010131890B252C0034E5
:1018540020008E1E2F2C0130080000300800823139
:10186400CD228C318E31A1268C318431C4248C312B
:101874008031892008008C3159248C318C313124F9
:101884008C310A302000A0000030A1008D312F25BA
:1018940008002100BA01B2018C3131248C310A30A4
:1018A4002000A0000030A1008D312F2508008D31CB
:1018B40010258C318C3197248C318C31C0248C319F
:1018C4008331D8238C318731EA270800200097011F
:1018D400960121001110033025009200413091003F
:1018E4002000111121001115080021008C14CB30A7
:1018F4002000A000200821008C058E16E030200076
:10190400A000200821008E050800433455344234D9
:10191400453459345934003405344334553442344D
:10192400453458345834003406346D302000A00057
:1019340020082100AE000030AD000030AC000030C3
:10194400AB000030AA00AF01AF0A08001A30200033
:10195400A00020082100CE0000302200A7000030A3
:10196400A6000030A5000730A4000030AB00003012
:10197400AA000030A9000D30A800080003302000A0
:10198400A00020082100B000B1010F302000A00009
:1019940020082100B2000030B6000030B50000304D
:1019A400B4001030B300B701B801080021004808A2
:1019B4002000AD01AD07210047082000AC01AC07B1
:1019C4002C09863130268C3108302000AD36AC0C21
:1019D400890BE82C2C09863130268C3187316E270F
:1019E40008002000AF01B0012D082F0784002E0845
:1019F400303D850000080038031908002D082F0722
:101A040084002E08303D850000088C3112248C316E
:101A140001302000AF070030B03DF62C003021002B
:101A2400A3000030A2000030A1000030A0000F305D
:101A34002000A00020082100A400A501A601023076
:101A44002000A00020082100A700A80102302000E7
:101A5400A00020082100A90008002000A401A5017D
:101A64008C3102248D312000A401A5012108250216
:101A7400031D3E2D20082402031808000B30A30088
:101A84006230A200A20B442DA30B442D00000130B0
:101A94002000A4070030A53D382D22002408200092
:101AA400EC006C082100D200FD0100302200B300DC
:101AB4000030B2000030B1000030B0002100D1018C
:101AC400CC01CC0A8D31F7258D3164302000A00083
:101AD4000030A1008D312F258D318C310724080071
:101AE4002000A6002008A3002308A5002608A300C0
:101AF4002308A4000130A1020030A23BFF302206DB
:101B0400031D862DFF3021060319080025088600D1
:101B140087010108A30024088600870123088100A7
:101B24000130A3002308A5070130A3002308A4075C
:101B34007C2D2000A7000C112708A6002608A80069
:101B4400A9010830290203180800A81FAB2D0E159F
:101B5400AC2D0E110310A80D0C150130A00000309F
:101B6400A1008D312F258D3120000C110130A000F2
:101B74000030A1008D312F258D3101302000A600C9
:101B84002608A907A32D2000A2002208A000A10175
:101B940020082100C706200021082100C806471C90
:101BA400E62D48082000A100210047082000A000DD
:101BB400A136A00C083020062100C7008430200084
:101BC40021062100C800080048082000A1002100C7
:101BD40047082000A000A136A00C20082100C7005F
:101BE400200021082100C80008002100BA01B20128
:101BF40003302000EB006B082100C1008C3131243C
:101C04008D310A302000A0000030A1008D312F2535
:101C14008D318C312A248D310038031908002100BC
:101C2400BA01BA0A3F302000EB006B082100B20071
:101C34000A302000A0000030A1008D312F258D3105
:101C44008C3131248D3101302000A0000030A100FE
:101C54008D312F2508002000AC00AD010130A0001B
:101C64000030A1008D312F258E3120000C1201305F
:101C7400A0000030A1008D312F258E312000AD0150
:101C84002A082D020318562E2D082C07AB002B080A
:101C94008600870101088D319B258E31013020009B
:101CA400AB002B08AD07422E0130A0000030A1008C
:101CB4008D312F258E3120000C160130A00000300C
:101CC400A1008D312F2508002100971617129711B6
:101CD400171197149901F0302000A000200821006A
:101CE40099049801951295152000181499139813C6
:101CF400181398161816250093151311931493109E
:101D04002200981698111811181023008C1483308F
:101D14002000A000200821009D051D151E119E1005
:101D24001E101E179E161E129E170B112000111056
:101D340011111113C030A00020088B0408002100E9
:101D44002F0801392000B300B401B501B6011630E3
:101D5400B335B40DB50DB60D890BAA2E21002E088E
:101D64002000B700B801B901BA010E30B735B80D7B
:101D7400B90DBA0D890BB82E0A30A03E8600870132
:101D8400FF300105BB0041310F300105BC0041317A
:101D940000300105BD00413100300105BE000230B4
:101DA400BB35BC0DBD0DBE0D890BD22E3B08B7044F
:101DB4003C08B8043D08B9043E08BA043708B30423
:101DC4003808B4043908B5043A08B60401303304B9
:101DD400BF0000303404C00000303504C1000030BE
:101DE4003604C2003F30B3003308A0000330A10022
:101DF4000030A20043308D3172258E310330200033
:101E0400B3003308A7004330833194238E31033069
:101E14002000B3003308AA0043308E312D26080079
:101E2400C8302000A0000030A1008D312F258F3153
:101E3400210028082000EB00EC016B082100DB00E6
:101E440020006C082100DC0043082000EB00EC01BA
:101E54006B082100DD0020006C082100DE00B901C0
:101E6400B90A05302000EB006B082100C1008C3159
:101E740031248F3105302000A0000030A1008D31C5
:101E84002F258F318B31FA238F31003A031D08003F
:101E940021005B082000EB006B082100A8005D080E
:101EA4002000EB006B082100C30005302000EB008C
:101EB4006B082100C1008C3131248F3105302000A2
:101EC400A0000030A1008D312F258F310130210079
:101ED400DD070030DE3D0E305D065E04031D442F39
:101EE4000130DD000030DE000130DB070030DC3D76
:101EF40004305B065C04031D442FA8010530200058
:101F0400EB006B082100C30008002000A601A70114
:101F1400A8012808803AA000803020020830031964
:101F240027020318080000307C02031DA32F003091
:101F34007B02031DA32F02307A02031DA32F00305E
:101F440079020318080020002608A000270AAB2FF6
:101F5400A036890BAA2F201CD12F0130A0007908AC
:101F64000739890AB62FA035890BB52F2008A1009F
:101F74007908A2007A08A3007B08A4007C08A500C5
:101F84000330A536A40CA30CA20C890BC32F220882
:101F9400A03E86000130870021088104F32F013020
:101FA400A00079080739890AD82FA035890BD72FC3
:101FB4002008FF3AA1007908A2007A08A3007B0850
:101FC400A4007C08A5000330A536A40CA30CA20C25
:101FD400890BE62F2208A03E8600013087002108E5
:101FE40081050130A7070030A83D0130F907003012
:0C1FF400FA3D0030FB3D0030FC3D8B2F1F
:020000040001F9
:04000E00FCFFFFFFF5
:00000001FF
