:0400000080313328F0
:100008007E14803120007F08F1007F30F0007008F6
:100018008B05111F1A2821001C08F0007008D50054
:100028001B08F0007008D60020001113111D2828A5
:1000380001302200BC070030BD3D20009701960129
:10004800FB30F000700891050B1D2E28FB30F000E6
:1000580070088B058B177108FF007E10090080312E
:100068003528FA01FB01EF01A0308400003085003B
:100078003B3095318D25803120308400013085005A
:10008800203095318D258031A030840001308500E5
:10009800403095318D258031873084009630850039
:1000A80040308600013087001E30953187257E104C
:1000B800200080315F2897316C27803121001A1C7D
:1000C80062289531BC2580318731FB2780319531F5
:1000D800A525803195317625803195317B25803174
:1000E80020008C120A30F2000030F3009631C82646
:1000F800803120000C160A30F2000030F3009631EF
:10010800C826803120008C160A30F2000030F30037
:100118009631C8268031C830F2000030F30096319D
:10012800C82680314030860001308700DF308400E7
:100138000030850010302000EE0016001A00EE0B8B
:10014800A1280230A6000030A700DF3086317A26C9
:10015800803108302000A6008330A70096314C2655
:1001680080318031E92080319531812580316430BA
:10017800F2000030F3009631C826803120008E113D
:100188006430F2000030F3009631C826803188319F
:1001980028208031210054080319D7289531C82513
:1001A80080312100D401973118278031C830F200FE
:1001B8000030F3009631C82680310A30F200003052
:1001C800F3009631C8268031CE2821005008F90165
:1001D800F9074F08F801F80778098E316926803148
:1001E8000830F936F80C890BF52878098E3169261C
:1001F80080318A31AC2208007F34813482348434DF
:100208008534873488348A348B348D348F349034F1
:100218009234933495349634983499349B349C347E
:100228009E349F34A134A334A434A634A734A8340C
:10023800AA34AB34AD34AE34B034B134B334B4349E
:10024800B634B734B834BA34BB34BC34BE34BF3433
:10025800C134C234C334C534C634C734C834CA34CC
:10026800CB34CC34CD34CF34D034D134D234D3346D
:10027800D534D634D734D834D934DA34DB34DC3412
:10028800DD34DF34E034E134E234E334E434E434BC
:10029800E534E634E734E834E934EA34EB34EC3472
:1002A800EC34ED34EE34EF34EF34F034F134F2342E
:1002B800F234F334F434F434F534F534F634F734F2
:1002C800F734F834F834F934F934F934FA34FA34C0
:1002D800FB34FB34FB34FC34FC34FC34FD34FD3497
:1002E800FD34FD34FE34FE34FE34FE34FE34FE3478
:1002F800FE34FE34FE34FE34FF34FE34FE34FE3465
:10030800FE34FE34FE34FE34FE34FE34FE34FD3456
:10031800FD34FD34FD34FC34FC34FC34FB34FB3454
:10032800FB34FA34FA34F934F934F934F834F8345B
:10033800F734F734F634F534F534F434F434F3346C
:10034800F234F234F134F034EF34EF34EE34ED3487
:10035800EC34EC34EB34EA34E934E834E734E634AA
:10036800E534E434E434E334E234E134E034DF34D3
:10037800DD34DC34DB34DA34D934D834D734D63409
:10038800D534D334D234D134D034CF34CD34CC3442
:10039800CB34CA34C834C734C634C534C334C23481
:1003A800C134BF34BE34BC34BB34BA34B834B734C7
:1003B800B634B434B334B134B034AE34AD34AB3411
:1003C800AA34A834A734A634A434A334A1349F345F
:1003D8009E349C349B3499349834963495349334B1
:1003E800923490348F348D348B348A348834873403
:1003F80085348434823481347F347D347C347A3457
:100408007934773476347434733471346F346E34A9
:100418006C346B34693468346634653463346234FC
:1004280060345F345D345B345A345834573456344E
:1004380054345334513450344E344D344B344A349C
:1004480048344734463444344334423440343F34E7
:100458003D343C343B34393438343734363434342E
:100468003334323431342F342E342D342C342B346D
:1004780029342834273426342534243423342234A8
:1004880021341F341E341D341C341B341A341A34DE
:100498001934183417341634153414341334123408
:1004A8001234113410340F340F340E340D340C342C
:1004B8000C340B340A340A34093409340834073448
:1004C800073406340634053405340534043404345A
:1004D8000334033403340234023402340134013463
:1004E8000134013400340034003400340034003462
:1004F8000034003400340034003400340034003454
:100508000034003400340034003400340034013442
:100518000134013401340234023402340334033424
:1005280003340434043405340534053406340634FD
:10053800073407340834093409340A340A340B34CC
:100548000C340C340D340E340F340F341034113491
:10055800123412341334143415341634173418344E
:1005680019341A341A341B341C341D341E341F3405
:1005780021342234233424342534263427342834AF
:1005880029342B342C342D342E342F343134323456
:100598003334343436343734383439343B343C34F7
:1005A8003D343F3440344234433444344634473491
:1005B80048344A344B344D344E3450345134533427
:1005C80054345634573458345A345B345D345F34B9
:1005D80060346234633465346634683469346B3447
:1005E8006C346E346F3471347334743476347734D5
:1005F80079347A347C347D34A03486340134003440
:10060800B034043400340234483445344C344C3467
:100618004F340034210046080F392000AB00AC01EC
:10062800AD01AE011C30AB35AC0DAD0DAE0D890B77
:10063800172B210045081F392000AF00B001B10178
:10064800B2011730AF35B00DB10DB20D890B262BA5
:100658002100440807392000B300B401B501B601F0
:100668001430B335B40DB50DB60D890B352B2100FB
:1006780043080F392000B700B801B901BA0110309A
:10068800B735B80DB90DBA0D890B442B21004208B6
:1006980001392000BB00BC01BD01BE010F30BB35D4
:1006A800BC0DBD0DBE0D890B532B210041080F3920
:1006B8002000BF00C001C101C2010B30BF35C00D11
:1006C800C10DC20D890B622B2100400801392000A1
:1006D800C300C401C501C6010A30C335C40DC50D28
:1006E800C60D890B712B21003F0801392000C70076
:1006F800C801C901CA010930C735C80DC90DCA0DDD
:10070800890B802B21003E0801392000CB00CC0149
:10071800CD01CE010830CB35CC0DCD0DCE0D890BDA
:100728008F2B21003D0803392000CF00D001D101D3
:10073800D2010630CF35D00DD10DD20D890B9E2BAD
:1007480021003C0801392000D300D401D501D6018D
:100758000530D335D40DD50DD60D890BAD2B210021
:100768003B0801392000D700D801D901DA0104304B
:10077800D735D80DD90DDA0D890BBC2B21003A08D5
:1007880001392000DB00DC01DD01DE010330DB354F
:10079800DC0DDD0DDE0D890BCB2B2100390801396D
:1007A8002000DF00E001E101E2010230DF35E00D69
:1007B800E10DE20D890BDA2B5F08DB046008DC042D
:1007C8006108DD046208DE045B08D7045C08D8040D
:1007D8005D08D9045E08DA045708D3045808D4041D
:1007E8005908D5045A08D6045308CF045408D0042D
:1007F8005508D1045608D2044F08CB045008CC043D
:100808005108CD045208CE044B08C7044C08C8044C
:100818004D08C9044E08CA044708C3044808C4045C
:100828004908C5044A08C6044308BF044408C0046C
:100838004508C1044608C2043F08BB044008BC047C
:100848004108BD044208BE043B08B7043C08B8048C
:100858003D08B9043E08BA043708B3043808B4049C
:100868003908B5043A08B6043308AF043408B004AC
:100878003508B1043608B2042F08AB043008AC04BC
:100888003108AD043208AE0403302B04E700003011
:100898002C04E80000302D04E90000302E04EA00A2
:1008A8006730AB002B08F2000430F3000030F4008E
:1008B800633088310020833104302000AB002B08DE
:1008C800F90063309731CC27833104302000AB0026
:1008D8002B08A300633088315E2008002100A9019D
:1008E800183020004102031D832C70304002031D84
:1008F800832C1A303F02031D832C80303E020318DC
:10090800882C2100A901A90A0C3020004102031DEE
:10091800972C84304002031D972C58303F02031D4A
:10092800972C80303E0203189E2C0230C2004208E9
:100938002100A900073020004102031DAD2CBF3063
:100948004002031DAD2CA4303F02031DAD2C8030A6
:100958003E020318B42C0330C20042082100A9004B
:10096800210024082000C200C301C401C5014508B4
:10097800F5004408F4004308F3004208F20001308F
:10098800F9003130F8002D30F7000030F6008B31D7
:100998002E23843175082000D3007408D200730810
:1009A800D1007208D0005308A7005208A6005108C9
:1009B800A5005008A4004108AB004008AA003F0861
:1009C800A9003E08A8008831972084312000270814
:1009D800D7002608D6002508D5002408D4005308D7
:1009E800A3005208A2005108A1005008A0009731A6
:1009F8004227843120002008A6002108A7002208E9
:100A0800A8004108A3004008A2003F08A1003E0832
:100A1800A00097314227843120002008A90021082E
:100A2800AA002208AB00873152278431200026080B
:100A3800CA002708CB002808CC004A08A9004B08A0
:100A4800AA004C08AB005708A3005608A200550896
:100A5800A1005408A00097314227843120002008C3
:100A6800A6002108A7002208A80095319C258431FA
:100A780020002608AC002708AD002808AE00853104
:100A88008425843120002908CD002A08CE002B08AF
:100A9800CF004D08A3004E08A4004F08A500003061
:100AA800A0008030A1004530A2008C313724843169
:100AB80020002008B0002108B1002208B2008B31C4
:100AC800B02320003308C9003208C8003108C70025
:100AD8003008C6005408C20042082100AE002000B9
:100AE80049082100AD00200048082100AC00200082
:100AF80047082100AB00200046082100AA00080092
:100B080020002908AF002A08B0002B08B100031004
:100B1800300D310DB2003208B5002C08AF002D0899
:100B2800B0002E08B1000310300D310DB2003208AC
:100B3800B40035080319AC2D340835020318B32D59
:100B48003503FF3A3407AF0019302F02031CB32DC9
:100B58002C08A9002D08AA002E08AB0008003408AC
:100B680003190800350834020318C22D3403FF3A6C
:100B78003507AF0019302F02031808000630AF0000
:100B88002F08B300AB1BB317AE1B3317AA17FF30E0
:100B9800A905FF30AA050030AB05AD17FF30AC053D
:100BA800FF30AD050030AE05340835020318FE2DC0
:100BB8000130AC35AD0DAE0D890BDD2D0130B40221
:100BC800340835060319F92D0130B3023308073903
:100BD8000319F92DDC2D0130AB36AA0CA90C890BB1
:100BE800F02D0130AF002F08B5073508340603197A
:100BF800232EEF2D350834020318232E0130A93592
:100C0800AA0DAB0D890B032E0130B5023408350649
:100C180003191F2E0130B3023308073903191F2E99
:100C2800022E0130AE36AD0CAC0C890B162E0130FD
:100C3800AF002F08B40735083406031D152EB31F5F
:100C4800352EFF30A906FF30AA06FF30AB0601306B
:100C5800A907003003180130AA0700300318013033
:100C6800AB07331F472EFF30AC06FF30AD06FF3011
:100C7800AE060130AC07003003180130AD07003074
:100C880003180130AE07B3012908AC072A08AD3DA7
:100C98002B08AE3DAE1F622EFF30AC06FF30AD060E
:100CA800FF30AE060130AC07003003180130AD0745
:100CB800003003180130AE07B301B30A2C08F20064
:100CC8002D08F3002E08F4003508AF002F08F500B2
:100CD8003308B0003008F6008831EA207208200096
:100CE800A9007308AA007408AB0008002000AB0034
:100CF80000302100CA000030C9000030C8000030B0
:100D0800C700D101D201FF30CF00FF30D000200052
:100D1800AE01AF012F08803AA80080302802031DD9
:100D2800972E64302E020318AC2E8A312D2286317C
:100D380001302000AE070030AF3D2F08803AA800F0
:100D480080302802031DAA2E64302E02031C992E1F
:100D58002000AE01AF012F08803AA8008030280299
:100D6800031DB82E03302E020318CD2E8A31AC2273
:100D7800863101302000AE070030AF3D2F08803AA1
:100D8800A80080302802031DCB2E03302E02031C3E
:100D9800BA2E2000AE01AF012F08803AA80027081C
:100DA800803A2802031DDA2E26082E0203184A2F3D
:100DB8002000AC01AD012D08803AA800803028023F
:100DC800031DE82E06302C0203180F2F20002E08D2
:100DD800A8000230A835FF3E031DEE2E28352B074C
:100DE800A9002C082907AA002A08860087010135CE
:100DF8008E316926863101302000AC070030AD3DC8
:100E08002D08803AA80080302802031D0D2F0630D7
:100E18002C02031CEA2E20002608FF3EA800FF3003
:100E2800273DA9002F082906031D1C2F2E08280678
:100E3800031D302F2E08A8000230A835FF3E031DE1
:100E4800212F28352B07A9002908073E860087018E
:100E58000135603E0138412F20002E08A8000230DD
:100E6800A835FF3E031D342F28352B07A900290874
:100E7800073E860087010135603E8E31692686313E
:100E880001302000AE070030AF3DD02E03308E3148
:100E980069268631F0308E3169260800200029083D
:100EA800AC002A08AD002B08AE0003102D0D2E0D46
:100EB800AF002F08B400B408031D692F0030A60046
:100EC8000030A7000030A80008002608AC0027085A
:100ED800AD002808AE0003102D0D2E0DAF002F0811
:100EE800B500B508031D7F2F0030A6000030A7000D
:100EF8000030A80008000030B1000030B200003017
:100F0800B30089303507AC002C08B4022908AC00BE
:100F18002A08AD002B08AE001030AE36AD0CAC0C74
:100F2800890B912F2C08AF002F08B5002608AC00BC
:100F38002708AD002808AE001030AE36AD0CAC0C5A
:100F4800890BA12F2C08AF002F08B5068030AC0004
:100F58002C08B505AA17FF30A905FF30AA050030EF
:100F6800AB05A717FF30A605FF30A7050030A80579
:100F78001830AC002C08B0000130B135B20DB30DFB
:100F8800890BC12F28082B02031DD02F27082A02FE
:100F9800031DD02F26082902031CD92F2608A902D1
:100FA8002708AA3B2808AB3B31140130A935AA0D04
:100FB800AB0D890BDA2F0130B002031DC02F3108A9
:100FC800F2003208F3003308F4003408AC002C08AF
:100FD800F5003508AD002D08F6008831EA207208C2
:100FE8002000A6007308A7007408A80008002000C5
:100FF80095010B118B160800F8007208F5007508AA
:10100800F7007808F5007508F6000130F3020030A3
:10101800F43BFF307406031D1328FF3073060319D1
:1010280008007708860087010108F5007608860021
:101038008701750881000130F5007508F707013050
:10104800F5007508F60709282100BA01B201033036
:101058002000ED006D082100C1009531B0258831D0
:101068000A30F2000030F3009631C82688319531F5
:10107800D52588310038031908008931BB2188310A
:101088002100BA01BA0A3F302000ED006D082100A6
:10109800B2000A30F2000030F3009631C8268831D9
:1010A8009531B02588310130F2000030F3009631D7
:1010B800C82608002000A400A5010130F200003075
:1010C800F3009631C826883120000C120130F20056
:1010D8000030F3009631C82688312000A501230886
:1010E80025020318872825082407F90079088600AF
:1010F800870101089631EE2688310130F900790818
:101108002000A50773280130F2000030F300963163
:10111800C826883120000C160130F2000030F30098
:101128009631C826080000302000B0000030AF001B
:101138000030AE000030AD00270826042504240442
:101148000319E128B101B10AA71BB6280130A4355B
:10115800A50DA60DA70D890BAB280130AC002C08F6
:10116800B107A8280130AD35AE0DAF0DB00D890B14
:10117800B72827082B02031DCB2826082A02031D9F
:10118800CB2825082902031DCB2824082802031C84
:10119800D6282408A8022508A93B2608AA3B270820
:1011A800AB3B2D140130A736A60CA50CA40C890B5B
:1011B800D7280130B102031DB6283008A7002F0830
:1011C800A6002E08A5002D08A4000800750803191C
:1011D800F228740873047204031D03290030F20016
:1011E8000030F3000030F40008000130F700770801
:1011F800F5070130F436F30CF20C890BFE28FE30AB
:10120800740503191C29F9280130F7007708F50738
:101218000130F207003003180130F30700300318DB
:101228000130F4070130F436F30CF20C890B17295E
:10123800FF3074050319292908290130F502013006
:10124800F235F30DF40D890B2429F31F21297518A4
:101258003329FF30F2057F30F305FF30F405031022
:10126800F50C7508F700F801F9011030F735F80D9D
:10127800F90D890B3A297708F2047808F3047908FC
:10128800F404760803190800F417080021002F0851
:1012980001392000AB00AC01AD01AE011630AB3511
:1012A800AC0DAD0DAE0D890B532921002E08200081
:1012B800AF00B001B101B2010E30AF35B00DB10DC4
:1012C800B20D890B61290A30A03E86008701FF30E4
:1012D8000105B30041310F300105B4004131003040
:1012E8000105B500413100300105B6000230B335C3
:1012F800B40DB50DB60D890B7B293308AF0434083E
:10130800B0043508B1043608B2042F08AB0430081D
:10131800AC043108AD043208AE0401302B04BA0025
:1013280000302C04BB0000302D04BC0000302E041B
:10133800BD003A30AB002B08F2000330F300003058
:10134800F400373088310020893103302000AB00A9
:101358002B08F90037309731CC278931033020002A
:10136800AB002B08A300373088315E200800C83056
:10137800F2000030F3009631C82689312100280890
:101388002000EB00EC016B082100DB0020006C085A
:101398002100DC0043082000EB00EC016B08210071
:1013A800DD0020006C082100DE00B901B90A053013
:1013B8002000EB006B082100C1009531B025893170
:1013C8000530F2000030F3009631C8268931953196
:1013D8006E258931003A031D080021005B082000B2
:1013E800EB006B082100A8005D082000EB006B08EB
:1013F8002100C30005302000EB006B082100C1006C
:101408009531B02589310530F2000030F30096316E
:10141800C826893101302100DD070030DE3D0E305D
:101428005D065E04031DEB290130DD000030DE009F
:101438000130DB070030DC3D04305B065C04031D33
:10144800EB29A80105302000EB006B082100C30040
:1014580008002000A001A101A2012208803AF200A0
:101468008030720208300319210203180800003086
:1014780021004A02031D4A2A00304902031D4A2A54
:1014880002304802031D4A2A0030470203180800A8
:1014980020002008F200210A522AF236890B512A2C
:1014A800721C792A0130F200210047080739890A9D
:1014B8005E2AF235890B5D2A7208F3004708F400AA
:1014C8004808F5004908F6004A08F7000330F736DF
:1014D800F60CF50CF40C890B6B2A7408A03E8600F8
:1014E80001308700730881049C2A0130F200210032
:1014F80047080739890A812AF235890B802A720838
:10150800FF3AF3004708F4004808F5004908F600D8
:101518004A08F7000330F736F60CF50CF40C890B83
:101528008F2A7408A03E8600013087007308810561
:1015380001302000A1070030A23D01302100C7077B
:101548000030C83D0030C93D0030CA3D2000312A76
:101558007E30F20072082000A000A101A20122083A
:10156800803AF20080307202083003192102031811
:101578000800003021004A02031DCC2A003049022D
:10158800031DCC2A02304802031DCC2A0030470232
:101598000318080020002008F200210AD42AF23695
:1015A800890BD32A721CFB2A0130F200210047085C
:1015B8000739890AE02AF235890BDF2A7208F30015
:1015C8004708F4004808F5004908F6004A08F700FB
:1015D8000330F736F60CF50CF40C890BED2A740879
:1015E800A03E860001308700730881041E2B01305D
:1015F800F200210047080739890A032BF235890BC5
:10160800022B7208FF3AF3004708F4004808F50077
:101618004908F6004A08F7000330F736F60CF50CCF
:10162800F40C890B112B7408A03E8600013087004A
:101638007308810501302000A1070030A23D013068
:101648002100C7070030C83D0030C93D0030CA3D01
:101658002000B32A2000A201F51F3F2BF209F3094D
:10166800F409F509F20A0319F30A0319F40A03192C
:10167800F50AA201A20AF91F502BF609F709F80981
:10168800F909F60A0319F70A0319F80A0319F90AF6
:101698000130A0002008A2060030A6000030A500F6
:1016A8000030A4000030A3007508740473047204A9
:1016B8000319992BA101A10AF51B6E2B0130F235F4
:1016C800F30DF40DF50D890B632B0130A0002008F4
:1016D800A107602B0130A335A40DA50DA60D890B1C
:1016E8006F2B75087902031D832B74087802031D7C
:1016F800832B73087702031D832B72087602031C61
:101708008E2B7208F6027308F73B7408F83B7508CD
:10171800F93B23140130F536F40CF30CF20C890B69
:101728008F2B0130A102031D6E2B22080319A72B52
:10173800A309A409A509A609A30A0319A40A031958
:10174800A50A0319A60A2608F5002508F4002408A6
:10175800F3002308F200080020003008B400310824
:10176800B5003208B6000310350D360DB70037083E
:10177800BD00BD08031DC92B0030B3000030B20006
:101788000030B1000030B00008003008B400310863
:10179800B5003208B6001730B636B50CB40C890B54
:1017A800D02B3408B7003708B800B117FF30B005A0
:1017B800FF30B1050030B2053008B9003108BA0071
:1017C8003208BB00BC018E30BD02BD1F072C3D088E
:1017D800803A8F3E0318F92B0030B3000030B20076
:1017E8000030B1000030B00008000130BC36BB0C3E
:1017F800BA0CB90C890BFA2B0130B4003408BD07B8
:101808000319202CF92B18303D02031C1D2C003025
:10181800B3000030B2000030B1000030B000080062
:101828000130B935BA0DBB0DBC0D890B152C013033
:10183800BD02BD08031D142C380803192E2CB90944
:10184800BA09BB09BC09B90A0319BA0A0319BB0AC0
:101858000319BC0A3C08B3003B08B2003A08B100BF
:101868003908B000080020002008A6002108A700B9
:101878002208A8000310270D280DA9002908AA008E
:10188800AA08031D4E2C0030A0000030A100003033
:10189800A20008002308A6002408A7002508A8001D
:1018A8000310270D280DA9002908AF00AF08031D54
:1018B800642C0030A0000030A1000030A200080015
:1018C8002F087B3EA6002608AA072008A6002108A4
:1018D800A7002208A8001030A836A70CA60C890B70
:1018E800702C2608A9002908AF002308A6002408A0
:1018F800A7002508A8001030A836A70CA60C890B4D
:10190800802C2608A9002908AF068030A6002608E2
:10191800AF05A117A417FF30A305FF30A4050030B9
:10192800A5050030AB000030AC000030AD0007303A
:10193800A6002608AE00201CA72C2308AB07240805
:10194800AC3D2508AD3D0130A236A10CA00C890B99
:10195800A82C0130A335A40DA50D890BAE2C0130A0
:10196800AE02031D9F2C0930A6002608AE00201CDD
:10197800C32C2308AB072408AC3D2508AD3D013036
:10198800A236A10CA00C890BC42C0130AD36AC0CCE
:10199800AB0C890BCA2C0130AE02031DBB2C2B08E3
:1019A800F2002C08F3002D08F4002A08A6002608E7
:1019B800F5002F08A7002708F6008831EA207208EA
:1019C8002000A0007308A1007408A20008002100EC
:1019D800380803392000AB00AC01AD01AE01173067
:1019E800AB35AC0DAD0DAE0D890BF42C21003708CD
:1019F80007392000AF00B001B101B2011430AF3592
:101A0800B00DB10DB20D890B032D1330A03E860029
:101A18008701FF300105B300413101300105B400F1
:101A2800413100300105B500413100300105B600F3
:101A38000B30B335B40DB50DB60D890B1D2D210036
:101A480032083F392000B700B801B901BA010530A2
:101A5800B735B80DB90DBA0D890B2C2D21003108F9
:101A680001392000BB00BC01BD01BE010430BB35FB
:101A7800BC0DBD0DBE0D890B3B2D2100300803396F
:101A88002000BF00C001C101C2010230BF35C00D36
:101A9800C10DC20D890B4A2D3F08BB044008BC0488
:101AA8004108BD044208BE043B08B7043C08B8041A
:101AB8003D08B9043E08BA043708B3043808B4042A
:101AC8003908B5043A08B6043308AF043408B0043A
:101AD8003508B1043608B2042F08AB043008AC044A
:101AE8003108AD043208AE0402302B04C7000030C0
:101AF8002C04C80000302D04C90000302E04CA0090
:101B08004730AB002B08F2000430F3000030F4003B
:101B18004330883100208C3104302000AB002B0882
:101B2800F90043309731CC278C3104302000AB00CA
:101B38002B08A300433088315E20080021002908C3
:101B480003392000AB00AC01AD01AE011930AB3553
:101B5800AC0DAD0DAE0D890BAB2D21002808033956
:101B68002000AF00B001B101B2011730AF35B00DA0
:101B7800B10DB20D890BBA2D210027080F392000AD
:101B8800B300B401B501B6011330B335B40DB50DCA
:101B9800B60D890BC92D2100260801392000B70090
:101BA800B801B901BA011230B735B80DB90DBA0D7F
:101BB800890BD82D2100250801392000BB00BC0164
:101BC800BD01BE011130BB35BC0DBD0DBE0D890B6D
:101BD800E72D210024080F392000BF00C001C101F2
:101BE800C2010D30BF35C00DC10DC20D890BF62DD8
:101BF800FF30210020052000C30007302100210507
:101C08002000C4000030210022052000C50000305B
:101C1800210023052000C6000230C335C40DC50DC0
:101C2800C60D890B112E4308BF044408C00445089B
:101C3800C1044608C2043F08BB044008BC0441086C
:101C4800BD044208BE043B08B7043C08B8043D087C
:101C5800B9043E08BA043708B3043808B40439088C
:101C6800B5043A08B6043308AF043408B00435089C
:101C7800B1043608B2042B082F04CB002C0830041A
:101C8800CC002D083104CD002E083204CE004B3094
:101C9800AB002B08F2000430F3000030F4004730AA
:101CA800883100208D3104302000AB002B08F9006A
:101CB80047309731CC278D3104302000AB002B08FA
:101CC800A300473088315E200800F500F601F701CF
:101CD8007708803A2000A0008030200208300319DD
:101CE80076020318080075082000A000760A7D2EE9
:101CF800A036890B7C2E200801399631A5268E3115
:101D080075082000A000760A8A2EA036890B892E35
:101D1800201CE52E003021004A02031D9D2E0030B4
:101D28004902031D9D2E02304802031D9D2E0030DE
:101D380047020318080001302000A00021004708CE
:101D48000739890A2000A92EA035890BA82E20085A
:101D5800A100210047082000A20021004808200017
:101D6800A300210049082000A40021004A082000FF
:101D7800A5000330A536A40CA30CA20C890BBE2E1B
:101D88002208A03E86000130870021088104013026
:101D98002100C7070030C83D0030C93D0030CA3DAA
:101DA8000130D1070030D23D5208803A2000A0000F
:101DB80080302002031DE32E053021005102031C50
:101DC8002E2F003021004A02031DF42E0030490254
:101DD800031DF42E02304802031DF42E0030470282
:101DE8000318080001302000A00021004708073927
:101DF800890A2000002FA035890BFF2E2008FF3A02
:101E0800A100210047082000A20021004808200066
:101E1800A300210049082000A40021004A0820004E
:101E2800A5000330A536A40CA30CA20C890B162F11
:101E38002208A03E86000130870021088105013074
:101E48002100C7070030C83D0030C93D0030CA3DF9
:101E5800D101D2010130F6070030F73D6C2E043075
:101E6800840083308500003F2000B200013FB300AA
:101E78003208A4003308A500890D893B8909A6000A
:101E8800A7000030840083308500003FA800013F90
:101E9800A900023FAA00033FAB00883197208F3189
:101EA80020002408B4003408EF0000308400833098
:101EB8008500003FA400013FA500023FA600033FA4
:101EC800A7000030F9000030F8000430F700B03007
:101ED800F6000630840083308500003FB200013FE1
:101EE800B3003208F2003308F300890D893B8909F1
:101EF800F400F50097319A278F3172082000B4005A
:101F08007308B5007408B6007508B7000730B43513
:101F1800B50DB60DB70D890B8B2F3708AB003608FA
:101F2800AA003508A9003408A800883197208F3105
:101F3800200027082200A700200026082200A6006B
:101F4800200025082200A500200024082200A40063
:101F58000030840083308500003F2000A400013F4A
:101F6800A500023FA600033FA7000030F90000309B
:101F7800F8000830F7009830F60006308400833007
:101F88008500003FB200013FB3003208F200330879
:101F9800F300890D893B8909F400F50097319A27E8
:101FA8008F3172082000B4007308B5007408B600B9
:101FB8007508B7000730B435B50DB60DB70D890BE8
:101FC800DF2F3708AB003608AA003508A900340807
:101FD800A80088319720200027082200AB002000A5
:101FE80026082200AA00200025082200A9002000B7
:081FF80024082200A8000800E3
:102ADC009531D5250800F80078088E316926080054
:102AEC0022009817103099000800200011132100C3
:102AFC001D14111708008F3133279531963130266C
:102B0C000800FE0012001E00FE0B882D003464002D
:102B1C0080010131890B8E2D003420008C160A3077
:102B2C00F2000030F3009631C82608002000280877
:102B3C0027042604031908008030A806080020008A
:102B4C00970196010330250092004130910021003D
:102B5C00111508008D31A225953189314A21953105
:102B6C008C31EB24953183310E23080021008C1419
:102B7C00CB30F20072088C058E16E030F200720831
:102B8C008E0508002100BA01B2019531B0259531AE
:102B9C000A30F2000030F3009631C82608000130EC
:102BAC00F2000030F3009631C826953120008E1EBD
:102BBC00E12D0130080000300800963117269531C0
:102BCC009531F2259531963102269531963169264B
:102BDC0095319531932508006D30F2007208210073
:102BEC00AE000030AD000030AC000030AB00003067
:102BFC00AA00AF01AF0A08000330F20072082100EE
:102C0C00B000B1010F30F2007208B2000030B60013
:102C1C000030B5000030B4001030B300B701B8017B
:102C2C00080000302100A3000030A2000030A100F9
:102C3C000030A0000F30F2007208A400A501A6011C
:102C4C000230F2007208A700A8010230F2007208EC
:102C5C00A90008009531BC2596319531E3259631B4
:102C6C0008302000C1009B30C0003730BF007030EE
:102C7C00BE008431722496319531B02596310A30DC
:102C8C00F2000030F3009631C82608002000A8019D
:102C9C00A9012608280784002708293D850000087B
:102CAC000038031908002608280784002708293D46
:102CBC008500000895317125963101302000A80758
:102CCC000030A93D4F2E2100B901BA01BB01BB0A4E
:102CDC00BC01BC0A0330F2007208BD00BE01BF018A
:102CEC00C0010330F2007208C100C2010630F200CC
:102CFC007208C3000430F2007208C400C501C6019A
:102D0C000800433455344234453459345934003472
:102D1C000534433455344234453458345834003433
:102D2C000734103416341C341F341F341C3416343E
:102D3C001034093403340034003403340934F400FF
:102D4C007408F200F30172082100CF067308D00654
:102D5C004F1CBD2E5008F3004F08F200F336F20C56
:102D6C0008307206CF0084307306D000080050087B
:102D7C00F3004F08F200F336F20C7208CF00730820
:102D8C00D0000800F601F7019531762596317F3099
:102D9C00F40074088B05F601F70173087702031D24
:102DAC00D92E720876020318E92E0B30F50062302A
:102DBC00F400F40BDF2EF50BDF2E00000130F607CC
:102DCC000030F73DD32EC030F40074088B0408009B
:102DDC002000A0000C112008F8007808A100A20126
:102DEC000830220203180800A11FFE2E0E15FF2E1C
:102DFC000E110310A10D0C150130F2000030F30080
:102E0C009631C826963120000C110130F2000030AA
:102E1C00F3009631C82696310130F800780820006E
:102E2C00A207F62E22002708B3002608B2002508B8
:102E3C00B1002408B0000030AF000030AE0000300C
:102E4C00AD000030AC0000302100CE000030CD00D1
:102E5C000030CC000030CB00FB01D301D30A883109
:102E6C00282097316430F2000030F3009631C826E8
:102E7C0097318731FB2708008E302000A4002408EE
:102E8C00A500FF3023050319572F0130A336A20CE0
:102E9C00A10CA00C890B4C2F0130A4002408A50711
:102EAC00472F2008F2002108F3002208F40025081F
:102EBC00A4002408F500F6018831EA2072082000ED
:102ECC00A0007308A1007408A20008002100990159
:102EDC00F030F200720899049801951295152000B3
:102EEC00181499139813181398161816250093157F
:102EFC00131193149310220098169811181118108E
:102F0C0023008C148330F200720821009D051D15DE
:102F1C001E119E101E101E179E161E129E17C030DC
:102F2C00F20072088B04080000302000A30000306F
:102F3C00A2000030A1000030A000721CAE2F760859
:102F4C002000A0077708A13D7808A23D7908A33D91
:102F5C000130F635F70DF80DF90D890BAF2F013057
:102F6C00F536F40CF30CF20C890BB62F75087404BF
:102F7C0073047204031DA32F20002308F5002208FC
:102F8C00F4002108F3002008F20008002000A9003A
:102F9C00AA012908A0002008F2007908A100A201CA
:102FAC002108F3002208F4002530883100209731E5
:102FBC002000AA0179082A0203180800FF307907BB
:102FCC00A00025302007A1002A03FF3A2107A20008
:102FDC002208860087010108A3002A082907A400FB
:102FEC00240886008701230881000130A0002008F6
:042FFC00AA07E02F11
:020000040001F9
:04000E00E4FFFFFF0D
:00000001FF
