:0400000080314828DB
:100008007E14803120007F08F1007F30F0007008F6
:100018008B05111F1A2821001C08F0007008D50054
:100028001B08F0007008D60020001113111D2A28A3
:1000380001302100CF070030D03D20009701960104
:10004800FB30F0007008910521009D140B1D42281B
:100058007B08003E840081300318013E85000008BB
:10006800220099000130F0007008FB077B08193A5C
:100078000319FB01FB30F00070088B058B17710822
:100088002000FF007E10090080314A28F0308400EB
:10009800213085000030FE000230FF0095318A25AE
:1000A8008031FA01FB01EF01A030840000308500A7
:1000B8003B30FE000030FF0095318A25803120302A
:1000C8008400013085002030FE000030FF009531AB
:1000D8008A25803172308400963085004030860051
:1000E800013087000030FF001E3095317E257E10DC
:1000F80020008B31152BC830F7000030F8009531FF
:100108005A258031210028082000EB00EC016B08FB
:100118002100DB0020006C082100DC0043082000DF
:10012800EB00EC016B082100DD0020006C082100C9
:10013800DE00B901B90A05302000EB006B08210088
:10014800C1009531662580310530F7000030F80090
:1001580095315A2580318731FD278031003A031DBA
:10016800080021005B082000EB006B082100A800B4
:100178005D082000EB006B082100C300053020005B
:10018800EB006B082100C1009531662580310530F0
:10019800F7000030F80095315A25803101302100F0
:1001A800DD070030DE3D0E305D065E04031DAF281E
:1001B8000130DD000030DE000130DB070030DC3DBF
:1001C80004305B065C04031DAF28A801053020003D
:1001D800EB006B082100C30008009531E72580314A
:1001E8009531B12580319531D2258031963154260B
:1001F800803195313D2508007F3481348234843440
:100208008534873488348A348B348D348F349034F1
:100218009234933495349634983499349B349C347E
:100228009E349F34A134A334A434A634A734A8340C
:10023800AA34AB34AD34AE34B034B134B334B4349E
:10024800B634B734B834BA34BB34BC34BE34BF3433
:10025800C134C234C334C534C634C734C834CA34CC
:10026800CB34CC34CD34CF34D034D134D234D3346D
:10027800D534D634D734D834D934DA34DB34DC3412
:10028800DD34DF34E034E134E234E334E434E434BC
:10029800E534E634E734E834E934EA34EB34EC3472
:1002A800EC34ED34EE34EF34EF34F034F134F2342E
:1002B800F234F334F434F434F534F534F634F734F2
:1002C800F734F834F834F934F934F934FA34FA34C0
:1002D800FB34FB34FB34FC34FC34FC34FD34FD3497
:1002E800FD34FD34FE34FE34FE34FE34FE34FE3478
:1002F800FE34FE34FE34FE34FF34FE34FE34FE3465
:10030800FE34FE34FE34FE34FE34FE34FE34FD3456
:10031800FD34FD34FD34FC34FC34FC34FB34FB3454
:10032800FB34FA34FA34F934F934F934F834F8345B
:10033800F734F734F634F534F534F434F434F3346C
:10034800F234F234F134F034EF34EF34EE34ED3487
:10035800EC34EC34EB34EA34E934E834E734E634AA
:10036800E534E434E434E334E234E134E034DF34D3
:10037800DD34DC34DB34DA34D934D834D734D63409
:10038800D534D334D234D134D034CF34CD34CC3442
:10039800CB34CA34C834C734C634C534C334C23481
:1003A800C134BF34BE34BC34BB34BA34B834B734C7
:1003B800B634B434B334B134B034AE34AD34AB3411
:1003C800AA34A834A734A634A434A334A1349F345F
:1003D8009E349C349B3499349834963495349334B1
:1003E800923490348F348D348B348A348834873403
:1003F80085348434823481347F347D347C347A3457
:100408007934773476347434733471346F346E34A9
:100418006C346B34693468346634653463346234FC
:1004280060345F345D345B345A345834573456344E
:1004380054345334513450344E344D344B344A349C
:1004480048344734463444344334423440343F34E7
:100458003D343C343B34393438343734363434342E
:100468003334323431342F342E342D342C342B346D
:1004780029342834273426342534243423342234A8
:1004880021341F341E341D341C341B341A341A34DE
:100498001934183417341634153414341334123408
:1004A8001234113410340F340F340E340D340C342C
:1004B8000C340B340A340A34093409340834073448
:1004C800073406340634053405340534043404345A
:1004D8000334033403340234023402340134013463
:1004E8000134013400340034003400340034003462
:1004F8000034003400340034003400340034003454
:100508000034003400340034003400340034013442
:100518000134013401340234023402340334033424
:1005280003340434043405340534053406340634FD
:10053800073407340834093409340A340A340B34CC
:100548000C340C340D340E340F340F341034113491
:10055800123412341334143415341634173418344E
:1005680019341A341A341B341C341D341E341F3405
:1005780021342234233424342534263427342834AF
:1005880029342B342C342D342E342F343134323456
:100598003334343436343734383439343B343C34F7
:1005A8003D343F3440344234433444344634473491
:1005B80048344A344B344D344E3450345134533427
:1005C80054345634573458345A345B345D345F34B9
:1005D80060346234633465346634683469346B3447
:1005E8006C346E346F3471347334743476347734D5
:1005F80079347A347C347D34A03486340134003440
:10060800B034043400340234483445344C344C3467
:100618004F340034210046080F392000AB00AC01EC
:10062800AD01AE011C30AB35AC0DAD0DAE0D890B77
:10063800172B210045081F392000AF00B001B10178
:10064800B2011730AF35B00DB10DB20D890B262BA5
:100658002100440807392000B300B401B501B601F0
:100668001430B335B40DB50DB60D890B352B2100FB
:1006780043080F392000B700B801B901BA0110309A
:10068800B735B80DB90DBA0D890B442B21004208B6
:1006980001392000BB00BC01BD01BE010F30BB35D4
:1006A800BC0DBD0DBE0D890B532B210041080F3920
:1006B8002000BF00C001C101C2010B30BF35C00D11
:1006C800C10DC20D890B622B2100400801392000A1
:1006D800C300C401C501C6010A30C335C40DC50D28
:1006E800C60D890B712B21003F0801392000C70076
:1006F800C801C901CA010930C735C80DC90DCA0DDD
:10070800890B802B21003E0801392000CB00CC0149
:10071800CD01CE010830CB35CC0DCD0DCE0D890BDA
:100728008F2B21003D0803392000CF00D001D101D3
:10073800D2010630CF35D00DD10DD20D890B9E2BAD
:1007480021003C0801392000D300D401D501D6018D
:100758000530D335D40DD50DD60D890BAD2B210021
:100768003B0801392000D700D801D901DA0104304B
:10077800D735D80DD90DDA0D890BBC2B21003A08D5
:1007880001392000DB00DC01DD01DE010330DB354F
:10079800DC0DDD0DDE0D890BCB2B2100390801396D
:1007A8002000DF00E001E101E2010230DF35E00D69
:1007B800E10DE20D890BDA2B5F08DB046008DC042D
:1007C8006108DD046208DE045B08D7045C08D8040D
:1007D8005D08D9045E08DA045708D3045808D4041D
:1007E8005908D5045A08D6045308CF045408D0042D
:1007F8005508D1045608D2044F08CB045008CC043D
:100808005108CD045208CE044B08C7044C08C8044C
:100818004D08C9044E08CA044708C3044808C4045C
:100828004908C5044A08C6044308BF044408C0046C
:100838004508C1044608C2043F08BB044008BC047C
:100848004108BD044208BE043B08B7043C08B8048C
:100858003D08B9043E08BA043708B3043808B4049C
:100868003908B5043A08B6043308AF043408B004AC
:100878003508B1043608B2042F08AB043008AC04BC
:100888003108AD043208AE0403302B04E700003011
:100898002C04E80000302D04E90000302E04EA00A2
:1008A8006730AB002B08F2000430F3000030F4008E
:1008B800633096319026833104302000AB002B083A
:1008C800F900633097319627833104302000AB005C
:1008D8002B08A30063308831262008002100A901D5
:1008E800183020004102031D832C70304002031D84
:1008F800832C1A303F02031D832C80303E020318DC
:10090800882C2100A901A90A0C3020004102031DEE
:10091800972C84304002031D972C58303F02031D4A
:10092800972C80303E0203189E2C0230C2004208E9
:100938002100A900073020004102031DAD2CBF3063
:100948004002031DAD2CA4303F02031DAD2C8030A6
:100958003E020318B42C0330C20042082100A9004B
:10096800210024082000C200C301C401C5014508B4
:10097800F5004408F4004308F3004208F20001308F
:10098800F9003130F8002D30F7000030F6008931D9
:100998008321843175082000D3007408D2007308BD
:1009A800D1007208D0005308A7005208A6005108C9
:1009B800A5005008A4004108AB004008AA003F0861
:1009C800A9003E08A80088315F208431200027084C
:1009D800D7002608D6002508D5002408D4005308D7
:1009E800A3005208A2005108A1005008A0009731A6
:1009F8000C27843120002008A6002108A70022081F
:100A0800A8004108A3004008A2003F08A1003E0832
:100A1800A00097310C27843120002008A900210864
:100A2800AA002208AB008731542784312000260809
:100A3800CA002708CB002808CC004A08A9004B08A0
:100A4800AA004C08AB005708A3005608A200550896
:100A5800A1005408A00097310C27843120002008F9
:100A6800A6002108A7002208A80095314625843150
:100A780020002608AC002708AD002808AE00853104
:100A88008425843120002908CD002A08CE002B08AF
:100A9800CF004D08A3004E08A4004F08A500003061
:100AA800A0008030A1004530A2008C312B24843175
:100AB80020002008B0002108B1002208B2008A31C5
:100AC800052220003308C9003208C8003108C700D1
:100AD8003008C6005408C20042082100AE002000B9
:100AE80049082100AD00200048082100AC00200082
:100AF80047082100AB00200046082100AA00080092
:100B080020002908AF002A08B0002B08B100031004
:100B1800300D310DB2003208B5002C08AF002D0899
:100B2800B0002E08B1000310300D310DB2003208AC
:100B3800B40035080319AC2D340835020318B32D59
:100B48003503FF3A3407AF0019302F02031CB32DC9
:100B58002C08A9002D08AA002E08AB0008003408AC
:100B680003190800350834020318C22D3403FF3A6C
:100B78003507AF0019302F02031808000630AF0000
:100B88002F08B300AB1BB317AE1B3317AA17FF30E0
:100B9800A905FF30AA050030AB05AD17FF30AC053D
:100BA800FF30AD050030AE05340835020318FE2DC0
:100BB8000130AC35AD0DAE0D890BDD2D0130B40221
:100BC800340835060319F92D0130B3023308073903
:100BD8000319F92DDC2D0130AB36AA0CA90C890BB1
:100BE800F02D0130AF002F08B5073508340603197A
:100BF800232EEF2D350834020318232E0130A93592
:100C0800AA0DAB0D890B032E0130B5023408350649
:100C180003191F2E0130B3023308073903191F2E99
:100C2800022E0130AE36AD0CAC0C890B162E0130FD
:100C3800AF002F08B40735083406031D152EB31F5F
:100C4800352EFF30A906FF30AA06FF30AB0601306B
:100C5800A907003003180130AA0700300318013033
:100C6800AB07331F472EFF30AC06FF30AD06FF3011
:100C7800AE060130AC07003003180130AD07003074
:100C880003180130AE07B3012908AC072A08AD3DA7
:100C98002B08AE3DAE1F622EFF30AC06FF30AD060E
:100CA800FF30AE060130AC07003003180130AD0745
:100CB800003003180130AE07B301B30A2C08F20064
:100CC8002D08F3002E08F4003508AF002F08F500B2
:100CD8003308B0003008F6008831B22072082000CE
:100CE800A9007308AA007408AB0008002000AD0032
:100CF80000302100CA000030C9000030C8000030B0
:100D0800C7002200BE01BF01FF302100D100FF3023
:100D1800D2002000B001B1013108803AAA00803029
:100D28002A02031D992E643030020318AE2E8A3130
:100D38008C22863101302000B0070030B13D3108E7
:100D4800803AAA0080302A02031DAC2E643030029B
:100D5800031C9B2E2000B001B1013108803AAA0083
:100D680080302A02031DBA2E033030020318CF2E1A
:100D78008B319F23863101302000B0070030B13D10
:100D88003108803AAA0080302A02031DCD2E033094
:100D98003002031CBC2E2000B001B1013108803A9A
:100DA800AA002908803A2A02031DDC2E28083002EE
:100DB80003184C2F2000AE01AF012F08803AAA007B
:100DC80080302A02031DEA2E06302E020318112F46
:100DD80020003008AA000230AA35FF3E031DF02E7D
:100DE8002A352D07AB002E082B07AC002C088600EF
:100DF800870101358F312A27863101302000AE075F
:100E08000030AF3D2F08803AAA0080302A02031D27
:100E18000F2F06302E02031CEC2E20002808FF3E60
:100E2800AA00FF30293DAB0031082B06031D1E2FF9
:100E380030082A06031D322F3008AA000230AA35CE
:100E4800FF3E031D232F2A352D07AB002B08073E35
:100E5800860087010135603E0138432F20003008A5
:100E6800AA000230AA35FF3E031D362F2A352D076A
:100E7800AB002B08073E860087010135603E8F31A5
:100E88002A27863101302000B0070030B13DD22E2C
:100E980003308F312A278631F0308F312A27080016
:100EA80020002908AC002A08AD002B08AE0003106A
:100EB8002D0D2E0DAF002F08B400B408031D6B2FA5
:100EC8000030A6000030A7000030A800080026085F
:100ED800AC002708AD002808AE0003102D0D2E0D1C
:100EE800AF002F08B500B508031D812F0030A600FC
:100EF8000030A7000030A80008000030B100003022
:100F0800B2000030B30089303507AC002C08B402B9
:100F18002908AC002A08AD002B08AE001030AE3608
:100F2800AD0CAC0C890B932F2C08AF002F08B50023
:100F38002608AC002708AD002808AE001030AE36F1
:100F4800AD0CAC0C890BA32F2C08AF002F08B506ED
:100F58008030AC002C08B505AA17FF30A905FF3072
:100F6800AA050030AB05A717FF30A605FF30A70577
:100F78000030A8051830AC002C08B0000130B1359D
:100F8800B20DB30D890BC32F28082B02031DD22FD6
:100F980027082A02031DD22F26082902031CDB2F4B
:100FA8002608A9022708AA3B2808AB3B31140130C0
:100FB800A935AA0DAB0D890BDC2F0130B002031D3A
:100FC800C22F3108F2003208F3003308F400340865
:100FD800AC002C08F5003508AD002D08F600883166
:100FE800B22072082000A6007308A7007408A800A1
:080FF80008009531A325080053
:10100600F4007408F200F30172082100D106730897
:10101600D206511C1B285208F3005108F200F33681
:10102600F20C08307206D10084307306D200080034
:101036005208F3005108F200F336F20C7208D100A0
:101046007308D20008002000A500A6010130F700B1
:101056000030F80095315A25883120000C120130F5
:10106600F7000030F80095315A2588312000A60196
:101076002308260203184F2826082507A40024085B
:101086008600870101089631B82688310130200094
:10109600A4002408A6073B280130F7000030F8001A
:1010A60095315A25883120000C160130F7000030A2
:1010B600F80095315A25080000302000B0000030B5
:1010C600AF000030AE000030AD002708260425042E
:1010D60024040319A928B101B10AA71B7E280130EF
:1010E600A435A50DA60DA70D890B73280130AC00FC
:1010F6002C08B10770280130AD35AE0DAF0DB00D1F
:10110600890B7F2827082B02031D932826082A020D
:10111600031D932825082902031D93282408280265
:10112600031C9E282408A8022508A93B2608AA3BDA
:101136002708AB3B2D140130A736A60CA50CA40C32
:10114600890B9F280130B102031D7E283008A700B5
:101156002F08A6002E08A5002D08A4000800750873
:101166000319BA28740873047204031DCB280030CF
:10117600F2000030F3000030F40008000130F70000
:101186007708F5070130F436F30CF20C890BC62804
:10119600FE3074050319E428C1280130F7007708EA
:1011A600F5070130F207003003180130F30700306D
:1011B60003180130F4070130F436F30CF20C890BF6
:1011C600DF28FF3074050319F128D0280130F50215
:1011D6000130F235F30DF40D890BEC28F31FE928E5
:1011E6007518FB28FF30F2057F30F305FF30F40554
:1011F6000310F50C7508F700F801F9011030F73502
:10120600F80DF90D890B02297708F2047808F30422
:101216007908F404760803190800F4170800210079
:101226002F0801392000AB00AC01AD01AE0116302C
:10123600AB35AC0DAD0DAE0D890B1B2921002E086B
:101246002000AF00B001B101B2010E30AF35B00DD4
:10125600B10DB20D890B29290A30A03E86008701FF
:10126600FF300105B30041310F300105B4004131B3
:1012760000300105B500413100300105B6000230ED
:10128600B335B40DB50DB60D890B43293308AF043C
:101296003408B0043508B1043608B2042F08AB048C
:1012A6003008AC043108AD043208AE0401302B041A
:1012B600BA0000302C04BB0000302D04BC00003006
:1012C6002E04BD003A30AB002B08F2000330F300C9
:1012D6000030F400373096319026893103302000F3
:1012E600AB002B08F9003730973196278931033048
:1012F6002000AB002B08A3003730883126200800D9
:101306002000A201F51F9429F209F309F409F50951
:10131600F20A0319F30A0319F40A0319F50AA201DA
:10132600A20AF91FA529F609F709F809F909F60A23
:101336000319F70A0319F80A0319F90A0130A0007C
:101346002008A2060030A6000030A5000030A40048
:101356000030A30075087404730472040319EE299F
:10136600A101A10AF51BC3290130F235F30DF40DD5
:10137600F50D890BB8290130A0002008A107B52971
:101386000130A335A40DA50DA60D890BC42975083A
:101396007902031DD82974087802031DD829730819
:1013A6007702031DD82972087602031CE329720806
:1013B600F6027308F73B7408F83B7508F93B2314EB
:1013C6000130F536F40CF30CF20C890BE4290130EC
:1013D600A102031DC32922080319FC29A309A40994
:1013E600A509A609A30A0319A40A0319A50A03193C
:1013F600A60A2608F5002508F4002408F3002308A9
:10140600F200080020003008B4003108B5003208A8
:10141600B6000310350D360DB7003708BD00BD0800
:10142600031D1E2A0030B3000030B2000030B100A8
:101436000030B00008003008B4003108B5003208AA
:10144600B6001730B636B50CB40C890B252A34080D
:10145600B7003708B800B117FF30B005FF30B10547
:101466000030B2053008B9003108BA003208BB00B6
:10147600BC018E30BD02BD1F5C2A3D08803A8F3EFE
:1014860003184E2A0030B3000030B2000030B1001D
:101496000030B00008000130BC36BB0CBA0CB90CE9
:1014A600890B4F2A0130B4003408BD070319752A89
:1014B6004E2A18303D02031C722A0030B300003059
:1014C600B2000030B1000030B00008000130B9357C
:1014D600BA0DBB0DBC0D890B6A2A0130BD02BD08D1
:1014E600031D692A38080319832AB909BA09BB09F1
:1014F600BC09B90A0319BA0A0319BB0A0319BC0ABB
:101506003C08B3003B08B2003A08B1003908B00005
:1015160008002000A001A101A2012208803AF200E1
:1015260080307202083003192102031808000030C7
:1015360021004A02031DA92A00304902031DA92AD7
:1015460010304802031DA92A00304702031808007C
:1015560020002008F200210AB12AF236890BB02AAF
:10156600721CDD2A0130F200210047080739890A7A
:10157600BD2AF235890BBC2A7208F3004708F4002D
:101586004808F5004908F6004A08F7000330F73620
:10159600F60CF50CF40C890BCA2AF030F800213051
:1015A600F9007408780786007508793D8700730886
:1015B6008104052B0130F200210047080739890A0A
:1015C600E52AF235890BE42A7208FF3AF300470848
:1015D600F4004808F5004908F6004A08F700033009
:1015E600F736F60CF50CF40C890BF32AF030F800FC
:1015F6002130F9007408780786007508793D870060
:101606007308810501302000A1070030A23D01309A
:101616002100C7070030C83D0030C93D0030CA3D33
:101626002000902A973136278B3121001A1C182B5F
:10163600953172258B3195312C258B3195314F257E
:101646008B31953127258B31953131258B31200012
:101656008C120A30F7000030F80095315A258B318C
:1016660020000C160A30F7000030F80095315A2594
:101676008B3120008C160A30F7000030F8009531C7
:101686005A258B31C830F7000030F80095315A25BD
:101696008B314030860001308700DF308400003017
:1016A600850010302000EE0016001A00EE0B572BB6
:1016B6000230A8000030A900DF3086317A268B314F
:1016C60008302000A8008330A900963137268B31D8
:1016D600963100268B31953137258B316430F700F2
:1016E6000030F80095315A258B3120008E11643078
:1016F600F7000030F80095315A258B319731CA270B
:101706008B312100540803198D2B953196258B3189
:101716002100D4019631E2268B31C830F700003023
:10172600F80095315A258B310A30F7000030F80061
:1017360095315A258B31842B7E30F20072082000B9
:10174600A000A101A2012208803AF20080307202B4
:1017560008300319210203180800003021004A024C
:10176600031DBF2B00304902031DBF2B103048025A
:10177600031DBF2B00304702031808002000200875
:10178600F200210AC72BF236890BC62B721CF32BEB
:101796000130F200210047080739890AD32BF235B8
:1017A600890BD22B7208F3004708F4004808F500AD
:1017B6004908F6004A08F7000330F736F60CF50C30
:1017C600F40C890BE02BF030F8002130F900740896
:1017D600780786007508793D8700730881041B2CFD
:1017E6000130F200210047080739890AFB2BF23540
:1017F600890BFA2B7208FF3AF3004708F4004808F1
:10180600F5004908F6004A08F7000330F736F60CEB
:10181600F50CF40C890B092CF030F8002130F90096
:101826007408780786007508793D87007308810576
:1018360001302000A1070030A23D01302100C7077A
:101846000030C83D0030C93D0030CA3D2000A62BFF
:1018560020002008A6002108A7002208A8000310DF
:10186600270D280DA9002908AA00AA08031D422C45
:101876000030A0000030A1000030A20008002308BC
:10188600A6002408A7002508A8000310270D280D88
:10189600A9002908AF00AF08031D582C0030A0008E
:1018A6000030A1000030A20008002F087B3EA600F1
:1018B6002608AA072008A6002108A7002208A800D3
:1018C6001030A836A70CA60C890B642C2608A90094
:1018D6002908AF002308A6002408A7002508A800A9
:1018E6001030A836A70CA60C890B742C2608A90064
:1018F6002908AF068030A6002608AF05A117A41751
:10190600FF30A305FF30A4050030A5050030AB006D
:101916000030AC000030AD000730A6002608AE004F
:10192600201C9B2C2308AB072408AC3D2508AD3DA5
:101936000130A236A10CA00C890B9C2C0130A335DA
:10194600A40DA50D890BA22C0130AE02031D932C0C
:101956000930A6002608AE00201CB72C2308AB07CA
:101966002408AC3D2508AD3D0130A236A10CA00CE3
:10197600890BB82C0130AD36AC0CAB0C890BBE2CE8
:101986000130AE02031DAF2C2B08F2002C08F30029
:101996002D08F4002A08A6002608F5002F08A7003F
:1019A6002708F6008831B22072082000A0007308CC
:1019B600A1007408A200080021003808033920009D
:1019C600AB00AC01AD01AE011730AB35AC0DAD0DC2
:1019D600AE0D890BE82C2100370807392000AF002F
:1019E600B001B101B2011430AF35B00DB10DB20D79
:1019F600890BF72C1330A03E86008701FF300105C6
:101A0600B300413101300105B40041310030010518
:101A1600B500413100300105B6000B30B335B40DC9
:101A2600B50DB60D890B112D210032083F39200066
:101A3600B700B801B901BA010530B735B80DB90D0F
:101A4600BA0D890B202D2100310801392000BB0079
:101A5600BC01BD01BE010430BB35BC0DBD0DBE0DC4
:101A6600890B2F2D2100300803392000BF00C0014B
:101A7600C101C2010230BF35C00DC10DC20D890BB7
:101A86003E2D3F08BB044008BC044108BD04420883
:101A9600BE043B08B7043C08B8043D08B9043E0838
:101AA600BA043708B3043808B4043908B5043A0848
:101AB600B6043308AF043408B0043508B104360858
:101AC600B2042F08AB043008AC043108AD04320868
:101AD600AE0402302B04C70000302C04C8000030CE
:101AE6002D04C90000302E04CA004730AB002B0875
:101AF600F2000430F3000030F400433096319026B3
:101B06008C3104302000AB002B08F90043309731AC
:101B160096278C3104302000AB002B08A3004330FD
:101B26008831262008002100290803392000AB004F
:101B3600AC01AD01AE011930AB35AC0DAD0DAE0D3E
:101B4600890B9F2D2100280803392000AF00B00122
:101B5600B101B2011730AF35B00DB10DB20D890B21
:101B6600AE2D210027080F392000B300B401B501BE
:101B7600B6011330B335B40DB50DB60D890BBD2DB9
:101B86002100260801392000B700B801B901BA01C1
:101B96001230B735B80DB90DBA0D890BCC2D210011
:101BA600250801392000BB00BC01BD01BE01113072
:101BB600BB35BC0DBD0DBE0D890BDB2D21002408E8
:101BC6000F392000BF00C001C101C2010D30BF3571
:101BD600C00DC10DC20D890BEA2DFF302100200575
:101BE6002000C3000730210021052000C40000307A
:101BF600210022052000C500003021002305200019
:101C0600C6000230C335C40DC50DC60D890B052EA1
:101C16004308BF044408C0044508C1044608C2047A
:101C26003F08BB044008BC044108BD044208BE048A
:101C36003B08B7043C08B8043D08B9043E08BA049A
:101C46003708B3043808B4043908B5043A08B604AA
:101C56003308AF043408B0043508B1043608B204BA
:101C66002B082F04CB002C083004CC002D0831049F
:101C7600CD002E083204CE004B30AB002B08F2000C
:101C86000430F3000030F4004730963190268D3151
:101C960004302000AB002B08F90047309731962717
:101CA6008D3104302000AB002B08A300473088316B
:101CB600262008000430840083308500003F200081
:101CC600B200013FB3003208A4003308A500890D15
:101CD600893B8909A600A70000308400833085006F
:101CE600003FA800013FA900023FAA00033FAB0046
:101CF60088315F208E3120002408B4003408EF00BC
:101D06000030840083308500003FA400013FA50019
:101D1600023FA600033FA7000030F9000030F8009C
:101D26000430F700B030F6000630840083308500BA
:101D3600003FB200013FB3003208F2003308F3005F
:101D4600890D893B8909F400F500973164278E31A6
:101D560072082000B4007308B5007408B600750850
:101D6600B7000730B435B50DB60DB70D890BB52ED6
:101D76003708AB003608AA003508A9003408A800C1
:101D860088315F208E31200027082200A70020001E
:101D960026082200A600200025082200A500200013
:101DA60024082200A4000030840083308500003F10
:101DB6002000A400013FA500023FA600033FA700A4
:101DC6000030F9000030F8000830F7009830F600CF
:101DD6000630840083308500003FB200013FB30027
:101DE6003208F2003308F300890D893B8909F400B3
:101DF600F500973164278E3172082000B40073080D
:101E0600B5007408B6007508B7000730B435B50DCF
:101E1600B60DB70D890B092F3708AB003608AA0097
:101E26003508A9003408A80088315F20200027085B
:101E36002200AB00200026082200AA002000250868
:101E46002200A900200024082200A8000800F500AE
:101E5600F601F7017708803A2000A00080302002C2
:101E66000830031976020318080075082000A00040
:101E7600760A3E2FA036890B3D2F2008013988317E
:101E860003208F3175082000A000760A4B2FA0365C
:101E9600890B4A2F201CAC2F003021004A02031D5B
:101EA6005E2F00304902031D5E2F10304802031DCD
:101EB6005E2F003047020318080001302000A00002
:101EC600210047080739890A20006A2FA035890BA7
:101ED600692F2008A100210047082000A200210048
:101EE60048082000A300210049082000A400210082
:101EF6004A082000A5000330A536A40CA30CA20CAA
:101F0600890B7F2FF030A6002130A7002208260774
:101F160086002308273D870021088104013021001F
:101F2600C7070030C83D0030C93D0030CA3D01300A
:101F36002200BE070030BF3D3F08803A2000A000C7
:101F460080302002031DAA2F053022003E02031C0A
:101F5600FB2F003021004A02031DBB2F003049022F
:101F6600031DBB2F10304802031DBB2F0030470254
:101F76000318080001302000A00021004708073997
:101F8600890A2000C72FA035890BC62F2008FF3AE3
:101F9600A100210047082000A200210048082000D7
:101FA600A300210049082000A40021004A082000BF
:101FB600A5000330A536A40CA30CA20C890BDD2FBB
:101FC600F030A6002130A700220826078600230845
:101FD600273D87002108810501302100C707003011
:101FE600C83D0030C93D0030CA3D2200BE01BF01D8
:0A1FF6000130F6070030F73D2D2FF3
:102A4400F80078088F312A270800220098171030E0
:102A540099000800200095010B118B160800200036
:102A6400111321001D14111708008E315D269531B4
:102A740096311B26080020008C160A30F70000301F
:102A8400F80095315A250800200028082704260458
:102A9400031908008030A806080020009701960159
:102AA40003302500920041309100210011150800E7
:102AB4002100CF01D00177089531C12595317308E4
:102AC4007204031908005D2D8D31962595318931E5
:102AD400122195318C31DF24953183310E23080086
:102AE40021008C14CB30F20072088C058E16E03075
:102AF400F20072088E050800FE0012001E0001306C
:102B0400FE020030FF3B7F087E04031900347F2D52
:102B14006400800101310130FE020030FF3B7F0878
:102B24007E04031900348B2D2100BA01B2019531C2
:102B3400662595310A30F7000030F80095315A25A2
:102B440008000130F7000030F80095315A2595311E
:102B540020008E1EAF2D01300800003008006D30BB
:102B6400F20072082100AE000030AD000030AC006D
:102B74000030AB000030AA00AF01AF0A0800F60035
:102B840021004F09F4005009F500F40A0319F50A6D
:102B940076087407F20075080318750AF300080034
:102BA4000330F20072082100B000B1010F30F200CE
:102BB4007208B2000030B6000030B5000030B40036
:102BC4001030B300B701B801080000302100A300A1
:102BD4000030A2000030A1000030A0000F30F2004D
:102BE4007208A400A501A6010230F2007208A70031
:102BF400A8010230F2007208A9000800210052085E
:102C04002000A901A907210051082000A801A80754
:102C140028098F312A27963108302000A936A80CBC
:102C2400890B102E28098F312A2796318B319F2347
:102C340008009531722596318031F12096310830A3
:102C44002000C1009B30C0003730BF007030BE0090
:102C54008431722496319531662596310A30F70015
:102C64000030F80095315A2508002000AA01AB0174
:102C740028082A07840029082B3D8500000800380D
:102C84000319080028082A07840029082B3D850019
:102C9400000895312225963101302000AA07003022
:102CA400AB3D3A2E2100B901BA01BB01BB0ABC01FC
:102CB400BC0A0330F2007208BD00BE01BF01C001AE
:102CC4000330F2007208C100C2010630F20072083B
:102CD400C3000430F2007208C400C501C601080034
:102CE400433455344234453459345934003405346A
:102CF400433455344234453458345834003407345A
:102D0400103416341C341F341F341C34163410345D
:102D1400093403340034003403340934F8007208ED
:102D2400F5007508F7007808F5007508F60001301D
:102D3400F3020030F43BFF307406031DA32EFF3072
:102D44007306031908007708860087010108F50057
:102D5400760886008701750881000130F500750842
:102D6400F7070130F5007508F607992E2000A0003A
:102D74000C112008F9007908A100A20108302202F0
:102D840003180800A11FC82E0E15C92E0E1103101A
:102D9400A10D0C150130F7000030F80095315A25CB
:102DA400963120000C110130F7000030F800953105
:102DB4005A2596310130F90079082000A207C02E67
:102DC40022002708B3002608B2002508B100240811
:102DD400B0000030AF000030AE000030AD00003075
:102DE400AC0000302100CE000030CD000030CC001B
:102DF4000030CB00D701D301D30A9731CA279631CB
:102E04006430F7000030F80095315A259631953139
:102E14002C2508008E302000A4002408A500FF30D3
:102E240023050319212F0130A336A20CA10CA00CF9
:102E3400890B162F0130A4002408A507112F2008A0
:102E4400F2002108F3002208F4002508A400240855
:102E5400F500F6018831B22072082000A000730842
:102E6400A1007408A200080021009901F030F200CA
:102E74007208990498019512951520001814991355
:102E840098131813981618162500931513119314F4
:102E940093102200981698111811181023008C14FE
:102EA4008330F200720821009D051D151E119E102D
:102EB4001E101E179E161E129E17C030F2007208B6
:102EC4008B04080000302000A3000030A200003072
:102ED400A1000030A000721C782F76082000A00703
:102EE4007708A13D7808A23D7908A33D0130F63565
:102EF400F70DF80DF90D890B792F0130F536F40C27
:102F0400F30CF20C890B802F75087404730472049B
:102F1400031D6D2F20002308F5002208F40021086A
:102F2400F3002008F20008002000A900AA012908E3
:102F3400A0002008F2007908A100A2012108F300F2
:102F44002208F40025309631902697312000AA01FA
:102F540079082A0203180800FF307907A0002530F9
:102F64002007A1002A03FF3A2107A20022088600B5
:102F740087010108A3002A082907A4002408860061
:102F84008701230881000130A0002008AA07AA2F86
:102F94002100BA01B20103302000ED006D082100C8
:102FA400C1009531662597310A30F7000030F800EA
:102FB40095315A2597319531A32597310038031956
:102FC400080080317F2097312100BA01BA0A3F30CE
:102FD4002000ED006D082100B2000A30F700003037
:102FE400F80095315A25973195316625973101308E
:0C2FF400F7000030F80095315A25080065
:020000040001F9
:04000E00E4FFFFFF0D
:00000001FF
