:0400000080314528DE
:100008007E14803120007F08F1007F30F0007008F6
:100018008B05111F1C2821001C08F0007008200007
:10002800CC0021001B08F00070082000CD0011133F
:10003800111D2A280130CA070030CB3D97019601CF
:10004800FB30F0007008910521009D140B1D3F281E
:100058007908203E860087010108220099000130B6
:10006800F0007008F9077908193A0319F901FB300B
:10007800F00070088B058B1771082000FF007E10B8
:10008800090080314728F901FA01C801C901CA01EC
:10009800CB01CC01CD01CE01C13084008030850078
:1000A80020308600003087002830813136217E10CC
:1000B80020008031E92821009901F030F20072080F
:1000C80099049801951295152000181499139813FE
:1000D80018139816181625009315131193149310D6
:1000E8002200981698111811181023008C148330C8
:1000F800F200720821009D051D151E119E101E108C
:100108001E179E161E129E17C030F20072088B042E
:100118008C14CB30F20072088C058E16E030F20099
:1001280072088E0508002000CF000C114F08F80057
:100138007808D000D1010830510203180800D01FF8
:10014800A7280E15A8280E110310D00D0C15013084
:10015800F6000030F70081310E21803120000C11AB
:100168000130F6000030F70081310E218031013076
:10017800F80078082000D1079F2811341434183467
:100188001B341E3420342134213420341E341B34D3
:100198001834143411340D3409340634033401345A
:1001A8000034003401340334063409340D34103477
:1001B80016341C341F341F341C34163410340934DC
:1001C8000334003400340334093480315F20803133
:1001D80021001A1CEC2881314721803181312E21E0
:1001E800803181314221803181313C218031C830D8
:1001F800F6000030F70081310E2180310A30F60018
:100208000030F70081310E21803113308031972082
:10021800803102292000CA01CB017708F301F307D6
:100228007608F201F20781311F21813173087204C7
:1002380003190800112920004A09F4004B09F500A8
:10024800F40A0319F50A72087407F2007308753D79
:10025800F30008000330250092004130910021008E
:1002680011150800FE0012001E00FE0B372900348D
:100278002000111321001D141117080022009817DF
:0A0288001030990008008B160800E2
:020000040001F9
:04000E00E4FFFFFF0D
:00000001FF
