:0400000080313A28E9
:100008007E14803120007F08F8007F30F7007708E1
:100018008B05111F1B2821001C08F7007708CF004B
:100028001B08F7007708D000200011133528111D90
:100038002A2801302200B4070030B53D200097017E
:100048009601FB30F7007708910535280B1D3428F9
:1000580086312F268031FB30F70077088B0535284D
:100068008B1778082000FF007E10090080313C289B
:10007800F901FA01FB01FC01FD01EE01EF01A030DD
:1000880084000030850034308C3150248031203099
:1000980084000130850018308C3150248031A03024
:1000A80084000130850040308C3150248031BB30D1
:1000B80084008C308500383086000130870010308D
:1000C8008C314A247E1020008631CF2E210046082C
:1000D8000F392000B300B401B501B6011C30B335A7
:1000E800B40DB50DB60D890B7328210045081F39CD
:1000F8002000B700B801B901BA011730B735B80DFB
:10010800B90DBA0D890B822821004408073920004F
:10011800BB00BC01BD01BE011430BB35BC0DBD0D1B
:10012800BE0D890B9128210043080F392000BF001C
:10013800C001C101C2011030BF35C00DC10DC20DD3
:10014800890BA0282100420801392000C300C401FE
:10015800C501C6010F30C335C40DC50DC60D890BC9
:10016800AF28210041080F392000C700C801C90184
:10017800CA010B30C735C80DC90DCA0D890BBE2879
:100188002100400801392000CB00CC01CD01CE016F
:100198000A30CB35CC0DCD0DCE0D890BCD282100E5
:1001A8003F0801392000CF00D001D101D201093028
:1001B800CF35D00DD10DD20D890BDC2821003E089A
:1001C80001392000D300D401D501D6010830D33538
:1001D800D40DD50DD60D890BEB2821003D08033928
:1001E8002000D700D801D901DA010630D735D80D5B
:1001F800D90DDA0D890BFA2821003C0801392000B5
:10020800DB00DC01DD01DE010530DB35DC0DDD0D59
:10021800DE0D890B092921003B0801392000DF0088
:10022800E001E101E2010430DF35E00DE10DE20D0E
:10023800890B182921003A0801392000E300E4015C
:10024800E501E6010330E335E40DE50DE60D890B24
:1002580027292100390801392000E700E801E901D0
:10026800EA010230E735E80DE90DEA0D890B362978
:100278006708E3046808E4046908E5046A08E60412
:100288006308DF046408E0046508E1046608E20422
:100298005F08DB046008DC046108DD046208DE0432
:1002A8005B08D7045C08D8045D08D9045E08DA0442
:1002B8005708D3045808D4045908D5045A08D60452
:1002C8005308CF045408D0045508D1045608D20462
:1002D8004F08CB045008CC045108CD045208CE0472
:1002E8004B08C7044C08C8044D08C9044E08CA0482
:1002F8004708C3044808C4044908C5044A08C60492
:100308004308BF044408C0044508C1044608C204A1
:100318003F08BB044008BC044108BD044208BE04B1
:100328003B08B7043C08B8043D08B9043E08BA04C1
:100338003708B3043808B4043908B5043A08B604D1
:10034800033033042100D800003020003404210099
:10035800D9000030200035042100DA0000302000E8
:1003680036042100DB00D8302000B3003308A00099
:100378000430A1000030A200D4308D31D625803160
:1003880004302000B3003308A700D4308E31D626BD
:10039800803104302000B3003308AA00D4308E31F5
:1003A8009D2608002000B3000030FC000030FB0050
:1003B8000030FA000030F9002100C901CA01FF30FD
:1003C800C700FF30C8002000B401B5013508803AE5
:1003D800AE0080302E02031DF3290A3034020318C0
:1003E800082A83317523813101302000B407003099
:1003F800B53D3508803AAE0080302E02031D062A2E
:100408000A303402031CF5292000B401B50135086F
:10041800803AAE0080302E02031D142A03303402C5
:100428000318292A87315827813101302000B40761
:100438000030B53D3508803AAE0080302E02031DED
:10044800272A03303402031C162A2000B401B50100
:100458003508803AAE002D08803A2E02031D362A50
:100468002C0834020318A62A2000B101B201320870
:10047800803AAE0080302E02031D442A0630310235
:1004880003186B2A20003408AE000230AE35FF3E58
:10049800031D4A2A2E353307AF0031082F07B00055
:1004A800300886008701013585317B25813101308F
:1004B8002000B1070030B23D3208803AAE008030EB
:1004C8002E02031D692A06303102031C462A200029
:1004D8002C08FF3EAE00FF302D3DAF0035082F063B
:1004E800031D782A34082E06031D8C2A3408AE0012
:1004F8000230AE35FF3E031D7D2A2E353307AF008F
:100508002F08073E860087010135603E01389D2A85
:1005180020003408AE000230AE35FF3E031D902A9D
:100528002E353307AF002F08073E860087010135B7
:10053800603E85317B25813101302000B4070030D1
:10054800B53D2C2A033085317B258131F03085314A
:100558007B2508002100290803392000B300B401D5
:10056800B501B6011930B335B40DB50DB60D890B0B
:10057800B72A2100280803392000B700B801B901BB
:10058800BA011730B735B80DB90DBA0D890BC62A9F
:10059800210027080F392000BB00BC01BD01BE01A6
:1005A8001330BB35BC0DBD0DBE0D890BD52A2100FE
:1005B800260801392000BF00C001C101C201123064
:1005C800BF35C00DC10DC20D890BE42A21002508D5
:1005D80001392000C300C401C501C6011130C3356B
:1005E800C40DC50DC60D890BF32A210024080F3947
:1005F8002000C700C801C901CA010D30C735C80DA0
:10060800C90DCA0D890B022BFF30210020052000DF
:10061800CB000730210021052000CC00003021004C
:1006280022052000CD000030210023052000CE0047
:100638000230CB35CC0DCD0DCE0D890B1D2B4B08C3
:10064800C7044C08C8044D08C9044E08CA04470822
:10065800C3044808C4044908C5044A08C604430832
:10066800BF044408C0044508C1044608C2043F0842
:10067800BB044008BC044108BD044208BE043B0852
:10068800B7043C08B8043D08B9043E08BA04330866
:100698003704D30034083804D40035083904D500A9
:1006A80036083A04D6005330B3003308A0000430AB
:1006B800A1000030A2004F308D31D62582310430A0
:1006C8002000B3003308A7004F308E31D626823180
:1006D80004302000B3003308AA004F308E319D2625
:1006E80008002000A601A701A8012808803AA00058
:1006F8008030200208300319270203180800003050
:100708007C02031D912B00307B02031D912B0230CC
:100718007A02031D912B003079020318080020008B
:100728002608A000270A992BA036890B982B201C95
:10073800BF2B0130A00079080739890AA42BA035FE
:10074800890BA32B2008A1007908A2007A08A3002E
:100758007B08A4007C08A5000330A536A40CA30CD4
:10076800A20C890BB12B2208A03E8600013087001D
:1007780021088104E12B0130A00079080739890A92
:10078800C62BA035890BC52B2008FF3AA100790894
:10079800A2007A08A3007B08A4007C08A500033007
:1007A800A536A40CA30CA20C890BD42B2208A03EBE
:1007B800860001308700210881050130A707003035
:1007C800A83D0130F9070030FA3D0030FB3D00300C
:1007D800FC3D792B20008C120A30A0000030A100CB
:1007E8008D31AD25833120008C160A30A0000030F1
:1007F800A1008D31AD2508001034103411341134A6
:1008080012341234133413341434143415341534A4
:100818001634163417341734183418341934193474
:1008280019341A341A341B341B341B341C341C344A
:100838001C341D341D341D341D341E341E341E3426
:100848001E341E341E341F341F341F341F341F340B
:100858001F341F341F341F341F341F341F341F34F8
:100868001F341E341E341E341E341E341E341D34F0
:100878001D341D341D341C341C341C341B341B34EF
:100888001B341A341A3419341934193418341834F6
:100898001734173416341634153415341434143404
:1008A8001334133412341234113411341034103414
:1008B8000F340E340E340D340D340C340C340B3428
:1008C8000B340A340A340934093408340834073438
:1008D8000734063406340634053405340434043445
:1008E800043403340334033402340234023402344B
:1008F800013401340134013401340134003400344A
:10090800003400340034003400340034003400343F
:10091800003400340034003401340134013401342B
:10092800013401340234023402340234033403340F
:1009380003340434043404340534053406340634EA
:1009480006340734073408340834093409340A34BF
:100958000A340B340B340C340C340D340D340E348F
:100968000E340F3412347A3400340034B034043482
:10097800B6340034483445344C344C344F340034A5
:100988002100380803392000B300B401B501B601CD
:100998001730B335B40DB50DB60D890BCD2C21002C
:1009A800370807392000B700B801B901BA01143077
:1009B800B735B80DB90DBA0D890BDC2C1330A03E34
:1009C80086008701FF300105BB0041310130010578
:1009D800BC00413100300105BD0041310030010546
:1009E800BE000B30BB35BC0DBD0DBE0D890BF62C02
:1009F800210032083F392000BF00C001C101C201F7
:100A08000530BF35C00DC10DC20D890B052D210064
:100A1800310801392000C300C401C501C6010430F2
:100A2800C335C40DC50DC60D890B142D2100300822
:100A380003392000C700C801C901CA010230C735FF
:100A4800C80DC90DCA0D890B232D4708C3044808D2
:100A5800C4044908C5044A08C6044308BF04440836
:100A6800C0044508C1044608C2043F08BB04400846
:100A7800BC044108BD044208BE043B08B7043C0856
:100A8800B8043D08B9043E08BA043708B304380866
:100A9800B4043908B5043A08B60402303304CF0068
:100AA80000303404D00000303504D1000030360462
:100AB800D2004F30B3003308A0000430A10000304A
:100AC800A2004B308D31D625843104302000B3008C
:100AD8003308A7004B308E31D626843104302000ED
:100AE800B3003308AA004B308E319D260800200041
:100AF800A900AA01AB012B08803AA3008030230289
:100B0800083003192A020318080020002908A30046
:100B18002A0A8F2DA336890B8E2D230801398D3192
:100B2800FF25853120002908A3002A0A9C2DA33619
:100B3800890B9B2D231CEB2D00307C02031DAE2D51
:100B480000307B02031DAE2D02307A02031DAE2D4C
:100B580000307902031808000130A300790807392A
:100B6800890AB72DA335890BB62D2308A400790867
:100B7800A5007A08A6007B08A7007C08A800033017
:100B8800A836A70CA60CA50C890BC42D2508A03ED9
:100B9800860001308700240881040130F9070030FD
:100BA800FA3D0030FB3D0030FC3D01302100C90713
:100BB8000030CA3D4A08803A2000A3008030230252
:100BC800031DE92D053021004902031C292E0030A0
:100BD8007C02031DF92D00307B02031DF92D023024
:100BE8007A02031DF92D003079020318080001303C
:100BF8002000A30079080739890A032EA335890B39
:100C0800022E2308FF3AA4007908A5007A08A60056
:100C18007B08A7007C08A8000330A836A70CA60C00
:100C2800A50C890B112E2508A03E860001308700EF
:100C3800240881050130F9070030FA3D0030FB3DFA
:100C48000030FC3D2100C901CA0101302000AA077B
:100C58000030AB3D7F2D21004C08013A031D0800F0
:100C68007C0822002F06031D432E7B082E06031D39
:100C7800432E7A082D06031D432E79082C06031DE2
:100C8800512E2100CC018C312524863110308C3135
:100C980029242100CD01CD0A08002000EF08031DFA
:100CA8009C2E073022002C05F10000302D05F200A3
:100CB80000302E05F30000302F05F400740873048B
:100CC80072047104031D812E2C08F1002D08F20016
:100CD8002E08F3002F08F4000330F436F30CF20C5E
:100CE800F10C890B712E7108A03E86000130870037
:100CF8000108F50075082000852E20006E36F100E9
:100D08007108EE006E189C2E21004B080319942ED2
:100D180022002408F10071082100D100CB019C2E8B
:100D280022002808F10071082100D100CB01CB0A6C
:100D380021005108F1007108FD07B6307D02031C3F
:100D4800AA2E7D084A3EF1007108FD007D08003E8C
:100D5800840084300318013E85000008F100710802
:100D6800F60076088C31292486310130F1007108AB
:100D78002000EF076F0821004E06031D0800200021
:100D8800EF0101302200AC070030AD3D0030AE3D30
:100D98000030AF3D08008E316726863121001A1CCD
:100DA800D22E8C31AB2486318C319C2486318C3107
:100DB8002E2486318C313824863120008C120A305A
:100DC800A0000030A1008D31AD25863120000C1621
:100DD8000A30A0000030A1008D31AD2586312000F9
:100DE8008C160A30A0000030A1008D31AD25863167
:100DF800C8302000A0000030A1008D31AD2586311B
:100E08003830860001308700E030840000308500EB
:100E180010302000ED0016001A00ED0B0F2F0230E5
:100E2800AC000030AD00E0308131D6218631BE30D3
:100E38002000AD008430AE008D31272586318D31FC
:100E48000C2586318C314424863164302000A00082
:100E58000030A1008D31AD2586318F318B27863149
:100E680064302000A0000030A1008D31AD2586310E
:100E78008E313126863121004D080319482F8C31D7
:100E8800702486312100CD018D3163258631210002
:100E9800CC08031D4B2FD0302000A0000730A10044
:100EA8008D31AD2586313F2F7E302000A0002008EF
:100EB800A600A701A8012808803AA00080302002D7
:100EC8000830031927020318080000307C02031DAC
:100ED800772F00307B02031D772F02307A02031D23
:100EE800772F003079020318080020002608A00098
:100EF800270A7F2FA036890B7E2F201CA52F0130B3
:100F0800A00079080739890A8A2FA035890B892F0B
:100F18002008A1007908A2007A08A3007B08A40091
:100F28007C08A5000330A536A40CA30CA20C890BE1
:100F3800972F2208A03E86000130870021088104EF
:100F4800C72F0130A00079080739890AAC2FA035CE
:100F5800890BAB2F2008FF3AA1007908A2007A0874
:100F6800A3007B08A4007C08A5000330A536A40CC8
:100F7800A30CA20C890BBA2F2208A03E86000130D0
:100F88008700210881050130A7070030A83D0130FE
:100F9800F9070030FA3D0030FB3D0030FC3D5F2F83
:100FA8002000A7000C112708A6002608A800A90100
:100FB8000830290203180800A81FE42F0E15E52F92
:100FC8000E110310A80D0C150130A0000030A1006F
:100FD8008D31AD25873120000C110130A000003083
:100FE800A1008D31AD25873101302000A6002608EB
:040FF800A907DC2F3A
:101844008C317E2408008B12200095010800F000E2
:10185400700822009900080022009817103099009F
:101864000800200095010B118B16080020001113AD
:1018740021001D14111708002000AC002C0885312C
:101884007B2508008C31DC248C318C3162240800E7
:10189400FE0012001E00FE0B4B2C0034640080017D
:1018A4000131890B512C00348231AE228C318F31BD
:1018B4001A278C318431C4248C3180316A20080089
:1018C4008C318D248C318C3156248C310A3020009B
:1018D400A0000030A1008D31AD2508002100BA011F
:1018E400B2018C3156248C310A302000A000003023
:1018F400A1008D31AD25080001302000A00000308A
:10190400A1008D31AD258C3120008E1E8B2C013031
:101914000800003008008D3144258C318C31CB24F3
:101924008C318C31F4248C318D3187258C31833189
:10193400EE230800200097019601210011100330C6
:101944002500920041309100200011112100111551
:10195400080021008C14CB302000A00020082100B6
:101964008C058E16E0302000A000200821008E0592
:10197400080043345534423445345934593400341E
:1019840005344334553442344534583458340034DF
:1019940006346D302000A00020082100AE00003085
:1019A400AD000030AC000030AB000030AA00AF0145
:1019B400AF0A08001A302000A00020082100CE0041
:1019C40000302200A7000030A6000030A500073038
:1019D400A4000030AB000030AA000030A9000D3094
:1019E400A800080003302000A00020082100B00057
:1019F400B1010F302000A00020082100B200003007
:101A0400B6000030B5000030B4001030B300B701A8
:101A1400B8010800210048082000AD01AD072100ED
:101A240047082000AC01AC072C0985317B258D319A
:101A340008302000AD36AC0C890B1C2D2C098531E7
:101A44007B258D318731582708002000AF01B00174
:101A54002D082F0784002E08303D8500000800382B
:101A6400031908002D082F0784002E08303D850037
:101A740000088C313E248D3101302000AF07003046
:101A8400B03D2A2D00302100A3000030A200003018
:101A9400A1000030A0000F302000A0002008210089
:101AA400A400A501A60102302000A0002008210006
:101AB400A700A80102302000A00020082100A900EE
:101AC4000800220024082000EC006C082100D1004A
:101AD400FD0100302200AF000030AE000030AD0048
:101AE4000030AC002000EF012100CC01CC0A8E3183
:101AF40031268D3164302000A0000030A1008D31EA
:101B0400AD258D318C31332408002100B901BA018F
:101B1400BB01BB0ABC01BC0A03302000A0002008A2
:101B24002100BD00BE01BF01C00103302000A000A0
:101B340020082100C100C20106302000A0002008B6
:101B44002100C30004302000A00020082100C400AC
:101B5400C501C60108002000A401A5013F30A20070
:101B640022088B058C312E248D312000A401A5017F
:101B740021082502031DC02D200824020318D12D9D
:101B84000B30A3006230A200A20BC62DA30BC62DFE
:101B9400000001302000A4070030A53DBA2DC0305C
:101BA400A20022088B0408002000A6002008A3003D
:101BB4002308A5002608A3002308A4000130A102DD
:101BC4000030A23BFF302206031DEA2DFF30210620
:101BD400031908002508860087010108A3002408CA
:101BE40086008701230881000130A3002308A5078C
:101BF4000130A3002308A407E02D2000A20022083E
:101C0400A000A10120082100C7062000210821000E
:101C1400C806471C202E48082000A10021004708C0
:101C24002000A000A136A00C083020062100C70027
:101C34008430200021062100C80008004808200044
:101C4400A100210047082000A000A136A00C200814
:101C54002100C700200021082100C800080021003D
:101C6400BA01B20103302000EB006B082100C1006F
:101C74008C3156248E310A302000A0000030A1009F
:101C84008D31AD258E318C317E248E31003803198F
:101C940008002100BA01BA0A3F302000EB006B08AB
:101CA4002100B2000A302000A0000030A1008D31D4
:101CB400AD258E318C3156248E3101302000A000A8
:101CC4000030A1008D31AD25080021009901F030CC
:101CD4002000A00020082100990498019512951570
:101CE4002000181499139813181398161816250021
:101CF4009315131193149310220098169811181128
:101D0400181023008C1483302000A0002008210028
:101D14009D051D151E119E101E101E179E161E12C7
:101D24009E170B112000111011111113C030A000C7
:101D340020088B0408002000AC00AD010130A00095
:101D44000030A1008D31AD258E3120000C12013000
:101D5400A0000030A1008D31AD258E312000AD01F1
:101D64002A082D020318C62E2D082C07AB002B08B9
:101D74008600870101088731D4278E310130200085
:101D8400AB002B08AD07B22E0130A0000030A1003B
:101D94008D31AD258E3120000C160130A0000030AD
:101DA400A1008D31AD2508002000B100B201220050
:101DB40023082000B000220022082000AF002200E7
:101DC40021082000AE00220020082000AD003108C8
:101DD400A8002808A0002708A900AA012908A10032
:101DE4002A08A2002D308D31D6258E312000B20173
:101DF4002708320203180800FF302707A8002D30F7
:101E04002807A9003203FF3A2907AA002A088600F6
:101E140087010108AB0032083107AC002C088600AA
:101E240087012B0881000130A8002808B207FA2E88
:101E340021002F0801392000B300B401B501B60117
:101E44001630B335B40DB50DB60D890B232F210013
:101E54002E082000B700B801B901BA010E30B73519
:101E6400B80DB90DBA0D890B312F0A30A03E86008A
:101E74008701FF300105BB0041310F300105BC0073
:101E8400413100300105BD00413100300105BE0083
:101E94000230BB35BC0DBD0DBE0D890B4B2F3B086D
:101EA400B7043C08B8043D08B9043E08BA0437082E
:101EB400B3043808B4043908B5043A08B604013048
:101EC4003304BF0000303404C00000303504C100C6
:101ED40000303604C2003F30B3003308A0000330A2
:101EE400A1000030A20043308D31D6258F3103305C
:101EF4002000B3003308A70043308E31D6268F313B
:101F040003302000B3003308AA0043308E319D26ED
:101F14000800C8302000A0000030A1008D31AD259C
:101F24008F31210028082000EB00EC016B08210010
:101F3400DC0020006C082100DD0043082000EB00D9
:101F4400EC016B082100DE0020006C082100DF009A
:101F5400B901B90A05302000EB006B082100C1006B
:101F64008C3156248F3105302000A0000030A100B0
:101F74008D31AD258F318C3122248F31003A031DF0
:101F8400080021005C082000EB006B082100A80079
:101F94005E082000EB006B082100C3000530200020
:101FA400EB006B082100C1008C3156248F310530C1
:101FB4002000A0000030A1008D31AD258F3101300B
:101FC4002100DE070030DF3D0E305E065F04031D96
:101FD400BD2F0130DE000030DF000130DC070030AF
:101FE400DD3D04305C065D04031DBD2FA8010530F2
:0C1FF4002000EB006B082100C300080077
:020000040001F9
:04000E00E4FFFFFF0D
:00000001FF
