:0400000080314328E0
:100008007E14803120007F08F1007F30F0007008F6
:100018008B05111F1A2821001C08F0007008F80031
:100028001B08F00070082000D7001113111D2828A4
:100038000130D3070030D43D97019601FB30F00022
:100048007008910521009D140B1D3D287908A03EDC
:10005800860087010108220099000130F00070082D
:10006800F9077908193A0319F901FB30F00070080B
:100078008B058B1771082000FF007E100900803166
:100088004528F801F901FA01FB012030840000300D
:100098008500393081314C2180311D308400813018
:1000A800850059308600003087000E30813152219A
:1000B8008031F230840080308500A0308600003026
:1000C80087001A30813152217E10200080316C283F
:1000D80080319A20803121001A1C6F2881316321D8
:1000E800803181314421803181315E2180318131FB
:1000F8005821803181313821803117308031C82032
:100108008031C8302000E7000030E80081312B2121
:1001180080310A302000E7000030E80081312B21CF
:10012800803117308031C82080318D282100990115
:10013800F030F20072089904980195129515200084
:100148001814991398131813981618162500931550
:10015800131193149310220098169811181118105F
:1001680023008C148330F200720821009D051D15B0
:100178001E119E101E101E179E161E129E17C030AE
:10018800F20072088B0408002000E9000C116908CD
:10019800F7007708EA00EB0108306B020318080043
:1001A800EA1FD8280E15D9280E110310EA0D0C15D0
:1001B8000130E7000030E80081312B218031200038
:1001C8000C110130E7000030E80081312B2180312B
:1001D8000130F70077082000EB07D02811341434D9
:1001E80018341B341E3420342134213420341E3476
:1001F8001B341834143411340D34093406340334E0
:1002080001340034003401340334063409340D3425
:10021800F60020005309F4005409F500F40A031904
:10022800F50A76087407F20075080318750AF300D2
:100238000800103416341C341F341F341C34163490
:1002480010340934033400340034033409342000F2
:10025800D301D4012000670881310C218131730852
:100268007204031908002E2921008C14CB30F200E7
:1002780072088C058E16E030F20072088E050800B0
:10028800033025009200413091002100111508002B
:10029800640080010131890B4D290034FE001200F1
:1002A8001E00FE0B532900342000111321001D14D9
:1002B80011170800220098171030990008008B16B3
:0202C80008002C
:020000040001F9
:04000E00E4FFFFFF0D
:00000001FF
