:0400000080313F28E4
:100008007E14803120007F08FB007F30FA007A08D8
:100018008B05111F1A2821001C08FA007A08F40021
:100028001B08FA007A08F50020001113111D242876
:1000380097019601FB30FA007A08910521009D147A
:100048000B1D39287608203E86008701010822000A
:1000580099000130FA007A08F60776080D3A031974
:10006800F601FB30FA007A088B058B177B08200015
:10007800FF007E10090080314128F001F101F201F2
:10008800F301F401F501F601F701F801F901AE01F8
:10009800AF01B001B101B201B301B401B5019430AF
:1000A80084008030850020308600003087000E30C4
:1000B8008031A9207E1020008031A22821009901DA
:1000C800F0302000B60036082100990498019512F6
:1000D80095152000181499139813181398161816C4
:1000E8002500931513119314931022009816981154
:1000F8001811181023008C1483302000B60036081D
:1001080021009D051D151E119E101E101E179E16FE
:100118001E129E17C0302000B60036088B04080057
:10012800103416341C341F341F341C341634103465
:100138000934033400340034033409348031622034
:10014800803121001A1CA528A828FE0012001E00D4
:06015800FE0BAA28003492
:020000040001F9
:04000E00E4FFFFFF0D
:00000001FF
