:040000008031AD2876
:100008007E14803120007F08F8007F30F7007708E1
:100018008B05111F1B2821001C08F7007708CE004C
:100028001B08F7007708CF0020001113A828111D1E
:100038004B282100CA01CA0A200097019601FB300B
:10004800F7007708910501302200B1070030B23D72
:100058000030B33D0030B43D00303402031D3E286B
:1000680001303302031D3E2886303202031D3E282C
:10007800A1303102031CA8280030B4000030B300BE
:100088000030B2000030B10021009D14A8280B1DDB
:10009800552885317B258031FB30F70077088B05A3
:1000A800A828911DA7282400941A6F2820009111D0
:1000B80024001108F70077082100D1002400141D3E
:1000C8009828141881287D08203E86000130870072
:1000D800010891009428200091112100511C8A28C0
:1000E8002400161B9828141881287D08203E8600B5
:1000F800013087000108910094281108F70077085B
:100108002100D200CC302400910098282400110846
:10011800F7007D08203E86000130870077088100BF
:100128000130F7007708FD0715161108F700770862
:100138002100D20024009513151305307D02031CFD
:10014800A828FD01A8288B1778082000FF007E103A
:1001580009008031AF28F901FA01FB01FC01FD011A
:10016800EE01EF01A03084000030850034308B317F
:100178009023803120308400013085001B308B3182
:1001880090238031A03084000130850040308B31CD
:1001980090238031C63084008B3085003B30860048
:1001A8000130870010308B318A237E102000863181
:1001B800E52E210046080F392000B300B401B5012F
:1001C800B6011C30B335B40DB50DB60D890BE62854
:1001D800210045081F392000B700B801B901BA014C
:1001E8001730B735B80DB90DBA0D890BF5282100B0
:1001F800440807392000BB00BC01BD01BE01143012
:10020800BB35BC0DBD0DBE0D890B0429210043086B
:100218000F392000BF00C001C101C2011030BF3535
:10022800C00DC10DC20D890B1329210042080139E7
:100238002000C300C401C501C6010F30C335C40D79
:10024800C50DC60D890B2229210041080F39200050
:10025800C700C801C901CA010B30C735C80DC90D8F
:10026800CA0D890B31292100400801392000CB0033
:10027800CC01CD01CE010A30CB35CC0DCD0DCE0D44
:10028800890B402921003F0801392000CF00D00107
:10029800D101D2010930CF35D00DD10DD20D890B46
:1002A8004F2921003E0801392000D300D401D5018F
:1002B800D6010830D335D40DD50DD60D890B5E295E
:1002C80021003D0803392000D700D801D901DA01FF
:1002D8000630D735D80DD90DDA0D890B6D292100D7
:1002E8003C0801392000DB00DC01DD01DE010530BE
:1002F800DB35DC0DDD0DDE0D890B7C2921003B088B
:1003080001392000DF00E001E101E2010430DF35BE
:10031800E00DE10DE20D890B8B2921003A08013926
:100328002000E300E401E501E6010330E335E40DD4
:10033800E50DE60D890B9A292100390801392000BD
:10034800E700E801E901EA010230E735E80DE90DC7
:10035800EA0D890BA9296708E3046808E404690819
:10036800E5046A08E6046308DF046408E004650835
:10037800E1046608E2045F08DB046008DC04610845
:10038800DD046208DE045B08D7045C08D8045D0855
:10039800D9045E08DA045708D3045808D404590865
:1003A800D5045A08D6045308CF045408D004550875
:1003B800D1045608D2044F08CB045008CC04510885
:1003C800CD045208CE044B08C7044C08C8044D0895
:1003D800C9044E08CA044708C3044808C4044908A5
:1003E800C5044A08C6044308BF044408C0044508B5
:1003F800C1044608C2043F08BB044008BC044108C5
:10040800BD044208BE043B08B7043C08B8043D08D4
:10041800B9043E08BA043708B3043808B4043908E4
:10042800B5043A08B604033033042100D80000307C
:10043800200034042100D9000030200035042100B8
:10044800DA000030200036042100DB00D83020001C
:10045800B3003308A0000430A1000030A200D4305B
:100468008C31D924803104302000B3003308A70030
:10047800D4308E310026803104302000B300330898
:10048800AA00D4308D318B2508002000B30000303D
:10049800FC000030FB000030FA000030F9002200B8
:1004A800B901BA01FF302100C700FF30C8002000A1
:1004B800B401B5013508803AAE0080302E02031D24
:1004C800672A0A30340203187C2A8F310C278231BC
:1004D80001302000B4070030B53D3508803AAE0041
:1004E80080302E02031D7A2A0A303402031C692A3E
:1004F8002000B401B5013508803AAE0080302E02E4
:10050800031D882A0330340203189D2A8731752772
:10051800823101302000B4070030B53D3508803AFB
:10052800AE0080302E02031D9B2A03303402031CC8
:100538008A2A2000B401B5013508803AAE002D089A
:10054800803A2E02031DAA2A2C08340203181A2BFB
:100558002000B101B2013208803AAE0080302E028C
:10056800031DB82A063031020318DF2A2000340898
:10057800AE000230AE35FF3E031DBE2A2E353307CE
:10058800AF0031082F07B000300886008701013519
:1005980086313126823101302000B1070030B23D6A
:1005A8003208803AAE0080302E02031DDD2A063064
:1005B8003102031CBA2A20002C08FF3EAE00FF308F
:1005C8002D3DAF0035082F06031DEC2A34082E06F2
:1005D800031D002B3408AE000230AE35FF3E031D6C
:1005E800F12A2E353307AF002F08073E8600870112
:1005F8000135603E0138112B20003408AE0002306E
:10060800AE35FF3E031D042B2E353307AF002F08F0
:10061800073E860087010135603E863131268231EA
:1006280001302000B4070030B53DA02A03308631E0
:1006380031268231F0308631312608002100290820
:1006480003392000B300B401B501B6011930B33540
:10065800B40DB50DB60D890B2B2B210028080339D5
:100668002000B700B801B901BA011730B735B80D85
:10067800B90DBA0D890B3A2B210027080F39200034
:10068800BB00BC01BD01BE011330BB35BC0DBD0DA7
:10069800BE0D890B492B2100260801392000BF0017
:1006A800C001C101C2011230BF35C00DC10DC20D5C
:1006B800890B582B2100250801392000C300C401EB
:1006C800C501C6011130C335C40DC50DC60D890B52
:1006D800672B210024080F392000C700C801C90171
:1006E800CA010D30C735C80DC90DCA0D890B762B47
:1006F800FF30210020052000CB0007302100210514
:100708002000CC000030210022052000CD00003060
:10071800210023052000CE000230CB35CC0DCD0DB5
:10072800CE0D890B912B4B08C7044C08C8044D0803
:10073800C9044E08CA044708C3044808C404490841
:10074800C5044A08C6044308BF044408C004450851
:10075800C1044608C2043F08BB044008BC04410861
:10076800BD044208BE043B08B7043C08B8043D0871
:10077800B9043E08BA0433083704D30034083804EF
:10078800D40035083904D50036083A04D600533069
:10079800B3003308A0000430A1000030A2004F309D
:1007A8008C31D924833104302000B3003308A700EA
:1007B8004F308E310026833104302000B3003308D7
:1007C800AA004F308D318B25080021008C14CB30C6
:1007D8002000A000200821008C0533302000A00054
:1007E800200821008E04F3302000A00020082100FA
:0407F8008E05080062
:1008000010341034113411341234123413341334BC
:10081000143414341534153416341634173417348C
:10082000183418341934193419341A341A341B345E
:100830001B341B341C341C341C341D341D341D3437
:100840001D341E341E341E341E341E341E341F3418
:100850001F341F341F341F341F341F341F341F3400
:100860001F341F341F341F341F341E341E341E34F3
:100870001E341E341E341D341D341D341D341C34EE
:100880001C341C341B341B341B341A341A341934F2
:1008900019341934183418341734173416341634FC
:1008A000153415341434143413341334123412340C
:1008B00011341134103410340F340E340E340D341E
:1008C0000D340C340C340B340B340A340A34093430
:1008D000093408340834073407340634063406343F
:1008E0000534053404340434043403340334033449
:1008F000023402340234023401340134013401344C
:100900000134013400340034003400340034003445
:100910000034003400340034003400340034003437
:10092000013401340134013401340134023402341D
:1009300002340234033403340334043404340434FE
:1009400005340534063406340634073407340834D5
:100950000834093409340A340A340B340B340C34A7
:100960000C340D340D340E340E340F3412347A340A
:1009700000340034B0340434B634003448344534E0
:100980004C344C344F3400342100380803392000F3
:10099000B300B401B501B6011730B335B40DB50DD0
:1009A000B60D890BCD2C2100370807392000B70080
:1009B000B801B901BA011430B735B80DB90DBA0D87
:1009C000890BDC2C1330A03E86008701FF30010527
:1009D000BB00413101300105BC004131003001054F
:1009E000BD00413100300105BE000B30BB35BC0DF0
:1009F000BD0DBE0D890BF62C210032083F392000B9
:100A0000BF00C001C101C2010530BF35C00DC10D1D
:100A1000C20D890B052D2100310801392000C300CA
:100A2000C401C501C6010430C335C40DC50DC60DD2
:100A3000890B142D2100300803392000C700C8019C
:100A4000C901CA010230C735C80DC90DCA0D890BCD
:100A5000232D4708C3044808C4044908C5044A08AC
:100A6000C6044308BF044408C0044508C10446083E
:100A7000C2043F08BB044008BC044108BD0442084E
:100A8000BE043B08B7043C08B8043D08B9043E085E
:100A9000BA043708B3043808B4043908B5043A086E
:100AA000B60402303304CF0000303404D0000030EC
:100AB0003504D10000303604D2004F30B300330883
:100AC000A0000430A1000030A2004B308C31D924AA
:100AD000843104302000B3003308A7004B308E313E
:100AE0000026843104302000B3003308AA004B30C4
:100AF0008D318B25080021004B08013A031D0800A9
:100B00007C0822003806031D8F2D7B083706031D45
:100B10008F2D7A083606031D8F2D79083506031DA3
:100B20009D2D2100CB018B316523853110308B3118
:100B300069232100CC01CC0A08002100D008031D44
:100B4000E82D073022003505F10000303605F200AF
:100B500000303705F30000303805F40074087304E2
:100B600072047104031DCD2D3508F1003608F20022
:100B70003708F3003808F4000330F436F30CF20CB5
:100B8000F10C890BBD2D7108A03E86000130870055
:100B90000108F50075082000D12D20006E36F10007
:100BA0007108EE006E18E82D210049080319E02DA8
:100BB00022002908F10071082100D300C901E82DA5
:100BC00022002D08F10071082100D300C901C90AD3
:100BD00021005308F10071082000EF07BC308400A9
:100BE00084308500003FF100013FF2007208803A36
:100BF000803C031DFD2D71086F02031C0B2EBC30C1
:100C00008400843085000008FF3A013E20006F0711
:100C1000F1007108EF0020006F08003E840084306E
:100C20000318013E85000008F1007108F6007608FF
:100C30008B31692385310130F10071082100D00723
:100C40004A08013A031D0800D00101302200B5070F
:100C50000030B63D0030B73D0030B83D2100CA013C
:100C600008002000A900AA01AB012B08803AA300CC
:100C700080302302083003192A02031808002000DC
:100C80002908A3002A0A452EA336890B442E2308DF
:100C900001398D315925863120002908A3002A0AFF
:100CA000522EA336890B512E231CA12E00307C021C
:100CB000031D642E00307B02031D642E02307A0275
:100CC000031D642E00307902031808000130A300D0
:100CD00079080739890A6D2EA335890B6C2E2308F4
:100CE000A4007908A5007A08A6007B08A7007C0864
:100CF000A8000330A836A70CA60CA50C890B7A2EE9
:100D00002508A03E860001308700240881040130B8
:100D1000F9070030FA3D0030FB3D0030FC3D01306A
:100D20002200B9070030BA3D3A08803A2000A300FB
:100D300080302302031D9F2E053022003902031C40
:100D4000DF2E00307C02031DAF2E00307B02031D1E
:100D5000AF2E02307A02031DAF2E00307902031845
:100D6000080001302000A30079080739890AB92E4C
:100D7000A335890BB82E2308FF3AA4007908A500F3
:100D80007A08A6007B08A7007C08A8000330A836D4
:100D9000A70CA60CA50C890BC72E2508A03E860023
:100DA00001308700240881050130F9070030FA3D41
:100DB0000030FB3D0030FC3D2200B901BA0101309A
:100DC0002000AA070030AB3D352E8331E923863160
:100DD0008E314426863121001A1CEB2E8731F127F3
:100DE00086318B316E2386318B317823863120001A
:100DF0008C120A30A0000030A1008C31932486317F
:100E000020000C160A30A0000030A1008C31932481
:100E1000863120008C160A30A0000030A1008C31F1
:100E200093248631C8302000A0000030A1008C310E
:100E3000932486313B30860001308700E030840007
:100E40000030850010302000ED0016001A00ED0B78
:100E5000252F0230AC000030AD00E0308231492255
:100E60008631BE302000AD008430AE008C31572476
:100E700086318C313C2486318B31842386312000AD
:100E80008E156430A0000030A1008C31932486318F
:100E90008F318527863164302000A0000030A1000A
:100EA0008C319324863121004C0803195C2F8B313F
:100EB000F92386312100CC01D0302000A00007307A
:100EC000A1008C31932486318D312C25863121006F
:100ED000CB08031D672FD0302000A0000730A100F1
:100EE0008C31932486316400532F7E302000A00083
:100EF0002008A600A701A8012808803AA000803099
:100F000020020830031927020318080000307C0271
:100F1000031D942F00307B02031D942F02307A02B0
:100F2000031D942F003079020318080020002608C2
:100F3000A000270A9C2FA036890B9B2F201CC22FB4
:100F40000130A00079080739890AA72FA035890B3D
:100F5000A62F2008A1007908A2007A08A3007B0828
:100F6000A4007C08A5000330A536A40CA30CA20C99
:100F7000890BB42F2208A03E86000130870021088B
:100F80008104E42F0130A00079080739890AC92FAC
:100F9000A035890BC82F2008FF3AA1007908A200CC
:100FA0007A08A3007B08A4007C08A5000330A536BE
:100FB000A40CA30CA20C890BD72F2208A03E8600FC
:100FC00001308700210881050130A7070030A83DC6
:100FD0000130F9070030FA3D0030FB3D0030FC3DA8
:100FE0007C2F20009701960121001110033025006D
:100FF00092004130910020001111210011150800CC
:1016C4008B31962308008B12200095010800F0004E
:1016D4007008220099000800220098171030990021
:1016E4000800200095010B118B160800200011132F
:1016F40021001D14111708002000AC002C088631AD
:10170400312608008C310C248B318B31A92308003D
:10171400FE0012001E00FE0B8B2B003464008001BF
:101724000131890B912B003420008E1E9B2B01303C
:10173400080000300800833122238B318E319B2630
:101744008B318431C4248B318031DD2008008B310E
:10175400B7238B318B319D238B310A302000A000BD
:101764000030A1008C31932408008C3174248B3117
:101774008B31D6238B318C3124248B318C31B3249F
:101784008B318B31E72308004334553442344534DC
:1017940059345934003405344334553442344534CF
:1017A40058345834003406346D302000A00020082A
:1017B4002100AE000030AD000030AC000030AB00C2
:1017C4000030AA00AF01AF0A080020008C120A30D2
:1017D400A0000030A1008C3193248B3120008C16A2
:1017E4000A30A0000030A1008C31932408002000AE
:1017F4008E152100BA01B2018431C4248B318031A9
:10180400DD208B310A302000A0000030A1008C3193
:10181400932408001A302000A00020082100CD00E5
:1018240000302200AC000030AB000030AA000730CA
:10183400A9000030B0000030AF000030AE000D3021
:10184400AD00080003302000A00020082100B000F3
:10185400B1010F302000A00020082100B2000030A8
:10186400B6000030B5000030B4001030B300B7014A
:10187400B8010800210048082000AD01AD0721008F
:1018840047082000AC01AC072C09863131268C3185
:1018940008302000AD36AC0C890B4C2C2C09863159
:1018A40031268C318731752708002000AF01B00143
:1018B4002D082F0784002E08303D850000080038CD
:1018C400031908002D082F0784002E08303D8500D9
:1018D40000088B317E238C3101302000AF070030AB
:1018E400B03D5A2C00302100A3000030A20000308B
:1018F400A1000030A0000F302000A000200821002B
:10190400A400A501A60102302000A00020082100A7
:10191400A700A80102302000A00020082100A9008F
:1019240008002000A401A5018B316E238C31200016
:10193400A401A50121082502031DA22C20082402CC
:10194400031808000B30A3006230A200A20BA82CDD
:10195400A30BA82C000001302000A4070030A53DF3
:101964009C2C2100B901BA01BB01BB0ABC01BC0A11
:1019740003302000A00020082100BD00BE01BF01EB
:10198400C00103302000A00020082100C100C201D2
:1019940006302000A00020082100C30004302000ED
:1019A400A00020082100C400C501C60108002000D1
:1019B400A6002008A3002308A5002608A3002308E6
:1019C400A4000130A1020030A23BFF302206031D17
:1019D400ED2CFF3021060319080025088600870135
:1019E4000108A30024088600870123088100013030
:1019F400A3002308A5070130A3002308A407E32CB0
:101A04002000A7000C112708A6002608A800A90199
:101A14000830290203180800A81F122D0E15132DD3
:101A24000E110310A80D0C150130A0000030A10008
:101A34008C3193248D3120000C110130A000003032
:101A4400A1008C3193248D3101302000A60026089A
:101A5400A9070A2D220029082000EC006C082100A7
:101A6400D3002000EF0100302200B8000030B7009E
:101A74000030B6000030B5002100D001CB01CB0A04
:101A840020008E110130A0000030A1008C3193247D
:101A94008D318D31C4258D3164302000A00000309B
:101AA400A1008C3193248D318B31732308002000E5
:101AB400A2002208A000A10120082100C7062000DE
:101AC40021082100C806471C7A2D48082000A100DF
:101AD400210047082000A000A136A00C08302006F1
:101AE4002100C7008430200021062100C80008001E
:101AF40048082000A100210047082000A000A136CA
:101B0400A00C20082100C700200021082100C800E3
:101B140008002000AC00AD010130A0000030A1009D
:101B24008C3193248D3120000C120130A000003040
:101B3400A1008C3193248D312000AD012A082D029F
:101B44000318B42D2D082C07AB002B088600870141
:101B540001088D3102258D3101302000AB002B08A6
:101B6400AD07A02D0130A0000030A1008C319324DA
:101B74008D3120000C160130A0000030A1008C3102
:101B8400932408002100BA01B20103302000EB00C5
:101B94006B082100C1008431C4248D318031DD20E3
:101BA4008D310A302000A0000030A1008C31932434
:101BB4008D318B3196238D310038031908002100B3
:101BC400BA01BA0A3F302000EB006B082100B200D2
:101BD4000A302000A0000030A1008C3193248D3104
:101BE4008431C4248D318031DD208D3101302000D9
:101BF400A0000030A1008C31932408002000B10023
:101C0400B201220028082000B0002200270820008A
:101C1400AF00220026082000AE0022002508200084
:101C2400AD003108A8002808A0002708A900AA01CF
:101C34002908A1002A08A2002D308C31D9248E3124
:101C44002000B2012708320203180800FF302707DA
:101C5400A8002D302807A9003203FF3A2907AA005B
:101C64002A08860087010108AB0032083107AC005E
:101C74002C08860087012B0881000130A800280861
:101C8400B207242E210097161712971117119714D3
:101C94009901F0302000A000200821009904980147
:101CA4009512951520001814991398131813981663
:101CB40018162500931513119314931022009816E7
:101CC40098111811181023008C1483302000A000E0
:101CD400200821009D051D151E119E101E101E17A3
:101CE4009E161E129E170B112000111011111113B4
:101CF4002400951695111515951415109613961222
:101D0400161460309200FE302000A0002008240049
:101D14009304171397121712971017101711200016
:101D2400911121009115C0302000A00020088B04DF
:101D3400080021002F0801392000B300B401B501C7
:101D4400B6011630B335B40DB50DB60D890BA42EFE
:101D540021002E082000B700B801B901BA010E30E5
:101D6400B735B80DB90DBA0D890BB22E0A30A03EA5
:101D740086008701FF300105BB0041310F300105AA
:101D8400BC00413100300105BD0041310030010586
:101D9400BE000230BB35BC0DBD0DBE0D890BCC2E73
:101DA4003B08B7043C08B8043D08B9043E08BA042B
:101DB4003708B3043808B4043908B5043A08B6043B
:101DC40001303304BF0000303404C0000030350457
:101DD400C10000303604C2003F30B3003308A00015
:101DE4000330A1000030A20043308C31D9248E315D
:101DF40003302000B3003308A70043308E3100269F
:101E04008E3103302000B3003308AA0043308D31F3
:101E14008B2508002000A601A701A8012808803A04
:101E2400A00080302002083003192702031808009C
:101E340000307C02031D282F00307B02031D282F55
:101E440002307A02031D282F00307902031808009B
:101E540020002608A000270A302FA036890B2F2F38
:101E6400201C562F0130A00079080739890A3B2F1E
:101E7400A035890B3A2F2008A1007908A2007A081E
:101E8400A3007B08A4007C08A5000330A536A40C9D
:101E9400A30CA20C890B482F2208A03E8600013017
:101EA400870021088104782F0130A00079080739C0
:101EB400890A5D2FA035890B5C2F2008FF3AA10009
:101EC4007908A2007A08A3007B08A4007C08A50076
:101ED4000330A536A40CA30CA20C890B6B2F22088B
:101EE400A03E860001308700210881050130A70744
:101EF4000030A83D0130F9070030FA3D0030FB3DC9
:101F04000030FC3D102FC8302000A0000030A1009C
:101F14008C3193248F31210028082000EB00EC0140
:101F24006B082100DC0020006C082100DD00430860
:101F34002000EB00EC016B082100DE0020006C089F
:101F44002100DF00B901B90A05302000EB006B085D
:101F54002100C100833122238F318031DD208F3174
:101F640005302000A0000030A1008C3193248F3173
:101F74008B3162238F31003A031D080021005C0875
:101F84002000EB006B082100A8005E082000EB0095
:101F94006B082100C30005302000EB006B08210012
:101FA400C100833122238F318031DD208F31053010
:101FB4002000A0000030A1008C3193248F31013027
:101FC4002100DE070030DF3D0E305E065F04031D96
:101FD400BA2F0130DE000030DF000130DC070030B2
:101FE400DD3D04305C065D04031DBA2FA8010530F5
:0C1FF4002000EB006B082100C300080077
:020000040001F9
:04000E00FCFFFFFFF5
:00000001FF
