:0400000080315928CA
:100008007E14803120007F08F8007F30F7007708E1
:100018008B05111F1B2821001C08F7007708D30047
:100028001B08F7007708D400200011135428111D6D
:100038004928EE01EE0A97019601FB30F700770890
:10004800910501302200AC070030AD3D0030AE3DD7
:100058000030AF3D00302F02031D3C2801302E0236
:10006800031D3C2886302D02031D3C28A1302C029C
:10007800031C54280030AF000030AE000030AD0043
:100088000030AC0021009D1454280B1D53288631E4
:100098002F268031FB30F70077088B0554288B1703
:1000A80078082000FF007E10090080315B28F901E4
:1000B800FA01FB01FC01FD01EE01EF01A030840013
:1000C8000030850037308C31AD24803120308400F9
:1000D8000130850010308C31AD248031A03084008F
:1000E8000130850040308C31AD24803110308400DF
:1000F8008D308500303086000130870010308C311B
:10010800A7247E1020008631DF2E210046080F39F3
:100118002000B300B401B501B6011C30B335B40DED
:10012800B50DB60D890B9228210045081F3920000E
:10013800B700B801B901BA011730B735B80DB90D14
:10014800BA0D890BA1282100440807392000BB00FB
:10015800BC01BD01BE011430BB35BC0DBD0DBE0DCB
:10016800890BB028210043080F392000BF00C001C7
:10017800C101C2011030BF35C00DC10DC20D890BC0
:10018800BF282100420801392000C300C401C5016D
:10019800C6010F30C335C40DC50DC60D890BCE2859
:1001A800210041080F392000C700C801C901CA0150
:1001B8000B30C735C80DC90DCA0D890BDD282100C4
:1001C800400801392000CB00CC01CD01CE010A3016
:1001D800CB35CC0DCD0DCE0D890BEC2821003F0879
:1001E80001392000CF00D001D101D2010930CF352B
:1001F800D00DD10DD20D890BFB2821003E08013905
:100208002000D300D401D501D6010830D335D40D50
:10021800D50DD60D890B0A2921003D080339200088
:10022800D700D801D901DA010630D735D80DD90D54
:10023800DA0D890B192921003C0801392000DB005F
:10024800DC01DD01DE010530DB35DC0DDD0DDE0D09
:10025800890B282921003B0801392000DF00E00133
:10026800E101E2010430DF35E00DE10DE20D890B1B
:10027800372921003A0801392000E300E401E501AB
:10028800E6010330E335E40DE50DE60D890B46295B
:100298002100390801392000E700E801E901EA01F5
:1002A8000230E735E80DE90DEA0D890B5529670895
:1002B800E3046808E4046908E5046A08E6046308D6
:1002C800DF046408E0046508E1046608E2045F08E6
:1002D800DB046008DC046108DD046208DE045B08F6
:1002E800D7045C08D8045D08D9045E08DA04570806
:1002F800D3045808D4045908D5045A08D604530816
:10030800CF045408D0045508D1045608D2044F0825
:10031800CB045008CC045108CD045208CE044B0835
:10032800C7044C08C8044D08C9044E08CA04470845
:10033800C3044808C4044908C5044A08C604430855
:10034800BF044408C0044508C1044608C2043F0865
:10035800BB044008BC044108BD044208BE043B0875
:10036800B7043C08B8043D08B9043E08BA04370885
:10037800B3043808B4043908B5043A08B60403309D
:1003880033042100DB000030200034042100DC00AD
:100398000030200035042100DD0000302000360444
:1003A8002100DE00DB302000B3003308A000043059
:1003B800A1000030A200D7308D31EC258031043007
:1003C8002000B3003308A700D7308331942380314D
:1003D80004302000B3003308AA00D7308E31DD2660
:1003E80008002000B3000030FC000030FB000030A3
:1003F800FA000030F9002100CD01CE01FF30CB001A
:10040800FF30CC002000B401B5013508803AAE00B9
:1004180080302E02031D122A0A3034020318272ABC
:100428008F318727813101302000B4070030B53D76
:100438003508803AAE0080302E02031D252A0A3086
:100448003402031C142A2000B401B5013508803A8F
:10045800AE0080302E02031D332A03303402031805
:10046800482A87316527813101302000B4070030E0
:10047800B53D3508803AAE0080302E02031D462A6D
:1004880003303402031C352A2000B401B5013508B5
:10049800803AAE002D08803A2E02031D552A2C08FA
:1004A80034020318C52A2000B101B2013208803A8B
:1004B800AE0080302E02031D632A06303102031875
:1004C8008A2A20003408AE000230AE35FF3E031DF4
:1004D800692A2E353307AF0031082F07B0003008DE
:1004E80086008701013585317B2581310130200067
:1004F800B1070030B23D3208803AAE0080302E029B
:10050800031D882A06303102031C652A20002C08A6
:10051800FF3EAE00FF302D3DAF0035082F06031D0E
:10052800972A34082E06031DAB2A3408AE00023081
:10053800AE35FF3E031D9C2A2E353307AF002F082A
:10054800073E860087010135603E0138BC2A20003D
:100558003408AE000230AE35FF3E031DAF2A2E35FB
:100568003307AF002F08073E860087010135603E3C
:1005780085317B25813101302000B4070030B53D3D
:100588004B2A033085317B258131F03085317B253D
:1005980008002100290803392000B300B401B5017F
:1005A800B6011930B335B40DB50DB60D890BD62A81
:1005B8002100280803392000B700B801B901BA01A1
:1005C8001730B735B80DB90DBA0D890BE52A2100DA
:1005D80027080F392000BB00BC01BD01BE01133044
:1005E800BB35BC0DBD0DBE0D890BF42A21002608B4
:1005F80001392000BF00C001C101C2011230BF355E
:10060800C00DC10DC20D890B032B2100250801392E
:100618002000C300C401C501C6011130C335C40D93
:10062800C50DC60D890B122B210024080F39200097
:10063800C700C801C901CA010D30C735C80DC90DA9
:10064800CA0D890B212BFF30210020052000CB008B
:100658000730210021052000CC00003021002205B0
:100668002000CD000030210023052000CE000230FC
:10067800CB35CC0DCD0DCE0D890B3C2B4B08C704CB
:100688004C08C8044D08C9044E08CA044708C304E6
:100698004808C4044908C5044A08C6044308BF04F6
:1006A8004408C0044508C1044608C2043F08BB0406
:1006B8004008BC044108BD044208BE043B08B70416
:1006C8003C08B8043D08B9043E08BA0433083704A6
:1006D800D30034083804D40035083904D500360866
:1006E8003A04D6005330B3003308A0000430A10008
:1006F8000030A2004F308D31EC25823104302000CB
:10070800B3003308A7004F3083319423823104307B
:100718002000B3003308AA004F308E31DD260800D0
:100728002000B100B201220023082000B0002200FE
:1007380022082000AF00220021082000AE0022007D
:1007480020082000AD003108A8002808A0002708CC
:10075800A900AA012908A1002A08A2002D308D317C
:10076800EC2583312000B201270832020318080063
:10077800FF302707A8002D302807A9003203FF3AC9
:100788002907AA002A08860087010108AB00320859
:100798003107AC002C08860087012B088100013046
:1007A800A8002808B207B82B2100B901BA01BB017B
:1007B800BB0ABC01BC0A03302000A00020082100AD
:1007C800BD00BE01BF01C00103302000A000200809
:1007D8002100C100C20106302000A000200821002D
:1007E800C30004302000A00020082100C400C50177
:0407F800C60108002E
:1008000010341034113411341234123413341334BC
:10081000143414341534153416341634173417348C
:10082000183418341934193419341A341A341B345E
:100830001B341B341C341C341C341D341D341D3437
:100840001D341E341E341E341E341E341E341F3418
:100850001F341F341F341F341F341F341F341F3400
:100860001F341F341F341F341F341E341E341E34F3
:100870001E341E341E341D341D341D341D341C34EE
:100880001C341C341B341B341B341A341A341934F2
:1008900019341934183418341734173416341634FC
:1008A000153415341434143413341334123412340C
:1008B00011341134103410340F340E340E340D341E
:1008C0000D340C340C340B340B340A340A34093430
:1008D000093408340834073407340634063406343F
:1008E0000534053404340434043403340334033449
:1008F000023402340234023401340134013401344C
:100900000134013400340034003400340034003445
:100910000034003400340034003400340034003437
:10092000013401340134013401340134023402341D
:1009300002340234033403340334043404340434FE
:1009400005340534063406340634073407340834D5
:100950000834093409340A340A340B340B340C34A7
:100960000C340D340D340E340E340F3412347A340A
:1009700000340034B0340434B634003448344534E0
:100980004C344C344F3400342100380803392000F3
:10099000B300B401B501B6011730B335B40DB50DD0
:1009A000B60D890BCD2C2100370807392000B70080
:1009B000B801B901BA011430B735B80DB90DBA0D87
:1009C000890BDC2C1330A03E86008701FF30010527
:1009D000BB00413101300105BC004131003001054F
:1009E000BD00413100300105BE000B30BB35BC0DF0
:1009F000BD0DBE0D890BF62C210032083F392000B9
:100A0000BF00C001C101C2010530BF35C00DC10D1D
:100A1000C20D890B052D2100310801392000C300CA
:100A2000C401C501C6010430C335C40DC50DC60DD2
:100A3000890B142D2100300803392000C700C8019C
:100A4000C901CA010230C735C80DC90DCA0D890BCD
:100A5000232D4708C3044808C4044908C5044A08AC
:100A6000C6044308BF044408C0044508C10446083E
:100A7000C2043F08BB044008BC044108BD0442084E
:100A8000BE043B08B7043C08B8043D08B9043E085E
:100A9000BA043708B3043808B4043908B5043A086E
:100AA000B60402303304CF0000303404D0000030EC
:100AB0003504D10000303604D2004F30B300330883
:100AC000A0000430A1000030A2004B308D31EC2595
:100AD000843104302000B3003308A7004B30833149
:100AE0009423843104302000B3003308AA004B3033
:100AF0008E31DD2608002000A900AA01AB012B08D9
:100B0000803AA30080302302083003192A02031818
:100B1000080020002908A3002A0A8F2DA336890B7C
:100B20008E2D230801398E313F268531200029087A
:100B3000A3002A0A9C2DA336890B9B2D231CEB2D89
:100B400000307C02031DAE2D00307B02031DAE2D54
:100B500002307A02031DAE2D00307902031808001E
:100B60000130A30079080739890AB72DA335890B0D
:100B7000B62D2308A4007908A5007A08A6007B08F2
:100B8000A7007C08A8000330A836A70CA60CA50C6B
:100B9000890BC42D2508A03E86000130870024085B
:100BA00081040130F9070030FA3D0030FB3D003090
:100BB000FC3D01302100CD070030CE3D4E08803A8B
:100BC0002000A30080302302031DE92D0530210001
:100BD0004D02031C292E00307C02031DF92D00302C
:100BE0007B02031DF92D02307A02031DF92D00301E
:100BF00079020318080001302000A30079080739A2
:100C0000890A032EA335890B022E2308FF3AA4007C
:100C10007908A5007A08A6007B08A7007C08A80030
:100C20000330A836A70CA60CA50C890B112E25089D
:100C3000A03E860001308700240881050130F907B5
:100C40000030FA3D0030FB3D0030FC3D2100CD017D
:100C5000CE0101302000AA070030AB3D7F2D2100DE
:100C60005008013A031D08007C084A06031D422E65
:100C70007B084906031D422E7A084806031D422EB2
:100C800079084706031D4F2ED0018C31822486310E
:100C900010308C3186242100D101D10A0800D508FA
:100CA000031D982E07304705F10000304805F2007B
:100CB00000304905F30000304A05F400740873045D
:100CC00072047104031D7D2E4708F1004808F200EC
:100CD0004908F3004A08F4000330F436F30CF20C30
:100CE000F10C890B6D2E7108A03E86000130870043
:100CF0000108F50075082000812E20006F36F100F4
:100D00007108EF006F18982E21004F080319902EDC
:100D100022002408F10071082100D600CF01982E8E
:100D200022002808F10071082100D600CF01CF0A67
:100D300021005608F1007108FD07BC3084008430A2
:100D40008500003FF100013FF2007208803A803CCC
:100D5000031DAC2E71087D02031CB92EBC3084002B
:100D6000843085000008FF3A013E7D07F1007108DC
:100D7000FD007D08003E840084300318013E85009C
:100D80000008F1007108F60076088C31862486315F
:100D90000130F10071082100D50720006E08013AEA
:100DA000031D08002100D5010130C7070030C83DF0
:100DB0000030C93D0030CA3D2000EE0108008E31F0
:100DC000A726863121001A1CE22E8D31002586319E
:100DD0008C31F12486318C318B2486318C319524F1
:100DE000863120008C120A30A0000030A1008D3125
:100DF000AB25863120000C160A30A0000030A1007F
:100E00008D31AB25863120008C160A30A0000030D1
:100E1000A1008D31AB258631C8302000A000003004
:100E2000A1008D31AB25863130308600013087003E
:100E3000DF3084000030850010302000ED00160007
:100E40001A00ED0B1F2F0230AC000030AD00DF3078
:100E50008131F5218631BE302000AD008430AE00F6
:100E60008D318E2586318D31732586318C31A124CB
:100E7000863164302000A0000030A1008D31AB2508
:100E8000863164302000A0000030A1008D31AB25F8
:100E900086318E3171268631210051080319552F74
:100EA0008C31D42486312100D1018D31CB2586317E
:100EB0002100D008031D582FD0302000A00007309B
:100EC000A1008D31AB2586314C2F7E302000A00053
:100ED0002008A600A701A8012808803AA0008030B9
:100EE00020020830031927020318080000307C0292
:100EF000031D842F00307B02031D842F02307A02F1
:100F0000031D842F003079020318080020002608F2
:100F1000A000270A8C2FA036890B8B2F201CB22F04
:100F20000130A00079080739890A972FA035890B6D
:100F3000962F2008A1007908A2007A08A3007B0858
:100F4000A4007C08A5000330A536A40CA30CA20CB9
:100F5000890BA42F2208A03E8600013087002108BB
:100F60008104D42F0130A00079080739890AB92FEC
:100F7000A035890BB82F2008FF3AA1007908A200FC
:100F80007A08A3007B08A4007C08A5000330A536DE
:100F9000A40CA30CA20C890BC72F2208A03E86002C
:100FA00001308700210881050130A7070030A83DE6
:100FB0000130F9070030FA3D0030FB3D0030FC3DC8
:100FC0006C2F00302100A3000030A2000030A100EF
:100FD0000030A0000F302000A00020082100A40055
:100FE000A501A60102302000A00020082100A700D2
:100FF000A80102302000A00020082100A90008005C
:101904008B12200095010800F00070082200990055
:101914000800220098171030990008002000950153
:101924000B118B1608002000111321001D14111730
:1019340008002000AC002C0885317B2508008D317F
:1019440043258C318C31C6240800FE0012001E0091
:10195400FE0BA82C0034640080010131890BAE2CED
:10196400003420008E1EB82C01300800003008001E
:101974008231CD228C318F3116278C318431C424AD
:101984008C318031892008008C31E2248C318C31F7
:10199400BA248C310A302000A0000030A1008D311F
:1019A400AB2508002100BA01B2018C31BA248C3174
:1019B4000A302000A0000030A1008D31AB250800C2
:1019C4008731E1278C318D3120258C318D315B2598
:1019D4008C318331D8238C318D313125080020009E
:1019E4009701960121001110033025009200413027
:1019F40091002000111121001115080021008C1400
:101A0400CB302000A000200821008C058E16E03089
:101A14002000A000200821008E050800433455341E
:101A2400423445345934593400340534433455343C
:101A34004234453458345834003406346D30200070
:101A4400A00020082100AE000030AD000030AC0042
:101A54000030AB000030AA00AF01AF0A080020003C
:101A64008C120A30A0000030A1008D31AB258D31DD
:101A740020008C160A30A0000030A1008D31AB2567
:101A840008001A302000A00020082100D2000030F5
:101A94002200A7000030A6000030A5000730A400F3
:101AA4000030AB000030AA000030A9000D30A800BF
:101AB400080003302000A00020082100B000B1017C
:101AC4000F302000A00020082100B2000030B60032
:101AD4000030B5000030B4001030B300B701B801D5
:101AE400080021004C082000AD01AD0721004B087F
:101AF4002000AC01AC072C0985317B258D310830E1
:101B04002000AD36AC0C890B832D2C0985317B2547
:101B14008D318731652708002000AF01B0012D0801
:101B24002F0784002E08303D850000080038031973
:101B340008002D082F0784002E08303D850000087A
:101B44008C319B248D3101302000AF070030B03D33
:101B5400912D2000A401A5018C318B248D3120000E
:101B6400A401A50121082502031DBA2D2008240281
:101B7400031808000B30A3006230A200A20BC02D92
:101B8400A30BC02D000001302000A4070030A53DA8
:101B9400B42D220024082000EC006C082100D6009B
:101BA400FD010030CA000030C9000030C800003018
:101BB400C700D501D001D00A8E3171268D31643031
:101BC4002000A0000030A1008D31AB258D318C3177
:101BD400902408002000A6002008A3002308A500E4
:101BE4002608A3002308A4000130A1020030A23B70
:101BF400FF302206031D002EFF30210603190800C2
:101C04002508860087010108A300240886008701AF
:101C1400230881000130A3002308A5070130A30095
:101C24002308A407F62D2000A7000C112708A600FE
:101C34002608A800A9010830290203180800A81FD3
:101C4400252E0E15262E0E110310A80D0C1501308D
:101C5400A0000030A1008D31AB258E3120000C1185
:101C64000130A0000030A1008D31AB258E31013050
:101C74002000A6002608A9071D2E2000A200220885
:101C8400A000A10120082100CB062000210821008A
:101C9400CC064B1C602E4C082000A10021004B08F0
:101CA4002000A000A136A00C083020062100CB00A3
:101CB4008430200021062100CC0008004C082000BC
:101CC400A10021004B082000A000A136A00C200890
:101CD4002100CB00200021082100CC0008002100B5
:101CE400BA01B20103302000EB006B082100C100EF
:101CF4008C31BA248E310A302000A0000030A100BB
:101D04008D31AB258E318C31B3248E3100380319DB
:101D140008002100BA01BA0A3F302000EB006B082A
:101D24002100B2000A302000A0000030A1008D3153
:101D3400AB258E318C31BA248E3101302000A000C5
:101D44000030A1008D31AB25080021009901F0304D
:101D54002000A000200821009904980195129515EF
:101D640020001814991398131813981618162500A0
:101D740093151311931493102200981698111811A7
:101D8400181023008C1483302000A00020082100A8
:101D94009D051D151E119E101E101E179E161E1247
:101DA4009E170B112000111011111113C030A00047
:101DB40020088B0408002000AC00AD010130A00015
:101DC4000030A1008D31AB258E3120000C12013082
:101DD400A0000030A1008D31AB258E312000AD0173
:101DE4002A082D020318062F2D082C07AB002B08F8
:101DF4008600870101088E3115268E3101302000BE
:101E0400AB002B08AD07F22E0130A0000030A1007A
:101E14008D31AB258E3120000C160130A00000302E
:101E2400A1008D31AB25080021002F0801392000C5
:101E3400B300B401B501B6011630B335B40DB50D18
:101E4400B60D890B1F2F21002E082000B700B80102
:101E5400B901BA010E30B735B80DB90DBA0D890BF9
:101E64002D2F0A30A03E86008701FF300105BB00FC
:101E740041310F300105BC00413100300105BD0086
:101E8400413100300105BE000230BB35BC0DBD0D33
:101E9400BE0D890B472F3B08B7043C08B8043D0826
:101EA400B9043E08BA043708B3043808B40439083E
:101EB400B5043A08B60401303304BF0000303404DA
:101EC400C00000303504C10000303604C2003F3089
:101ED400B3003308A0000330A1000030A200433057
:101EE4008D31EC258F3103302000B3003308A70077
:101EF4004330833194238F3103302000B3003308FF
:101F0400AA0043308E31DD2608002000A601A70177
:101F1400A8012808803AA000803020020830031964
:101F240027020318080000307C02031DA32F003091
:101F34007B02031DA32F02307A02031DA32F00305E
:101F440079020318080020002608A000270AAB2FF6
:101F5400A036890BAA2F201CD12F0130A0007908AC
:101F64000739890AB62FA035890BB52F2008A1009F
:101F74007908A2007A08A3007B08A4007C08A500C5
:101F84000330A536A40CA30CA20C890BC32F220882
:101F9400A03E86000130870021088104F32F013020
:101FA400A00079080739890AD82FA035890BD72FC3
:101FB4002008FF3AA1007908A2007A08A3007B0850
:101FC400A4007C08A5000330A536A40CA30CA20C25
:101FD400890BE62F2208A03E8600013087002108E5
:101FE40081050130A7070030A83D0130F907003012
:0C1FF400FA3D0030FB3D0030FC3D8B2F1F
:020000040001F9
:04000E00E4FFFFFF0D
:00000001FF
