:0400000080314328E0
:100008007E14803120007F08F1007F30F0007008F6
:100018008B05111F1A2821001C08F0007008F70032
:100028001B08F0007008F80020001113111D282883
:100038000130D0070030D13D97019601FB30F00028
:100048007008910521009D140B1D3D287908203E5C
:10005800860087010108220099000130F00070082D
:10006800F9077908193A0319F901FB30F00070080B
:100078008B058B1771082000FF007E100900803166
:100088004528F701F801F901FA01FB01483084001D
:10009800003085000D308031F92080318F308400A8
:1000A800803085002030860000308700283080317D
:1000B800FF207E1020008031B72821009901F03000
:1000C800F2007208990498019512951520001814E9
:1000D80099139813181398161816250093151311C9
:1000E80093149310220098169811181118102300D1
:1000F8008C148330F200720821009D051D151E1115
:100108009E101E101E179E161E129E17C030F2005B
:1001180072088B0408001134143418341B341E344C
:1001280020342134213420341E341B341834143440
:1001380011340D34093406340334013400340034E6
:1001480001340334063409340D34103416341C34A5
:100158001F341F341C34163410340934033400346B
:1001680000340334093480316120803121001A1CA5
:10017800BA288131102180318031F12080318131DC
:100188000B218031813105218031C8302000D50014
:100198000030D6008031E42080310A30CA28F600C9
:1001A80020005009F4005109F500F40A0319F50A72
:1001B80076087407F20075080318750AF30008003A
:1001C8002000D001D101200055088031D320803192
:1001D8007308720403190800E72803302500920009
:1001E800413091002100111508006400800101319F
:1001F800890BFA280034FE0012001E00FE0B0029AD
:1002080000342000111321001D14111708002200CA
:0C02180098171030990008008B160800A1
:020000040001F9
:04000E00E4FFFFFF0D
:00000001FF
