:0400000080314828DB
:100008007E14803120007F08F1007F30F0007008F6
:100018008B05111F1C2821001C08F0007008200007
:10002800E80021001B08F00070082000E900111307
:10003800111D2A280130E3070030E43D970196019D
:10004800FB30F0007008910521009D140B1D42281B
:100058007B08003E840081300318013E85000008BB
:10006800220099000130F0007008FB077B08193A5C
:100078000319FB01FB30F00070088B058B17710822
:100088002000FF007E10090080314A28F0308400EB
:10009800213085000030FE000230FF0083317E23CE
:1000A8008031F701F801F901FA01FB0120308400E1
:1000B800003085004D30FE000030FF0083317E2384
:1000C80080312100AE01AF01B001B101B201B3012D
:1000D800B401B5016330840083308500A030860008
:1000E800003087000030FF000E3083318A237E10F5
:0600F80020008331362BCD
:100200007F348134823484348534873488348A342A
:100210008B348D348F3490349234933495349634B7
:10022000983499349B349C349E349F34A134A33445
:10023000A434A634A734A834AA34AB34AD34AE34D5
:10024000B034B134B334B434B634B734B834BA3467
:10025000BB34BC34BE34BF34C134C234C334C534FF
:10026000C634C734C834CA34CB34CC34CD34CF349C
:10027000D034D134D234D334D534D634D734D8343E
:10028000D934DA34DB34DC34DD34DF34E034E134E7
:10029000E234E334E434E434E534E634E734E83497
:1002A000E934EA34EB34EC34EC34ED34EE34EF344E
:1002B000EF34F034F134F234F234F334F434F4340F
:1002C000F534F534F634F734F734F834F834F934D7
:1002D000F934F934FA34FA34FB34FB34FB34FC34AB
:1002E000FC34FC34FD34FD34FD34FD34FE34FE3486
:1002F000FE34FE34FE34FE34FE34FE34FE34FE346E
:10030000FF34FE34FE34FE34FE34FE34FE34FE345C
:10031000FE34FE34FE34FD34FD34FD34FD34FC3453
:10032000FC34FC34FB34FB34FB34FA34FA34F93457
:10033000F934F934F834F834F734F734F634F53462
:10034000F534F434F434F334F234F234F134F03478
:10035000EF34EF34EE34ED34EC34EC34EB34EA3497
:10036000E934E834E734E634E534E434E434E334BF
:10037000E234E134E034DF34DD34DC34DB34DA34ED
:10038000D934D834D734D634D534D334D234D13424
:10039000D034CF34CD34CC34CB34CA34C834C73461
:1003A000C634C534C334C234C134BF34BE34BC34A3
:1003B000BB34BA34B834B734B634B434B334B134EB
:1003C000B034AE34AD34AB34AA34A834A734A63438
:1003D000A434A334A1349F349E349C349B34993488
:1003E0009834963495349334923490348F348D34D9
:1003F0008B348A348834873485348434823481342D
:100400007F347D347C347A34793477347634743480
:10041000733471346F346E346C346B3469346834D3
:10042000663465346334623460345F345D345B3425
:100430005A34583457345634543453345134503475
:100440004E344D344B344A344834473446344434C3
:100450004334423440343F343D343C343B3439340B
:1004600038343734363434343334323431342F344E
:100470002E342D342C342B3429342834273426348C
:10048000253424342334223421341F341E341D34C3
:100490001C341B341A341A341934183417341634F3
:1004A00015341434133412341234113410340F341C
:1004B0000F340E340D340C340C340B340A340A343B
:1004C0000934093408340734073406340634053453
:1004D000053405340434043403340334033402345F
:1004E0000234023401340134013401340034003464
:1004F000003400340034003400340034003400345C
:10050000003400340034003400340034003400344B
:100510000034003400340134013401340134023435
:100520000234023403340334033404340434053411
:1005300005340534063406340734073408340934E6
:1005400009340A340A340B340C340C340D340E34B0
:100550000F340F3410341134123412341334143471
:10056000153416341734183419341A341A341B3429
:100570001C341D341E341F342134223423342434DB
:10058000253426342734283429342B342C342D3484
:100590002E342F3431343234333434343634373427
:1005A000383439343B343C343D343F3440344234C5
:1005B000433444344634473448344A344B344D345D
:1005C0004E345034513453345434563457345834F0
:1005D0005A345B345D345F34603462346334653480
:1005E0006634683469346B346C346E346F3471340F
:1005F000733474347634773479347A347C347D349B
:10060000A034863401340034B0340434003402346D
:1006100021009901F030F2007208990498019512B6
:100620009515200018149913981318139816181676
:100630002500931513119314931022009816981106
:100640001811181023008C148330F2007208210056
:100650009D051D151E119E101E101E179E161E12A2
:100660009E17C030F20072088B0408008331082303
:10067000833121001A1C392B8331A7238331833125
:10068000962383318331AC2383318331A12383319A
:10069000C8302000ED000030EE008331712383313B
:1006A0000A30492BF60020006309F4006409F500C4
:1006B000F40A0319F50A76087407F200750803189E
:1006C000750AF3000800103416341C341F341F342C
:1006D0001C34163410340934033400340034033429
:1006E00009342000E301E40120006D088331522326
:1006F00083317308720403190800742B64008001AD
:1007000001310130FE020030FF3B7F087E040319F7
:1007100000347F2BFE0012001E000130FE0200306C
:10072000FF3B7F087E04031900348B2B20009701C8
:1007300096010330250092004130910021001115EF
:1007400008002000111321001D14111708002000BB
:1007500095010B118B160800220098171030990094
:0207600008008F
:020000040001F9
:04000E00E4FFFFFF0D
:00000001FF
