:0400000080314328E0
:100008007E14803120007F08F1007F30F0007008F6
:100018008B05111F1A2821001C08F0007008F80031
:100028001B08F00070082000CC001113111D2828AF
:100038000130CA070030CB3D97019601FB30F00034
:100048007008910521009D140B1D3D287908203E5C
:10005800860087010108220099000130F00070082D
:10006800F9077908193A0319F901FB30F00070080B
:100078008B058B1771082000FF007E100900803166
:100088004528F801F901FA01FB01C801C901CA01B3
:10009800CB01CC01BF308400803085002030860041
:1000A800003087002830813134217E1020008031D3
:1000B800E72821009901F030F200720899049801AC
:1000C800951295152000181499139813181398165B
:1000D80018162500931513119314931022009816DF
:1000E80098111811181023008C148330F20072082C
:1000F80021009D051D151E119E101E101E179E160F
:100108001E129E17C030F20072088B048C14CB307C
:10011800F20072088C058E16E030F20072088E0527
:1001280008002000CF000C114F08F7007708D00016
:10013800D1010830510203180800D01FA5280E1558
:10014800A6280E110310D00D0C150130CD0000307B
:10015800CE0081311F21803120000C110130CD00EB
:100168000030CE0081311F2180310130F70077083F
:100178002000D1079D281134143418341B341E3440
:1001880020342134213420341E341B3418341434E0
:1001980011340D3409340634033401340034003486
:1001A80001340334063409340D34103416341C3445
:1001B8001F341F341C34163410340934033400340B
:1001C80000340334093480315D20803121001A1C49
:1001D800EA2881314521803181312C2180318131DA
:1001E8004021803181313A218031C8302000CD0052
:1001F8000030CE0081311F2180310A302000CD002F
:100208000030CE0081311F21803117308031952098
:1002180080310129F60020004A09F4004B09F50055
:10022800F40A0319F50A76087407F200750803182A
:10023800750AF30008002000CA01CB0120004D0810
:1002480081310E21813173087204031908002229B3
:10025800033025009200413091002100111508005B
:10026800FE0012001E00FE0B352900342000111379
:1002780021001D141117080022009817103099004A
:0602880008008B160800BF
:020000040001F9
:04000E00E4FFFFFF0D
:00000001FF
