:0400000080312B28F8
:100008007E14803120007F08F9007F30F8007808DE
:100018008B05111F13288B31962380312628111D3B
:1000280019288D314925803126280B1D1F288B3131
:10003800882380312628911D25288E31B8268031C5
:1000480026288B1779082000FF007E1009008031D0
:100058002D28FA01FB01FC01FD01EE01EF01A030A2
:1000680084000030850029308B3182238031203094
:1000780084000130850027308B3182238031A03005
:1000880084000130850040308B3182238031DA30A2
:1000980084008B308500473086000130870010309F
:1000A8008B317C237E1020008631D82E2200460812
:1000B8000F392000B300B401B501B6011C30B335C7
:1000C800B40DB50DB60D890B6328220045081F39FC
:1000D8002000B700B801B901BA011730B735B80D1B
:1000E800B90DBA0D890B722822004408073920007F
:1000F800BB00BC01BD01BE011430BB35BC0DBD0D3C
:10010800BE0D890B8128220043080F392000BF004B
:10011800C001C101C2011030BF35C00DC10DC20DF3
:10012800890B90282200420801392000C300C4012D
:10013800C501C6010F30C335C40DC50DC60D890BE9
:100148009F28220041080F392000C700C801C901B3
:10015800CA010B30C735C80DC90DCA0D890BAE28A9
:100168002200400801392000CB00CC01CD01CE018E
:100178000A30CB35CC0DCD0DCE0D890BBD28220014
:100188003F0801392000CF00D001D101D201093048
:10019800CF35D00DD10DD20D890BCC2822003E08C9
:1001A80001392000D300D401D501D6010830D33558
:1001B800D40DD50DD60D890BDB2822003D08033957
:1001C8002000D700D801D901DA010630D735D80D7B
:1001D800D90DDA0D890BEA2822003C0801392000E4
:1001E800DB00DC01DD01DE010530DB35DC0DDD0D7A
:1001F800DE0D890BF92822003B0801392000DF00B9
:10020800E001E101E2010430DF35E00DE10DE20D2E
:10021800890B082922003A0801392000E300E4018B
:10022800E501E6010330E335E40DE50DE60D890B44
:1002380017292200390801392000E700E801E901FF
:10024800EA010230E735E80DE90DEA0D890B2629A8
:100258006708E3046808E4046908E5046A08E60432
:100268006308DF046408E0046508E1046608E20442
:100278005F08DB046008DC046108DD046208DE0452
:100288005B08D7045C08D8045D08D9045E08DA0462
:100298005708D3045808D4045908D5045A08D60472
:1002A8005308CF045408D0045508D1045608D20482
:1002B8004F08CB045008CC045108CD045208CE0492
:1002C8004B08C7044C08C8044D08C9044E08CA04A2
:1002D8004708C3044808C4044908C5044A08C604B2
:1002E8004308BF044408C0044508C1044608C204C2
:1002F8003F08BB044008BC044108BD044208BE04D2
:100308003B08B7043C08B8043D08B9043E08BA04E1
:100318003708B3043808B4043908B5043A08B604F1
:10032800033033042100CD000030200034042100C4
:10033800CE000030200035042100CF00003020001E
:1003480036042100D000CD302000B3003308A000CF
:100358000430A1000030A200C9308C31CA24803199
:1003680004302000B3003308A700C9308E311D26A1
:10037800803104302000B3003308AA00C9308D3121
:10038800A82508002000B3000030FD000030FC0064
:100398000030FB000030FA002100BB01BC01FF3037
:1003A800B900FF30BA002000B401B5013508803A21
:1003B800AE0080302E02031DE3290A3034020318F0
:1003C800F8298F318727813101302000B4070030A8
:1003D800B53D3508803AAE0080302E02031DF6295F
:1003E8000A303402031CE5292000B401B5013508A0
:1003F800803AAE0080302E02031D042A03303402F6
:100408000318192A83316523813101302000B4078C
:100418000030B53D3508803AAE0080302E02031D0D
:10042800172A03303402031C062A2000B401B50140
:100438003508803AAE002D08803A2E02031D262A80
:100448002C0834020318962A2000B101B2013208A0
:10045800803AAE0080302E02031D342A0630310265
:1004680003185B2A20003408AE000230AE35FF3E88
:10047800031D3A2A2E353307AF0031082F07B00085
:10048800300886008701013585317C2581310130AE
:100498002000B1070030B23D3208803AAE0080300B
:1004A8002E02031D592A06303102031C362A200069
:1004B8002C08FF3EAE00FF302D3DAF0035082F065B
:1004C800031D682A34082E06031D7C2A3408AE0052
:1004D8000230AE35FF3E031D6D2A2E353307AF00BF
:1004E8002F08073E860087010135603E01388D2AB6
:1004F80020003408AE000230AE35FF3E031D802ACE
:100508002E353307AF002F08073E860087010135D7
:10051800603E85317C25813101302000B4070030F0
:10052800B53D1C2A033085317C258131F030853179
:100538007C2508002200290803392000B300B401F3
:10054800B501B6011930B335B40DB50DB60D890B2B
:10055800A72A2200280803392000B700B801B901EA
:10056800BA011730B735B80DB90DBA0D890BB62ACF
:10057800220027080F392000BB00BC01BD01BE01C5
:100588001330BB35BC0DBD0DBE0D890BC52A22002D
:10059800260801392000BF00C001C101C201123084
:1005A800BF35C00DC10DC20D890BD42A2200250804
:1005B80001392000C300C401C501C6011130C3358B
:1005C800C40DC50DC60D890BE32A220024080F3976
:1005D8002000C700C801C901CA010D30C735C80DC0
:1005E800C90DCA0D890BF22AFF3022002005200010
:1005F800CB000730220021052000CC00003022006B
:1006080022052000CD000030220023052000CE0066
:100618000230CB35CC0DCD0DCE0D890B0D2B4B08F3
:10062800C7044C08C8044D08C9044E08CA04470842
:10063800C3044808C4044908C5044A08C604430852
:10064800BF044408C0044508C1044608C2043F0862
:10065800BB044008BC044108BD044208BE043B0872
:10066800B7043C08B8043D08B9043E08BA04330886
:100678003704D30034083804D40035083904D500C9
:1006880036083A04D6005330B3003308A0000430CB
:10069800A1000030A2004F308C31CA2482310430CE
:1006A8002000B3003308A7004F308E311D26823159
:1006B80004302000B3003308AA004F308D31A8253C
:1006C80008007E302000A0002008A600A701A8018D
:1006D8002808803AA0008030200208300319270239
:1006E8000318080000307D02031D842B00307C02B3
:1006F800031D842B02307B02031D842B00307A02F9
:100708000318080020002608A000270A8C2BA03612
:10071800890B8B2B201CB22B0130A0007A080739DB
:10072800890A972BA035890B962B2008A1007A08F7
:10073800A2007B08A3007C08A4007D08A500033064
:10074800A536A40CA30CA20C890BA42B2208A03E4E
:1007580086000130870021088104D42B0130A000D5
:100768007A080739890AB92BA035890BB82B2008D4
:10077800FF3AA1007A08A2007B08A3007C08A40025
:100788007D08A5000330A536A40CA30CA20C890B88
:10079800C72B2208A03E860001308700210881056A
:1007A8000130A7070030A83D0130FA070030FB3DB3
:1007B8000030FC3D0030FD3D6C2B00302200A300D2
:1007C8000030A2000030A1000030A0000F3020004F
:1007D800A00020082200A400A501A60102302000E4
:1007E800A00020082200A700A80102302000A000D5
:1007F80020082200A90008001034103411341134E4
:1008080012341234133413341434143415341534A4
:100818001634163417341734183418341934193474
:1008280019341A341A341B341B341B341C341C344A
:100838001C341D341D341D341D341E341E341E3426
:100848001E341E341E341F341F341F341F341F340B
:100858001F341F341F341F341F341F341F341F34F8
:100868001F341E341E341E341E341E341E341D34F0
:100878001D341D341D341C341C341C341B341B34EF
:100888001B341A341A3419341934193418341834F6
:100898001734173416341634153415341434143404
:1008A8001334133412341234113411341034103414
:1008B8000F340E340E340D340D340C340C340B3428
:1008C8000B340A340A340934093408340834073438
:1008D8000734063406340634053405340434043445
:1008E800043403340334033402340234023402344B
:1008F800013401340134013401340134003400344A
:10090800003400340034003400340034003400343F
:10091800003400340034003401340134013401342B
:10092800013401340234023402340234033403340F
:1009380003340434043404340534053406340634EA
:1009480006340734073408340834093409340A34BF
:100958000A340B340B340C340C340D340D340E348F
:100968000E340F3412347A3400340034B034043482
:10097800B6340034483445344C344C344F340034A5
:100988002200380803392000B300B401B501B601CC
:100998001730B335B40DB50DB60D890BCD2C22002B
:1009A800370807392000B700B801B901BA01143077
:1009B800B735B80DB90DBA0D890BDC2C1330203EB4
:1009C800860001308700FF300105BB00413101304E
:1009D8000105BC00413100300105BD004131003046
:1009E8000105BE000B30BB35BC0DBD0DBE0D890B1E
:1009F800F72C220032083F392000BF00C001C10196
:100A0800C2010530BF35C00DC10DC20D890B062DC1
:100A18002200310801392000C300C401C501C60104
:100A28000430C335C40DC50DC60D890B152D220024
:100A3800300803392000C700C801C901CA010230C3
:100A4800C735C80DC90DCA0D890B242D4708C30425
:100A58004808C4044908C5044A08C6044308BF0432
:100A68004408C0044508C1044608C2043F08BB0442
:100A78004008BC044108BD044208BE043B08B70452
:100A88003C08B8043D08B9043E08BA043708B30462
:100A98003808B4043908B5043A08B60402303304F7
:100AA800CF0000303404D00000303504D1000030CD
:100AB8003604D2004F30B3003308A0000430A10040
:100AC8000030A2004B308C31CA248431043020001D
:100AD800B3003308A7004B308E311D268431043013
:100AE8002000B3003308AA004B308D31A825080038
:100AF8002000A900AA01AB012B08803AA30080308E
:100B08002302083003192A020318080020002908C4
:100B1800A3002A0A902DA336890B8F2D23080139AB
:100B28008D317625853120002908A3002A0A9D2DBC
:100B3800A336890B9C2D231CEC2D00307D02031D50
:100B4800AF2D00307C02031DAF2D02307B02031D48
:100B5800AF2D00307A02031808000130A3007A088C
:100B68000739890AB82DA335890BB72D2308A400A6
:100B78007A08A5007B08A6007C08A7007D08A800C5
:100B88000330A836A70CA60CA50C890BC52D250883
:100B9800A03E860001308700240881040130FA074E
:100BA8000030FB3D0030FC3D0030FD3D01302100B0
:100BB800BB070030BC3D3C08803A2000A3008030D1
:100BC8002302031DEA2D053021003B02031C2A2EB7
:100BD80000307D02031DFA2D00307C02031DFA2D22
:100BE80002307B02031DFA2D00307A020318080038
:100BF80001302000A3007A080739890A042EA3359A
:100C0800890B032E2308FF3AA4007A08A5007B0865
:100C1800A6007C08A7007D08A8000330A836A70C0A
:100C2800A60CA50C890B122E2508A03E86000130C3
:100C38008700240881050130FA070030FB3D0030A9
:100C4800FC3D0030FD3D2100BB01BC01013020000E
:100C5800AA070030AB3D802D21003F08013A031D53
:100C680008007D083806031D432E7C083706031D3F
:100C7800432E7B083606031D432E7A083506031DCE
:100C8800502EBF018B315723863110308B315B23B7
:100C98002100C001C00A0800C508031D922E0730B4
:100CA8003505F10000303605F20000303705F30055
:100CB80000303805F4007408730472047104031DCD
:100CC8007D2E3508F1003608F2003708F3003808A1
:100CD800F4000330F436F30CF20CF10C890B6E2E91
:100CE8007108A03E8600013087000108F5007508EC
:100CF800802E4436F1007108C4004418922E3D0835
:100D080003198C2E2908F1007108C800BD01922E24
:100D18002D08F1007108C800BD01BD0A4808F1009E
:100D280071082000EF07BC30840084308500003F44
:100D3800F100013FF2007208803A803C031DA62EA4
:100D480071086F02031CB42EBC3084008430850007
:100D58000008FF3A013E20006F07F1007108EF001C
:100D680020006F08003E840084300318013E85008F
:100D78000008F1007108F60076088B315B23863194
:100D88000130F10071082100C5073E08013A031D32
:100D98000800C5010130B5070030B63D0030B73D49
:100DA8000030B83DBE0108008C31202486318E31D8
:100DB8006126863121001A1CDE2E8B31CB23863129
:100DC8008B31602386318B316A23863120008C1267
:100DD8000A30A0000030A1008C3184248631200024
:100DE8000C160A30A0000030A1008C318424863112
:100DF80020008C160A30A0000030A1008C31842419
:100E08008631C8302000A0000030A1008C31842435
:100E180086314730860001308700D53084000030A5
:100E2800850010302000ED0016001A00ED0B182F79
:100E38000230AC000030AD00D5308131C62186319A
:100E4800BE302000AD008430AE008C31672486317E
:100E58008C314C2486318B317623863120008E15D7
:100E68006430A0000030A1008C31842486318731A1
:100E78006827863164302000A0000030A1008C3142
:100E8800842486312100400803194F2F8C310D240A
:100E980086312100C001D0302000A0000730A10019
:100EA8008C31842486318D311D2586312100BF087F
:100EB800031D5A2FD0302000A0000730A1008C312C
:100EC800842486316400462FC8302000A0000030FA
:100ED800A1008C3184248731220028082000EB00EF
:100EE800EC016B082100D10020006C082100D20021
:100EF800220043082000EB00EC016B082100D3001E
:100F080020006C082100D4002200B901B90A05307C
:100F18002000EB006B082200C10082319E2287313D
:100F280080315A20873105302000A0000030A10010
:100F38008C31842487318B3154238731003A031D47
:100F48000800210051082000EB006B082200A800CF
:100F5800210053082000EB006B082200C300053075
:100F68002000EB006B082200C10082319E228731ED
:100F780080315A20873105302000A0000030A100C0
:100F88008C318424873101302100D3070030D43DCF
:100F98000E3053065404031D9F2F0130D300003038
:100FA800D4000130D1070030D23D0430510652043C
:100FB800031D9F2F2200A80105302000EB006B08BD
:100FC8002200C300080003302000A00020082200EF
:100FD800B000B1010F302000A00020082200B200AC
:100FE8000030B6000030B5000030B4001030B30057
:060FF800B701B80108007A
:1016A8008B318F2308008B12200095010800F00071
:1016B800700822009900080022009817103099003D
:1016C8000800200095010B118B160800200011134B
:1016D80021001D14111708002000AC002C088531CA
:1016E8007C2508008C3135248B318B31AE230800E2
:1016F800FE0012001E00FE0B7D2B003464008001EA
:101708000131890B832B003486313026FB30F700FA
:1017180077088B05080020008E1E942B01300800E6
:101728000030080021001C08F0007008C2001B08E7
:10173800F0007008C30020001113080082319E22B7
:101748008B318F3115278B318431C4248B31803113
:101758005A2008008B31BC238B318B31A2238B316B
:101768000A302000A0000030A1008C318424080039
:101778008331E1238B318B31EA238B318731E727A2
:101788008B318C31A4248B318B31FB230800200052
:101798009701960121001110033025009200413075
:1017A800910020001111210011150800433455340F
:1017B80042344534593459340034053443345534AB
:1017C8004234453458345834003406346D302000DF
:1017D800A00020082200AE000030AD000030AC00B0
:1017E8000030AB000030AA00AF01AF0A08002000AB
:1017F8008C120A30A0000030A1008C3184248B3177
:1018080020008C160A30A0000030A1008C318424FE
:10181800080020008E152200BA01B2018431C424C8
:101828008C3180315A208C310A302000A0000030E1
:10183800A1008C318424080021008C14CB302000B6
:10184800A000200821008C0533302000A0002008CB
:1018580021008E04F3302000A000200821008E050E
:1018680008001A302000A00020082100C100003024
:10187800AC000030AB000030AA000730A9000030EF
:10188800B0000030AF000030AE000D30AD000800F1
:1018980021003A082000AD01AD07210039082000D9
:1018A800AC01AC072C0985317C258C31083020002F
:1018B800AD36AC0C890B5C2C2C0985317C258C3120
:1018C8008331652308002000AF01B0012D082F07E0
:1018D80084002E08303D85000008003803190800F0
:1018E8002D082F0784002E08303D850000088B3115
:1018F80070238C3101302000AF070030B03D6A2CD6
:101908002000A401A5018B3160238C312000A401A3
:10191800A50121082502031D932C20082402031881
:1019280008000B30A3006230A200A20B992CA30B75
:10193800992C000001302000A4070030A53D8D2C13
:101948002200B901BA01BB01BB0ABC01BC0A0330C1
:101958002000A00020082200BD00BE01BF01C00178
:1019680003302000A00020082200C100C201063078
:101978002000A00020082200C30004302000A0009E
:1019880020082200C400C501C60108002000A600E6
:101998002008A3002308A5002608A3002308A40004
:1019A8000130A1020030A23BFF302206031DDE2CCD
:1019B800FF30210603190800250886008701010861
:1019C800A300240886008701230881000130A300B2
:1019D8002308A5070130A3002308A407D42C20005E
:1019E800A7000C112708A6002608A800A90108309E
:1019F800290203180800A81F032D0E15042D0E1127
:101A08000310A80D0C150130A0000030A1008C3186
:101A180084248C3120000C110130A0000030A1007A
:101A28008C3184248C3101302000A6002608A907B7
:101A3800FB2C210029082000EC006C082100C800BC
:101A48002000EF0100302100B8000030B70000305E
:101A5800B6000030B500C501BF01BF0A20008E11D5
:101A68000130A0000030A1008C3184248D318D31EB
:101A7800E1258D3164302000A0000030A1008C31B8
:101A880084248D318B31652308002100BE01BE0AF4
:101A9800200097019601FB30F00070089105013095
:101AA8002100B1070030B23D0030B33D0030B43DF5
:101AB80000303402031D6A2D01303302031D6A2DE4
:101AC80086303202031D6A2DA1303102031C080042
:101AD8000030B4000030B3000030B2000030B10074
:101AE8009D1408002000A2002208A000A1012008DF
:101AF8002100B906200021082100BA06391C972DBB
:101B08003A082000A100210039082000A000A136D1
:101B1800A00C083020062100B900843020002106DE
:101B28002100BA0008003A082000A1002100390865
:101B38002000A000A136A00C20082100B900200038
:101B480021082100BA0008002000AC00AD010130D6
:101B5800A0000030A1008C3184248D3120000C12AB
:101B68000130A0000030A1008C3184248D31200088
:101B7800AD012A082D020318D12D2D082C07AB0022
:101B88002B088600870101088C31F3248D31013040
:101B98002000AB002B08AD07BD2D0130A0000030A0
:101BA800A1008C3184248D3120000C160130A00056
:101BB8000030A1008C31842408002200BA01B2014F
:101BC80003302000EB006B082200C1008431C424DC
:101BD8008D3180315A208D310A302000A00000302C
:101BE800A1008C3184248D318B318F238D310038C5
:101BF800031908002200BA01BA0A3F302000EB009E
:101C08006B082200B2000A302000A0000030A100BA
:101C18008C3184248D318431C4248D3180315A2013
:101C28008D3101302000A0000030A1008C318424C7
:101C380008002000B100B201210028082000B000EF
:101C4800210027082000AF00210026082000AE0050
:101C5800210025082000AD003108A8002808A000B0
:101C68002708A900AA012908A1002A08A2002D30E6
:101C78008C31CA248E312000B201270832020318A1
:101C88000800FF302707A8002D302807A9003203D5
:101C9800FF3A2907AA002A08860087010108AB0035
:101CA80032083107AC002C08860087012B08810018
:101CB8000130A8002808B207412E210097161712F4
:101CC8009711171197149901F0302000A0002008EF
:101CD800210099049801951295152000181499135C
:101CE80098131813981618162500931513119314A2
:101CF80093102200981698111811181023008C14AC
:101D080083302000A000200821009D051D151E110C
:101D18009E101E101E179E161E129E170B112000D5
:101D280011101111111324009516951115159514FC
:101D3800151096139612161460309200FE3020008B
:101D4800A000200824009304171397121712971065
:101D5800171017112000911121009115C030200093
:101D6800A00020088B0408002400941AD52E200017
:101D7800911124001108F00070082100C600240009
:101D8800141D052F1418EC2E20006E08A03E8600A6
:101D980087010108240091000130F000700820003C
:101DA800032F200091112100461CF62E2400161B3B
:101DB800052F1418EC2E20006E08A03E860087011F
:101DC8000108240091000130F00070082000032F62
:101DD80024001108F00070082100C700CC3024004E
:101DE8009100042F24001108F00020006E08A03E86
:101DF80086008701700881000130F0007008EE0746
:101E0800240015161108F00070082100C7002400EE
:101E180095131513053020006E02031C0800EE010F
:101E2800080022002F0801392000B300B401B501D1
:101E3800B6011630B335B40DB50DB60D890B1E2F8E
:101E480022002E082000B700B801B901BA010E30EF
:101E5800B735B80DB90DBA0D890B2C2F0A30203EB5
:101E6800860001308700FF300105BB0041310F308B
:101E78000105BC00413100300105BD004131003091
:101E88000105BE000230BB35BC0DBD0DBE0D890B72
:101E9800472F3B08B7043C08B8043D08B9043E087E
:101EA800BA043708B3043808B4043908B5043A0842
:101EB800B60401303304BF0000303404C0000030E1
:101EC8003504C10000303604C2003F30B300330887
:101ED800A0000330A1000030A20043308C31CA2496
:101EE8008F3103302000B3003308A70043308E3110
:101EF8001D268F3103302000B3003308AA00433079
:101F08008D31A82508002000A601A701A8012808EE
:101F1800803AA000803020020830031927020318F5
:101F2800080000307D02031DA32F00307C02031D32
:101F3800A32F02307B02031DA32F00307A0203185F
:101F4800080020002608A000270AAB2FA036890B1E
:101F5800AA2F201CD12F0130A0007A080739890A3E
:101F6800B62FA035890BB52F2008A1007A08A2004A
:101F78007B08A3007C08A4007D08A5000330A536D3
:101F8800A40CA30CA20C890BC32F2208A03E860028
:101F98000130870021088104F32F0130A0007A085E
:101FA8000739890AD82FA035890BD72F2008FF3A7F
:101FB800A1007A08A2007B08A3007C08A4007D0881
:101FC800A5000330A536A40CA30CA20C890BE62FA0
:101FD8002208A03E860001308700210881050130D3
:101FE800A7070030A83D0130FA070030FB3D00305C
:081FF800FC3D0030FD3D8B2F84
:020000040001F9
:04000E00FCFFFFFFF5
:00000001FF
